S01300004D6F64756C6F41544D454C2E737265632E
S2140000000C943B000C9458000C9458000C94580028
S2140000100C9458000C9458000C9458000C945800FB
S2140000200C9458000C9458000C948E080C94A1085C
S2140000300C9475080C9483080C9429080C945800AA
S2140000400C9458000C9458000C9437030C945800E9
S2140000500C9458000C9458000C9458000C945800BB
S2140000600C9458000C9458009602B602C902EB0293
S2140000700D030303290311241FBECFEFD8E0DEBF14
S214000080CDBF11E0A0E0B1E0E6E3F2E102C00590EA
S2140000900D92A030B107D9F723E0A0E0B1E001C08F
S2140000A01D92A836B207E1F70E9445070C9419097D
S2140000B00C94000080910801815080930801809183
S2140000C04F02816080934F02809107018150809398
S2140000D0070181111AC080910001882381F0E0E0B9
S2140000E0F4E080819181A281B3810196A11DB11DAA
S2140000F080839183A283B3831092000103C081E0C2
S2140001008093000189E180930701089510C00E9442
S214000110CC08882361F0E091500281E08E0F809336
S2140001205002F0E0E05AFD4F80810E94D80890917E
S2140001305002809149019813EACF0895E1ECF0E06F
S214000140808180688083089580910B0190910C01D6
S214000150009729F410920C0110920B0105C001972C
S21400016090930C0180930B018091090190910A01F4
S214000170009789F410920A011092090195B182E065
S214000180892785B980914E01863051F410924E0130
S2140001900E949E000895019790930A01809309019A
S2140001A00895E1ECF0E080818F7780830895809158
S2140001B00804882319F0803171F01AC08CE990E0A9
S2140001C090930C0180930B018DE691E090930A01C9
S2140001D08093090108958CEA90E090930C01809337
S2140001E00B0181E991E090930A018093090108953B
S2140001F08BE490E090930C0180930B0190930A019E
S21400020080930901089580E090E010C0FC01EE0F95
S214000210FF1FE80FF91FEE0FFF1FEE58F84F108272
S21400022011821282138214821582019682339105FE
S2140002306CF3089526B130E020953095E62FF0E077
S2140002402E233F238623E82FF0E02E173F0709F0E2
S2140002503FC08823A9F080910401682B60930401B5
S2140002608091010190910201FC01EE0FFF1FE80F43
S214000270F91FEE0FFF1FEE58F84F81E0818328C06C
S21400028080910401962F982389F0242F30E0F901FD
S2140002903596EE0FFF1FE050FC4FA081B181220F74
S2140002A0331FF901E05AFC4FB183A08360956823A1
S2140002B0609304018091010190910201FC01EE0F10
S2140002C0FF1FE80FF91FEE0FFF1FEE58F84F1182C1
S2140002D08091010190910201FC01EE0FFF1FE80FD3
S2140002E0F91FEE0FFF1FEE58F84F4083A0E0B4E072
S2140002F04D915D916D917C911397428353836483F6
S21400030075830196909302018093010116962D91B4
S2140003103C9117972F5F3F4F17963C932E93169757
S214000320C29721F41092020110920101089586B13D
S2140003308F70809580930501909106019827909381
S214000340550220916003309161032115310539F083
S2140003502150310930936103209360031EC09091B1
S214000360550290FF0BC09AE090934A0190910301CA
S2140003709E7F8170892B809303010FC080914A0174
S214000380882359F0815080934A01811106C040E0CD
S21400039061E0809103010E941A01809162039091AE
S2140003A06303009731F00197909363038093620391
S2140003B021C08091550281FF0EC08AE080934B01D8
S2140003C080910301982F9D7F809105018270892B73
S2140003D0809303010FC080914B01882359F0815010
S2140003E080934B01811106C041E062E080910301D9
S2140003F00E941A018091640390916503009731F082
S2140004000197909365038093640321C08091550201
S21400041082FF0EC08AE080934C0180910301982FE2
S2140004209B7F809105018470892B809303010FC008
S21400043080914C01882359F0815080934C018111A2
S21400044006C042E064E0809103010E941A01809198
S214000450660390916703009731F0019790936703C6
S2140004608093660321C08091550283FF0EC08AE008
S21400047080934D0180910301982F977F809105010D
S2140004808870892B809303010FC080914D018823CB
S21400049059F0815080934D01811106C043E068E019
S2140004A0809103010E941A01809105018093060144
S2140004B00E94180880914F028E7F80934F02089505
S2140004C0E8E5F2E02481358128273583248320E07F
S2140004D018C080915C0290915D0280FF0BC09695DB
S2140004E0879531E0832730EA932790935D028093C7
S2140004F05C0206C09695879590935D0280935C0299
S2140005002F5F283030F308950F931F93CF93DF9318
S214000510E0914E014E2F50E04730510508F09CC048
S214000520C82FFA01EC5CFF4F0C941309882321F0C6
S2140005308091FF03C81316C0C11105C080914F02F9
S214000540806180934F02E8E5F2E085E081838FEFDB
S2140005509FEF958384838C2F0E94600281E08093B6
S2140005604E0180C086E080934E017CC008E512E014
S214000570F80180830E946002F80181819FEF980F46
S2140005809183C03111F48093590282E080934E012A
S21400059069C0E091570281E08E0F80935702F0E029
S2140005A0E15BFE4FC0838C2F0E946002E8E5F2E01C
S2140005B0818181508183811155C08091580280319C
S2140005C031F4C093590283E080934E014BC085E01E
S2140005D080934E0147C0E091570281E08E0F8093D2
S2140005E05702F0E0E15BFE4FC0838C2F0E94600252
S2140005F0E8E5F2E0818181508183811133C085E096
S21400060080934E012FC0C82FD0E0D0935F02C093D6
S2140006105E0284E080934E0125C020E0382FE8E596
S214000620F2E086819781822B932B978386832481A1
S21400063035818217930731F480914F028260809350
S2140006404F0204C0809157028093560210924E01CA
S21400065009C00E94D10006C010924E018091570238
S21400066080935602DF91CF911F910F9108951F92AC
S2140006700F920FB60F9211242F933F934F935F93D1
S2140006806F937F938F939F93AF93BF93EF93FF9355
S2140006900E94D7008091C6000E948402FF91EF91CD
S2140006A0BF91AF919F918F917F916F915F914F9185
S2140006B03F912F910F900FBE0F901F901895CF93DC
S2140006C0DF93E8E5F2E08FEF9FEF958384838081E8
S2140006D0863009F4FEC018F4833041F073C38830C6
S2140006E009F4ABC1803109F47CC26CC383E8809303
S2140006F05A0280914F0284FF04C08F7E80934F027F
S21400070071C3A0915602E1E0EA0FE0935602B0E012
S214000710A15BBE4F8C91C1E5D2E08983A1E0AE0F0C
S214000720A0935602F0E0E15BFE4F808188838881CB
S2140007309981E1E0EA0FE0935602B0E0A15BBE4F7C
S2140007402C91298321E02E0F20935602F0E0E15BE6
S214000750FE4F20812883488159819A012150310912
S2140007602B37310548F083E080935B0280914F027F
S214000770886080934F0236C3811524E0920750F0BC
S2140007809C01225134402036334020F08F39A8E0B7
S2140007909A0748F082E080935B0280914F0288605F
S2140007A080934F021FC39C0134502231310598F4C8
S2140007B09A0121503048220F331F280F391F22314B
S2140007C0344048F082E080935B0280914F0288605C
S2140007D080934F0207C39C01225737402D32314089
S2140007E098F49A0121503048220F331F280F391FE2
S2140007F02F39384048F082E080935B0280914F02A8
S214000800886080934F02EEC2A0914901E1E0EA0FB2
S214000810B0E0A05ABD4F2091FF032C93A1E0AE0F8D
S214000820F0E0E05AFD4F23E0208321E02A0F2093DA
S2140008304901B0E0FD01E05AFD4F108260E070E033
S21400084010C0E0914901F1E0FE0FF0934901F0E09D
S214000850EC01C20FD31F2881E05AFD4F20837F5F33
S2140008606F5F262F30E0FA01EE0FFF1F2E173F07AF
S21400087040F3A05ABD4F7C93C091500207C0FC01C4
S214000880E05AFD4F80810E946002CF5F8C2F90E07F
S214000890E09149012E2F30E0A9014D5F5F4F84178C
S2140008A095076CF380915C0290915D02A1E5B2E041
S2140008B08C9311969C93EF5FE901C05ADD4F8883B5
S2140008C081E08E0F80934901F0E0E05AFD4F90835F
S2140008D089C286E880935A02A0915602E1E0EA0FA8
S2140008E0E0935602B0E0A15BBE4F8C91C1E5D2E02A
S2140008F08983A1E0AE0FA0935602F0E0E15BFE4FC5
S2140009008081888388819981E1E0EA0FE09356022E
S214000910B0E0A15BBE4F2C91298331E03E0F3093AF
S2140009205602F0E0E15BFE4F308138838F3FE3E014
S2140009309E0750F0AC01425154404036534020F0E0
S2140009408F3938E0930748F082E080935B0280910D
S2140009504F02886080934F0245C2DC012C932091A1
S214000960510211962C9320914F0224FF05C0822F2E
S2140009708F7E80934F0236C2A0914901E1E0EA0FD4
S214000980B0E02091FF03A05ABD4F2C93A1E0AE0F1C
S214000990F0E0E05AFD4F26E02083C1E5D2E09983DF
S2140009A08883E1E0EA0FB0E02981A05ABD4F2C937E
S2140009B0A1E0AE0FF0E02881E05AFD4F2083E1E091
S2140009C0EA0FE0934901B0E0EC012881A05ABD4F40
S2140009D02C9321E02E0F20934901F0E08981E05A04
S2140009E0FD4F8083C091500208C0EC2FF0E0E05A23
S2140009F0FD4F80810E946002CF5FE0914901CE17D3
S214000A00A0F390915C0280915D02A1E5B2E09C9318
S214000A1011968C93119781E08E0FF0E0E05AFD4F0F
S214000A20908391E0980F90934901E82FF0E011969B
S214000A308C91E05AFD4F8083D5C188E880935A0296
S214000A4080914F0284FF04C08F7E80934F02CAC1FC
S214000A50A0915602E1E0EA0FE0935602B0E0A15BF7
S214000A60BE4F8C91C1E5D2E08983A1E0AE0FA09382
S214000A705602F0E0E15BFE4F808188838881998191
S214000A80E1E0EA0FE0935602B0E0A15BBE4F2C9186
S214000A90298321E02E0F20935602F0E0E15BFE4F03
S214000AA020812883288139818130910529F098F1A9
S214000AB082309105B9F022C02115310521F02115AB
S214000AC0DFEF3D0731F440914F02406440934F0200
S214000AD022C083E080935B0280914F0288608093FF
S214000AE04F0280C121153105B1F083E080935B028F
S214000AF080914F02886080934F0274C181E080939A
S214000B005B0280914F02886080934F02809157026B
S214000B108093560267C1A0914901E1E0EA0FB0E078
S214000B204091FF03A05ABD4F4C93C1E0CE0FF0E0BA
S214000B30E05AFD4F48E04083A1E5B2E011969C9351
S214000B408E93E1E0EC0FD0E011968C911197C05A8D
S214000B50DD4F8883C1E0CE0FF0E08C91E05AFD4F68
S214000B60808311963C932E93E1E0EC0FD0E0119633
S214000B708C911197C05ADD4F888381E08E0F809349
S214000B804901F0E08C91E05AFD4F8083C0915002FD
S214000B9008C0EC2FF0E0E05AFD4F80810E94600212
S214000BA0CF5FE0914901CE17A0F390915C0280914F
S214000BB05D02A1E5B2E09C9311968C93119781E0BB
S214000BC08E0FF0E0E05AFD4F908391E0980F9093DF
S214000BD04901E82FF0E011968C91E05AFD4F808392
S214000BE001C180E980935A02E0915602A1E0AE0F5F
S214000BF0A0935602F0E0E15BFE4F8081C1E5D2E0B3
S214000C008983E1E0EA0FE0935602B0E0A15BBE4FB5
S214000C108C91888388819981A1E0AE0FA0935602BB
S214000C20F0E0E15BFE4F20812983E1E0EA0FE093EC
S214000C305602B0E0A15BBE4F2C91288348815981B3
S214000C4021E02E0F20935602F0E0E15BFE4F20815C
S214000C50BA01615071096B37710538F430E0BA019A
S214000C60660F771F2617370749F083E080935B02ED
S214000C7080914F02886080934F02B4C09C0134502C
S214000C802231310548F082E080935B0280914F026A
S214000C90886080934F02A6C09A0121503048220FE8
S214000CA0331F280F391F22313440B8F082E080937A
S214000CB05B0280914F02886080934F0293C0E09160
S214000CC0560231E03E0F30935602F0E0E15BFE4FF5
S214000CD03081DC013C932F5F01C020E0E22FF0E082
S214000CE0E617F70760F320914F0224FF05C0822F16
S214000CF08F7E80934F0276C0A0914901E1E0EA0F13
S214000D00B0E02091FF03A05ABD4F2C93C1E0CE0F58
S214000D10F0E0E05AFD4F20E12083A1E5B2E0119615
S214000D209C938E93E1E0EC0FD0E011968C91119796
S214000D30C05ADD4F8883C1E0CE0FF0E08C91E05AB8
S214000D40FD4F808311965C934E93E1E0EC0FD0E06C
S214000D5011968C911197C05ADD4F888381E08E0FD3
S214000D6080934901F0E08C91E05AFD4F8083C0915A
S214000D70500208C0EC2FF0E0E05AFD4F80810E9440
S214000D806002CF5FE0914901CE17A0F390915C021C
S214000D9080915D02A1E5B2E09C9311968C93119729
S214000DA081E08E0FF0E0E05AFD4F908391E0980FBF
S214000DB090934901E82FF0E011968C91E05AFD4F90
S214000DC0808310C080914F0284FD0CC081E0809328
S214000DD05B0280914F02886080934F028091570299
S214000DE080935602DF91CF910895CF93DF93809141
S214000DF04F02877F80934F02E0914901A1E0AE0F3A
S214000E00F0E08091FF03E05AFD4F8083E1E0EA0FB7
S214000E10B0E0C8E5D2E08A81A05ABD4F8C9381E04D
S214000E208E0F80934901F0E08B81E05AFD4F80835E
S214000E30C091500208C0EC2FF0E0E05AFD4F8081D0
S214000E400E946002CF5FE0914901CE17A0F3909117
S214000E505C0280915D02A1E5B2E09C9311968C93B2
S214000E60119781E08E0FF0E0E05AFD4F908391E0FD
S214000E70980F90934901E82FF0E011968C91E05A74
S214000E80FD4F8083DF91CF91089582E08093FF032A
S214000E900E9404080E94F3080E940B080E9454084F
S214000EA00E94030178948AE590E00E94240884EA70
S214000EB090E00E949C080E949E0010924E0189E1DC
S214000EC08093080184E080934F02109249011092AB
S214000ED05002109257021092560282E38093070146
S214000EE088B18F70809580930501809304011092DD
S214000EF0550210924F0210920001E0E6F3E01182D4
S214000F001082138212821582148217821682E0E003
S214000F10F4E080ED91ECABE8B9E680839183A283A0
S214000F20B38383E393E3958384831782168287E7EC
S214000F30808788E88187138612861586148617862A
S214000F401686118A108A80910801811107C095B112
S214000F5080E2892785B989E18093080180914F0254
S214000F6081FF05C08D7F80934F020E945F039091A2
S214000F70500280914901981739F00E94D1008BB138
S214000F8084608BB90E94860090915002809149013E
S214000F9098130EC00E94D208882351F0E0ECF0E0CF
S214000FA08081806480830E949E008BB18B7F8BB98A
S214000FB080914F0283FD0E94F50680914F0286FFC6
S214000FC003C08F7B80934F0280914F0280FFBBCF80
S214000FD00E941E080E949701B6CF109264001092DD
S214000FE0610013BE15BE089515BE1FBE80E00895AD
S214000FF08FE384B917B886E18AB915B818B81BB854
S21400100013B816B819B808950E94ED070E94F8079D
S2140010100E94F40708958BE987BD18BC16BC13BC64
S21400102082E084BD95E095BD80936E0080E00895D3
S214001030EEE6F0E08081826080830895EEE6F0E0E0
S214001040808182708083089590930E0180930D01B5
S21400105008951F920F920FB60F9211242F933F936D
S2140010604F935F936F937F938F939F93AF93BF93AB
S214001070EF93FF9381E085BBE0910D01F0910E01A7
S214001080309709F00995FF91EF91BF91AF919F912D
S2140010908F917F916F915F914F913F912F910F901C
S2140010A00FBE0F901F9018958FE990E090938900DF
S2140010B08093880081E090E090938B0080938A0074
S2140010C0109287001092860010928500109284007D
S2140010D013BC1092800089E08093810010928200F9
S2140010E082E080936F0080E008951F920F920FB603
S2140010F00F9211248F9382E086BB8F910F900FBEC4
S2140011000F901F9018951F920F920FB60F921124F2
S21400111016BA0F900FBE0F901F9018951F920F9241
S2140011200FB60F9211248F9385E086BB8F910F9098
S2140011300FBE0F901F9018959093100180930F018B
S21400114008951F920F920FB60F9211242F933F937C
S2140011504F935F936F937F938F939F93AF93BF93BA
S214001160EF93FF9381E086BBE0910F01F0911001B1
S214001170309709F00995FF91EF91BF91AF919F913C
S2140011808F917F916F915F914F913F912F910F902B
S2140011900FBE0F901F9018958091C00085FB882782
S2140011A080F908958091C00086FB882780F908950D
S2140011B08093C6000895089508950895009721F035
S2140011C090931601809315010895009721F090934F
S2140011D01401809313010895009721F09093120153
S2140011E08093110108958FEC90E09093C500809352
S2140011F0C40082E08093C00088E18093C10086E04E
S2140012008093C2008BED98E00E94DE088CED98E09B
S2140012100E94E5088DED98E00E94EC0810921801F7
S214001220109217010895EE0FFF1F0590F491E02D20
S20A0012300994F894FFCFBC
S2058003FF0078
S2148004000000000000000000000000000000000067
S206800410000065
S21480077200000000000000000000000000000000F2
S21480078200000000000000000000000000000000E2
S21480079200000000000000000000000000000000D2
S2148007A200000000000000000000000000000000C2
S2148007B200000000000000000000000000000000B2
S2148007C200000000000000000000000000000000A2
S2148007D20000000000000000000000000000000092
S2148007E20000000000000000000000000000000082
S2148007F20000000000000000000000000000000072
S2148008020000000000000000000000000000000061
S2148008120000000000000000000000000000000051
S2148008220000000000000000000000000000000041
S2148008320000000000000000000000000000000031
S2148008420000000000000000000000000000000021
S2148008520000000000000000000000000000000011
S2148008620000000000000000000000000000000001
S21480087200000000000000000000000000000000F1
S21480088200000000000000000000000000000000E1
S210800892000000000000000000000000D5
S804000000FB
