:100000000C943B000C9458000C9458000C9458002D
:100010000C9458000C9458000C9458000C94A70BA6
:100020000C9458000C9458000C94510B0C94640BD5
:100030000C94380B0C94460B0C94EC0A0C9458005E
:100040000C9458000C9458000C940E040C94580016
:100050000C9458000C9458000C9458000C945800C0
:100060000C9458000C9458006D038D03A003C20338
:10007000E403DA03000411241FBECFEFD8E0DEBF93
:10008000CDBF11E0A0E0B1E0E0EAFAE102C00590E6
:100090000D92A030B107D9F723E0A0E0B1E001C094
:1000A0001D92AE37B207E1F70E9453080C944E0D33
:1000B0000C9400008091110190911201009731F091
:1000C0000197909312018093110109C080915E0104
:1000D000882329F0863019F086E080935E018091B4
:1000E0000F0190911001009731F00197909310014A
:1000F00080930F01089510925E01809168028093B1
:100100006702089580910C01815080930C018091C9
:100110005F02816080935F0280910B018150809328
:100120000B0181111AC080910001882381F0E0E069
:10013000F4E080819181A281B3810196A11DB11D5E
:1001400080839183A283B3831092000103C081E076
:100150008093000182E380930B0108958091070151
:100160009091080101979093080180930701809175
:100170007B03815080937B03811108C082E08093D0
:100180007B0380917C0381FD0E94990C80917C030C
:100190008478803811F40E941C0D8091710380FFD7
:1001A00011C08E7F8093710380917C0388718031B0
:1001B00011F40E940A0D80917C0380FF08C00E9408
:1001C000580C0895809171038160809371030895A4
:1001D0008091C00085FF0CC0E091600281E08E0F2D
:1001E00080936002F0E0EF58FD4F80810E94DD0BAC
:1001F0000895E1ECF0E080818068808308959C019F
:10020000215031092F3F334070F4F999FECFF89413
:1002100081BD60BD8FB384608FBB8FB382608FBBA5
:10022000789481E008958FEF08959C012150310961
:100230002F3F334050F4F999FECF92BD81BD8FB36B
:1002400081608FBB80B590E008958FEF9FEF089598
:1002500080910E018823F1F080910D01882369F0CF
:1002600086E590E0909312018093110189EC90E073
:100270009093100180930F0108958FE490E0909384
:1002800012018093110187EB90E09093100180930D
:100290000F01089580910D01882369F08CEA90E0A8
:1002A000909312018093110181E991E090931001E4
:1002B00080930F0108958DE990E09093120180934F
:1002C00011018DE691E09093100180930F01089544
:1002D00080E090E010C0FC01EE0FFF1FE80FF91F57
:1002E000EE0FFF1FEE58F84F108211821282138218
:1002F000148215820196823391056CF3089526B11C
:1003000030E020953095E62FF0E02E233F23862322
:10031000E82FF0E02E173F0709F03FC08823A9F02F
:1003200080910401682B60930401809101019091F8
:100330000201FC01EE0FFF1FE80FF91FEE0FFF1F78
:10034000EE58F84F81E0818328C080910401962FF8
:10035000982389F0242F30E0F9013396EE0FFF1F28
:10036000E050FC4FA081B181220F331FF901EE58FC
:10037000FC4FB183A0836095682360930401809152
:10038000010190910201FC01EE0FFF1FE80FF91F20
:10039000EE0FFF1FEE58F84F1182809101019091EE
:1003A0000201FC01EE0FFF1FE80FF91FEE0FFF1F08
:1003B000EE58F84F4083A0E0B4E04D915D916D910F
:1003C0007C91139742835383648375830196909342
:1003D00002018093010150962D913C9151972F5F1E
:1003E0003F4F51963C932E935097C29721F4109211
:1003F000020110920101089586B18F70809580935B
:10040000050190910601982790936602209172034E
:10041000309173032115310539F0215031093093A2
:100420007303209372031EC09091660290FF0BC06D
:100430009AE090935A01909103019E7F8170892BDD
:10044000809303010FC080915A01882359F0815095
:1004500080935A01811106C040E061E08091030160
:100460000E947F018091740390917503009731F091
:100470000197909375038093740321C08091660265
:1004800081FF0EC08AE080935B0180910301982F69
:100490009D7F809105018270892B809303010FC09D
:1004A00080915B01882359F0815080935B01811119
:1004B00006C041E062E0809103010E947F018091CB
:1004C000760390917703009731F00197909377032B
:1004D0008093760321C08091660282FF0EC08AE07D
:1004E00080935C0180910301982F9B7F809105018F
:1004F0008470892B809303010FC080915C01882355
:1005000059F0815080935C01811106C042E064E0A3
:10051000809103010E947F0180917803909179037B
:10052000009731F00197909379038093780321C06D
:100530008091660283FF0EC08AE080935D01809106
:100540000301982F977F809105018870892B8093F4
:1005500003010FC080915D01882359F08150809381
:100560005D01811106C043E068E0809103010E94B3
:100570007F0180910501809306010E94DB0A809132
:100580005F028E7F80935F0208950F931F93CF9336
:10059000DF9360E061C02091120430911304223394
:1005A000310521F41092130410921204A091590104
:1005B00041E04A0FB0E0C0E0D4E02A893B89F9016C
:1005C000EE0FFF1FE20FF31FEE0FFF1FEE58F84F65
:1005D0005081AF58BD4F5C9311E0140F50E0718112
:1005E0004F585D4FDA017C937281B381548145810C
:1005F00070936202B0936302509364024093650269
:10060000E1E0E10FA12FB0E042E652E0AF58BD4F6C
:100610007C9311E01E0FF0E0DA0111967C91EF5807
:10062000FD4F708301E0010FA12FB0E0FA0172814C
:10063000AF58BD4F7C9371E0700F70935901E02F5C
:10064000F0E0DA0113964C91EF58FD4F40832F5F95
:100650003F4F3B8B2A8B6F5F262F30E028173907DF
:1006600008F499CFDF91CF911F910F910895E9E69A
:10067000F2E02481358128273583248320E018C0C7
:1006800080916D0290916E0280FF0BC096958795C8
:1006900031E0832730EA932790936E0280936D02B6
:1006A00006C09695879590936E0280936D022F5F9A
:1006B000283030F308950F931F93CF93DF93E09189
:1006C0005E014E2F50E04730510508F09CC0C82F06
:1006D000FA01EC5CFF4F0C94390D882321F08091D6
:1006E000FF03C81316C0C11105C080915F0280616D
:1006F00080935F02E9E6F2E085E081838FEF9FEF70
:10070000958384838C2F0E94370381E080935E0160
:1007100080C086E080935E017CC009E612E0F801AB
:1007200080830E943703F80181819FEF980F9183A6
:10073000C03111F480936A0282E080935E0169C047
:10074000E091680281E08E0F80936802F0E0E15A48
:10075000FE4FC0838C2F0E943703E9E6F2E08181CF
:1007600081508183811155C080916902803131F4BB
:10077000C0936A0283E080935E014BC085E0809362
:100780005E0147C0E091680281E08E0F80936802AD
:10079000F0E0E15AFE4FC0838C2F0E943703E9E658
:1007A000F2E0818181508183811133C085E08093A3
:1007B0005E012FC0C82FD0E0D0937002C0936F02AB
:1007C00084E080935E0125C020E0382FE9E6F2E066
:1007D00086819781822B932B978386832481358111
:1007E0008217930731F480915F02826080935F02E9
:1007F00004C0809168028093670210925E0109C074
:100800008093610206C010925E018091680280931D
:100810006702DF91CF911F910F9108951F920F9260
:100820000FB60F9211242F933F934F935F936F93C3
:100830007F938F939F93AF93BF93EF93FF930E9408
:1008400028018091C6000E945B03FF91EF91BF9148
:10085000AF919F918F917F916F915F914F913F9158
:100860002F910F900FBE0F901F901895EF92FF924F
:100870000F931F93CF93DF93E9E6F2E08FEF9FEFA3
:10088000958384838081863009F420C118F48330F5
:1008900041F0A0C3883009F4D2C1803109F4A5C267
:1008A00099C383E880936B0280915F0284FF04C048
:1008B0008F7E80935F029EC3A0916702E1E0EA0F02
:1008C000E0936702B0E0A15ABE4F8C91C2E6D2E03D
:1008D0008983A1E0AE0FA0936702F0E0E15AFE4FDA
:1008E0008081888388819981E1E0EA0FE093670243
:1008F000B0E0A15ABE4F2C91298321E02E0F209306
:100900006702F0E0E15AFE4F208128830990D881E8
:10091000C02D9E01215031092B37310548F083E06D
:1009200080936C0280915F02886080935F0262C353
:10093000009781F09C01235331092D3C43E034079B
:1009400048F0215E33402E35334020F08F39A8E047
:100950009A0748F082E080936C0280915F02886081
:1009600080935F0247C39C0134502431310598F4D1
:100970009E0121503048220F331F280F391F243188
:10098000344048F082E080936C0280915F0288607E
:1009900080935F022FC39C01225737402D32314094
:1009A00098F49E0121503048220F331F280F391F21
:1009B0002F39384048F082E080936C0280915F02CA
:1009C000886080935F0216C3A0915901E1E0EA0FAD
:1009D000B0E0AF58BD4F2091FF032C9301E00E0F04
:1009E000F0E0EF58FD4F23E0208321E0200F20931B
:1009F000590110E0F801EF58FD4F10829C01215081
:100A000031092133310538F59E01ABEABAEA0E947B
:100A10003F0D7C01F694E794C7010E94C502E0E017
:100A2000F4E0808991898E199F09918B808B5C2FCE
:100A3000550F1BC0E091590161E06E0F60935901A1
:100A4000F0E0DC01A20FB31F2C91EF58FD4F208383
:100A50005F5F4F5F02C040E050E0242F30E0BE01F6
:100A6000660F771F2617370728F3F801EF58FD4F59
:100A70005083E091600209C0C1E0CE0FF0E0EF5872
:100A8000FD4F80810E943703EC2F80915901E813BC
:100A9000F3CF20916D0290916E02A2E6B2E02C930A
:100AA00011969C93119791E0980FE82FF0E0EF5882
:100AB000FD4F208381E0890F80935901E92FF0E0F9
:100AC00011968C91EF58FD4F808394C286E88093F5
:100AD0006B02A0916702E1E0EA0FE0936702B0E0E9
:100AE000A15ABE4F8C91C2E6D2E08983A1E0AE0F3D
:100AF000A0936702F0E0E15AFE4F808188838881ED
:100B00009981E1E0EA0FE0936702B0E0A15ABE4F9D
:100B10002C91298331E03E0F30936702F0E0E15AD7
:100B2000FE4F308138838E3F33E0930770F08F3F64
:100B300043E0940751F0AC014E50544044365340CA
:100B400020F08F39A8E09A0748F082E080936C0289
:100B500080915F02886080935F024CC2EC01288321
:100B600020916202298320915F0224FF05C0822F19
:100B70008F7E80935F023EC2A0915901E1E0EA0FAF
:100B8000B0E02091FF03AF58BD4F2C93A1E0AE0F12
:100B9000F0E0EF58FD4F26E02083C2E6D2E09983D3
:100BA0008883E1E0EA0FB0E02981AF58BD4F2C9374
:100BB000A1E0AE0FF0E02881EF58FD4F2083E1E087
:100BC000EA0FE0935901B0E0EC012881AF58BD4F26
:100BD0002C9321E02E0F20935901F0E08981EF58EA
:100BE000FD4F8083E091600209C0C1E0CE0FF0E0CC
:100BF000EF58FD4F80810E943703EC2F80915901FF
:100C0000E813F3CF20916D0290916E02A2E6B2E05C
:100C10002C9311969C93119791E0980FE82FF0E098
:100C2000EF58FD4F208381E0890F80935901E92F10
:100C3000F0E011968C91EF58FD4F8083DBC188E87E
:100C400080936B0280915F0284FF04C08F7E80934B
:100C50005F02D0C1A0916702E1E0EA0FE093670272
:100C6000B0E0A15ABE4F8C91C2E6D2E08983A1E0E8
:100C7000AE0FA0936702F0E0E15AFE4F80818883B7
:100C800088819981E1E0EA0FE0936702B0E0A15A20
:100C9000BE4F2C91298321E02E0F20936702F0E0B4
:100CA000E15AFE4F208128832881398181309105C6
:100CB00029F098F182309105B9F022C02115310553
:100CC00021F02115DFEF3D0731F440915F024064D0
:100CD00040935F0222C083E080936C0280915F02A8
:100CE000886080935F0286C121153105B1F083E0F1
:100CF00080936C0280915F02886080935F027AC16A
:100D000081E080936C0280915F02886080935F0233
:100D100080916802809367026DC1A0915901E1E062
:100D2000EA0FB0E04091FF03AF58BD4F4C93C1E0D4
:100D3000CE0FF0E0EF58FD4F48E04083A2E6B2E06E
:100D400011969C938E93E1E0EC0FD0E011968C917C
:100D50001197CF58DD4F8883C1E0CE0FF0E08C9122
:100D6000EF58FD4F808311963C932E93E1E0EC0FFA
:100D7000D0E011968C911197CF58DD4F888381E098
:100D80008E0F80935901F0E08C91EF58FD4F8083D6
:100D9000E091600209C0C1E0CE0FF0E0EF58FD4FD6
:100DA00080810E943703EC2F80915901E813F3CF23
:100DB00020916D0290916E02A2E6B2E02C93119602
:100DC0009C93119791E0980FE82FF0E0EF58FD4FBA
:100DD000208381E0890F80935901E92FF0E011967B
:100DE0008C91EF58FD4F808305C180E980936B02A1
:100DF000E0916702A1E0AE0FA0936702F0E0E15A34
:100E0000FE4F8081C2E6D2E08983E1E0EA0FE09301
:100E10006702B0E0A15ABE4F8C9188838881998186
:100E2000A1E0AE0FA0936702F0E0E15AFE4F2081EF
:100E30002983E1E0EA0FE0936702B0E0A15ABE4FD8
:100E40002C9128834881598121E02E0F209367023D
:100E5000F0E0E15AFE4F2081BA01615071096B3711
:100E6000710538F430E0DA01AA0FBB1F2A173B07DF
:100E700049F083E080936C0280915F0288608093E8
:100E80005F02B8C09C0134502E30310548F082E03A
:100E900080936C0280915F02886080935F02AAC099
:100EA0009A0121503048220F331F280F391F2D304F
:100EB0003440C8F082E080936C0280915F028860C9
:100EC00080935F0297C0EC01C20FD31FE0916702CD
:100ED00071E07E0F70936702F0E0E15AFE4F70817F
:100EE00078836F5F01C060E0262F30E02A173B0750
:100EF00050F320915F0224FF05C0822F8F7E8093E4
:100F00005F0278C0A0915901E1E0EA0FB0E02091C2
:100F1000FF03AF58BD4F2C93C1E0CE0FF0E0EF5868
:100F2000FD4F20E12083A2E6B2E011969C938E93C0
:100F3000E1E0EC0FD0E011968C911197CF58DD4F86
:100F40008883C1E0CE0FF0E08C91EF58FD4F808395
:100F500011965C934E93E1E0EC0FD0E011968C91EA
:100F60001197CF58DD4F888381E08E0F8093590110
:100F7000F0E08C91EF58FD4F8083E091600209C052
:100F8000C1E0CE0FF0E0EF58FD4F80810E943703A3
:100F9000EC2F80915901E813F3CF20916D029091CD
:100FA0006E02A2E6B2E02C9311969C93119791E009
:100FB000980FE82FF0E0EF58FD4F208381E0890F74
:100FC00080935901E92FF0E011968C91EF58FD4F75
:100FD000808310C080915F0284FD0CC081E080930B
:100FE0006C0280915F02886080935F02809168024A
:100FF00080936702DF91CF911F910F91FF90EF9047
:101000000895CF93DF9380915F02877F80935F0283
:10101000E0915901A1E0AE0FF0E08091FF03EF589D
:10102000FD4F8083E1E0EA0FB0E0C9E6D2E08A81BB
:10103000AF58BD4F8C9381E08E0F80935901F0E043
:101040008B81EF58FD4F8083E091600209C0C1E0C1
:10105000CE0FF0E0EF58FD4F80810E943703EC2F58
:1010600080915901E813F3CF20916D0290916E02A7
:10107000A2E6B2E02C9311969C93119791E0980F01
:10108000E82FF0E0EF58FD4F208381E0890F809337
:101090005901E92FF0E011968C91EF58FD4F8083B4
:1010A000DF91CF910895CF93DF93CDB7DEB7289727
:1010B0000FB6F894DEBF0FBECDBF0E94C70A81E015
:1010C00090E00E9415018093FF0382E090E00E946F
:1010D00015010F2EF0E0EF2EF4E0FF2EF02DD701DA
:1010E00014968C9383E090E00E941501F7018583AC
:1010F00084E090E00E94150102E612E0D8018C9392
:1011000085E090E00E941501F80181838081918142
:10111000D70117969C938E93169787E090E00E94D4
:101120001501F801818386E090E00E941501D80145
:101130008C938D919C91F7019187808789E090E055
:101140000E941501D80111968C9388E090E00E94CE
:101150001501F801808380819181D7011B969C93B2
:101160008E931A978BE090E00E941501F80181831D
:101170008AE090E00E941501D8018C938D919C919A
:10118000F70195878487138A128A40ED51EC6BE84A
:1011900079E6D701408351836283738323E333E38A
:1011A00037872687118A108A0091FF03F481F09314
:1011B0000E011596EC911597E0930D0116966D9121
:1011C0007C9117977A83698318964D915C91199752
:1011D0005C834B831A962D913C911B973E832D8304
:1011E00098878F830F3F21F4A2E0A093FF0302E0D2
:1011F000FF3F21F41092040410920E01EF3F29F4F6
:10120000E1E0E0930504E0930D016F3F7F4F31F47F
:1012100010920704109206041A8219824F3F5F4F02
:1012200031F410920904109208041C821B822F3F93
:101230003F4F31F410920B0410920A041E821D825B
:10124000019631F410920D0410920C0418861F823E
:1012500010925E0189E180930C0188EA91E69093F7
:101260000A018093090184E080935F02E7E5F1E0E1
:101270008081877F808310925901109260021092C2
:1012800068021092670282E380930B0182E08093F0
:101290007B038FE895E2909308018093070186B164
:1012A0008F708095809305018093040110926602EF
:1012B00010925F0210920001E2E7F3E011821082C7
:1012C000138212821582148217821682E0E0F4E003
:1012D000658184810E94FD0B0E94CE0A0E94170B3B
:1012E0000E948F0B0E942C0C0E946801789482E867
:1012F00090E00E94E70A8AE590E00E945F0B8EEA88
:1013000090E00E94A20B0E94F90010E080910C0175
:10131000811105C080E2182789E180930C010E94A9
:10132000450C80917C0382FF04C00E94310D0E9415
:10133000290D80915F0281FF05C08D7F80935F0240
:101340000E9436049091600280915901981779F0BB
:101350008091570183FF03C00E94E80008C08BB151
:1013600084608BB9E7E5F1E08081886080839091AB
:10137000600280915901981310C08091570183FF3A
:101380000CC08091C00086FF08C08BB18B7F8BB9E9
:10139000E7E5F1E08081877F808380915F0283FDB4
:1013A0000E94010880915F0286FFC9C06091FF031F
:1013B000061731F081E090E00E94FF000091FF03EA
:1013C0006091040480910E01681741F082E090E082
:1013D0000E94FF008091040480930E016091050437
:1013E00080910D01681741F083E090E00E94FF00BA
:1013F0008091050480930D0129813A818091060432
:101400009091070428173907E1F00F2EF2E6EF2E2E
:10141000F2E0FF2EF02DD70111969C938E9311963A
:101420006C9185E090E00E94FF00F701608184E00C
:1014300090E00E94FF0080910604909107049A8337
:1014400089832B813C81809108049091090428179D
:101450003907E1F00F2EF2E6EF2EF2E0FF2EF02D2D
:10146000D70111969C938E9311966C9187E090E032
:101470000E94FF00F701608186E090E00E94FF007B
:1014800080910804909109049C838B832D813E8177
:1014900080910A0490910B0428173907E1F00F2E70
:1014A000F2E6EF2EF2E0FF2EF02DD70111969C937D
:1014B0008E9311966C9189E090E00E94FF00F701F5
:1014C000608188E090E00E94FF0080910A04909182
:1014D0000B049E838D832F81388580910C0490911D
:1014E0000D0428173907E1F00F2EF2E6EF2EF2E097
:1014F000FF2EF02DD70111969C938E9311966C912F
:101500008BE090E00E94FF00F70160818AE090E0AC
:101510000E94FF0080910C0490910D0498878F83A6
:101520000E94D20BE0E0F4E0658184810E94FD0B13
:101530000E94F90080915F028F7B80935F0280910F
:101540005F0280FF04C00E94E10A0E94FC018091BA
:10155000040190E0880F991F8E71812B85B9D6CE3A
:10156000109264001092610013BE15BE089515BE5E
:101570001FBE80E008958FE384B917B886E18AB969
:1015800015B818B81BB813B816B819B808950E9442
:10159000B00A0E94BB0A0E94B70A08958BE987BD72
:1015A00018BC16BC13BC82E084BD95E095BD809349
:1015B0006E0080E00895EEE6F0E080818260808336
:1015C0000895EEE6F0E08081827080830895909324
:1015D00014018093130108951F920F920FB60F927A
:1015E00011242F933F934F935F936F937F938F9328
:1015F0009F93AF93BF93EF93FF9381E085BBE091FF
:101600001301F0911401309709F00995FF91EF91C2
:10161000BF91AF919F918F917F916F915F914F910A
:101620003F912F910F900FBE0F901F9018958FE94B
:1016300090E0909389008093880081E090E09093FF
:101640008B0080938A00109287001092860010927F
:1016500085001092840013BC1092800089E0809372
:1016600081001092820082E080936F0080E00895F4
:101670001F920F920FB60F9211248F9382E086BBB8
:101680008F910F900FBE0F901F9018951F920F9281
:101690000FB60F92112416BA0F900FBE0F901F9025
:1016A00018951F920F920FB60F9211248F9385E019
:1016B00086BB8F910F900FBE0F901F90189590933F
:1016C00016018093150108951F920F920FB60F9285
:1016D00011242F933F934F935F936F937F938F9337
:1016E0009F93AF93BF93EF93FF9381E086BBE0910D
:1016F0001501F0911601309709F00995FF91EF91CE
:10170000BF91AF919F918F917F916F915F914F9119
:101710003F912F910F900FBE0F901F90189587E665
:101720008093B3001092B4001092B20013BC82E018
:101730008093B0008093B100809370001092B60047
:1017400080E00895909318018093170108951F92E7
:101750000F920FB60F9211242F933F934F935F93E5
:101760006F937F938F939F93AF93BF93EF93FF9369
:1017700081E087BBE0911701F0911801309709F0E3
:101780000995FF91EF91BF91AF919F918F917F91BB
:101790006F915F914F913F912F910F900FBE0F90DE
:1017A0001F9018951092C5001092C4001092C000AE
:1017B0001092C1001092C2000895E0ECF0E0908118
:1017C000906490838093C6000895089508950895C5
:1017D000009721F090931E0180931D0108950097BA
:1017E00021F090931C0180931B010895009721F034
:1017F00090931A01809319010895813039F487E696
:1018000090E09093C5008093C40006C08FEC90E0F8
:101810009093C5008093C40082E08093C00088E16B
:101820008093C100613021F486E28093C20003C03E
:1018300086E08093C20085EE9BE00E94E80B86EE76
:101840009BE00E94EF0B87EE9BE00E94F60B10924C
:10185000200110921F0108958AB180688AB98AB167
:101860008F7B8AB98BB180688BB98BB180648BB95F
:101870008BE280937C03E8E6F0E0808184608083E3
:1018800010927D0310927A03089580917C0385FF66
:101890000EC04E990CC0882354F081E080937A03E7
:1018A00080937B0380917C038F7D80937C030895DC
:1018B00080917D03813079F028F0823099F0833077
:1018C00079F134C080917C03806180937C038BB17B
:1018D00080688BB908958BB18F778BB982E0809344
:1018E0007D0308958091230190E00090260102C0BD
:1018F000959587950A94E2F780FF04C08BB18068C4
:101900008BB903C08BB18F778BB9809126018F5F24
:1019100080932601883060F083E080937D030895F2
:101920008BB180688BB910927D03089510927D036E
:10193000089580917A03813069F030F08230D1F0DF
:10194000833009F442C0089580917C0380628093C3
:101950007C0308954E9906C082E080937A0310922A
:101960002501089510927A0380917C038062809310
:101970007C0308954E9B0FC081E090E0009025010C
:1019800002C0880F991F0A94E2F790912201892BD7
:10199000809322010FC081E090E00090250102C0F9
:1019A000880F991F0A94E2F780959091220189236C
:1019B00080932201809125018F5F809325018830DB
:1019C00040F183E080937A0308954E9B14C0809188
:1019D0007C03806880937C0383FD14C08091220186
:1019E000809321011092220180917C0384608F7783
:1019F00080937C0307C080917C038F7780937C0366
:101A00001092220180917C03806280937C0310926B
:101A10007A03089580912401809323011092240178
:101A20001092260180917C0388608F7E80937C03D6
:101A300081E080937D0308958091220180932101AC
:101A40001092220180917C0384608F7780937C03C5
:101A500008958093240180917C03877F80937C0389
:101A6000089580917C038B7F80937C03809121017A
:101A70000895EE0FFF1F0590F491E02D0994A29FA9
:101A8000B001B39FC001A39F700D811D1124911D52
:101A9000B29F700D811D1124911D0895F894FFCF00
:0200000400807A
:0103FF0000FD
:1004000000000000000000000000000000000000EC
:0404100000000000E8
:100772000000000000000000000000000000000077
:100782000000000000000000000000000000000067
:100792000000000000000000000000000000000057
:1007A2000000000000000000000000000000000047
:1007B2000000000000000000000000000000000037
:1007C2000000000000000000000000000000000027
:1007D2000000000000000000000000000000000017
:1007E2000000000000000000000000000000000007
:1007F20000000000000000000000000000000000F7
:1008020000000000000000000000000000000000E6
:1008120000000000000000000000000000000000D6
:1008220000000000000000000000000000000000C6
:1008320000000000000000000000000000000000B6
:1008420000000000000000000000000000000000A6
:100852000000000000000000000000000000000096
:100862000000000000000000000000000000000086
:100872000000000000000000000000000000000076
:100882000000000000000000000000000000000066
:0C0892000000000000000000000000005A
:00000001FF
