S01300004D6F64756C6F41544D454C2E737265632E
S2140000000C943B000C9458000C9458000C94580028
S2140000100C9458000C9458000C9458000C94E30B65
S2140000200C9458000C9458000C948D0B0C94A00B58
S2140000300C94740B0C94820B0C94280B0C945800A4
S2140000400C9458000C9458000C9436040C945800E9
S2140000500C9458000C9458000C9458000C945800BB
S2140000600C9458000C9458009003B503C803EA0398
S2140000700C040204280411241FBECFEFD8E0DEBF14
S214000080CDBF11E0A0E0B1E0E6E2FBE102C00590E2
S2140000900D92A030B107D9F723E0A0E0B1E001C08F
S2140000A01D92A038B207E1F70E947F080C94910DCC
S2140000B00C94000080910A0190910B01009731F09A
S2140000C0019790930B0180930A0109C08091580113
S2140000D0882329F0863019F086E0809358018091B5
S2140000E0080190910901009731F00197909309015A
S2140000F08093080106C01092580180916802809390
S214000100640280915A0290915B02009729F0019751
S21400011090935B0280935A0208958091010181506A
S214000120809301018091000181508093000181112C
S2140001301AC080915E02882381F0E0E0F4E08081BE
S2140001409181A281B3810196A11DB11D8083918307
S214000150A283B38310925E0203C081E080935E02A6
S21400016082E3809300018091590281608093590256
S21400017008958091020190910301019790930301E5
S2140001808093020180917D03815080937D038111CD
S21400019008C082E080937D0380917E0381FD0E94EB
S2140001A0DC0C80917E038478803811F40E945F0D09
S2140001B08091720380FF11C08E7F809372038091BE
S2140001C07E038871803111F40E944D0D80917E036C
S2140001D080FF08C00E949B0C089580917203816086
S2140001E08093720308959C01215031092F3F3340BC
S2140001F070F4F999FECFF89481BD60BD8FB384602A
S2140002008FBB8FB382608FBB789481E008958FEFA9
S21400021008959C01215031092F3F334050F4F9993D
S214000220FECF92BD81BD8FB381608FBB80B590E05D
S21400023008958FEF9FEF08958091C00085FF0CC052
S214000240E0915C0281E08E0F80935C02F0E0EE5855
S214000250FD4F80810E94190C089580910701882324
S214000260F1F080910601882369F086E590E090938E
S2140002700B0180930A0189EC90E09093090180932A
S214000280080108958FE490E090930B0180930A0193
S21400029087EB90E090930901809308010895809180
S2140002A00601882369F08CEA90E090930B01809316
S2140002B00A0181E991E0909309018093080108956D
S2140002C08DE990E090930B0180930A018DE691E012
S2140002D09093090180930801089526B130E0209597
S2140002E03095E62FF0E02E233F238623E82FF0E01C
S2140002F02E173F0709F04BC0882309F180917B0336
S214000300682B60937B03E42FF0E03796EE0FFF1F19
S214000310E050FC4F8081918101969183808380918B
S214000320660290916702FC01EE0FFF1FE80FF91FAF
S214000330EE0FFF1FEE58F84F81E0818328C08091B2
S2140003407B03962F982389F0242F30E0F90133960B
S214000350EE0FFF1FE050FC4FA081B181220F331F2C
S214000360F901ED58FC4FB183A08360956823609334
S2140003707B038091660290916702FC01EE0FFF1FDF
S214000380E80FF91FEE0FFF1FEE58F84F118280910D
S214000390660290916702FC01EE0FFF1FE80FF91F3F
S2140003A0EE0FFF1FEE58F84F4083A0E0B4E04D91EB
S2140003B05D916D917C91139742835383648375831B
S2140003C00196909367028093660258962D913C9111
S2140003D059972F5F3F4F59963C932E935897C29745
S2140003E021F41092670210926602089586B18F700B
S2140003F0809580937102909165029827909363028E
S21400040020917303309174032115310539F0215082
S214000410310930937403209373031EC090916302D6
S21400042090FF0BC09AE090935301909157019E7FE6
S2140004308170892B809357010FC0809153018823C8
S21400044059F0815080935301811106C040E061E06D
S214000450809157010E946D018091750390917603FB
S214000460009731F00197909376038093750321C02F
S2140004708091630281FF0EC08AE0809354018091D0
S2140004805701982F9D7F809171028270892B8093EF
S21400049057010FC080915401882359F081508093F2
S2140004A05401811106C041E062E0809157010E942C
S2140004B06D018091770390917803009731F0019752
S2140004C0909378038093770321C08091630282FF24
S2140004D00EC08AE08093550180915701982F9B7F2C
S2140004E0809171028470892B809357010FC0809190
S2140004F05501882359F0815080935501811106C01B
S21400050042E064E0809157010E946D01809179037A
S21400051090917A03009731F0019790937A03809335
S214000520790321C08091630283FF0EC08AE0809326
S214000530560180915701982F977F8091710288709D
S214000540892B809357010FC080915601882359F05C
S214000550815080935601811106C043E068E0809187
S21400056057010E946D018091710280936502EEE64C
S214000570F0E0808182608083809159028E7F809334
S2140005805902089520E016C0822F90E0FC01EE0F7D
S214000590FF1FDF01A80FB91FAA0FBB1FAE58B84F29
S2140005A01C9211961C921197FD01128213821482DE
S2140005B015822F5F223340F308950F931F93CF9336
S2140005C0DF9360E06CC020911A0430911B04223344
S2140005D0310521F410921B0410921A04A0915201C6
S2140005E041E04A0FB0E0C0E0D4E02A8D3B8DF9012F
S2140005F0EE0FFF1FE20FF31FEE0FFF1FEE58F84F30
S2140006005081AE58BD4F5C9311E0140F50E07181DD
S2140006104E585D4FDA017C937281B38154814581D7
S21400062070935F02B093600250936102409362023F
S214000630E1E0E10FA12FB0E04FE552E0AE58BD4F2C
S2140006407C9311E01E0FF0E0DA0111967C91EE58D3
S214000650FD4F708301E0010FA12FB0E0FA01728117
S214000660AE58BD4F7C9371E0700F70935201E02F2F
S214000670F0E0DA0113964C91EE58FD4F40832F5F61
S2140006803F4F3B8F2A8F288D398D2115310531F04C
S2140006902150310930931904209318046F5F262FD8
S2140006A030E02817390708F48ECFDF91CF911F91DD
S2140006B00F910895E9E6F2E02481358128273583F5
S2140006C0248320E018C080916D0290916E0280FF16
S2140006D00BC09695879531E0832730EA9327909351
S2140006E06E0280936D0206C09695879590936E0273
S2140006F080936D022F5F283030F308950F931F9379
S214000700CF93DF93E09158014E2F50E047305105CC
S21400071008F0A1C0C82FFA01EC5CFF4F0C947C0DCA
S214000720809159028F7E80935902CC2321F08091CC
S214000730FF03C81316C0C11105C08091590280611D
S21400074080935902E9E6F2E085E081838FEF9FEF20
S214000750958384838C2F0E945A0381E080935801EE
S21400076080C086E0809358017CC009E612E0F8015C
S21400077080830E945A03F80181819FEF980F91832E
S214000780C03111F480936A0282E08093580169C0F8
S214000790E091680281E08E0F80936802F0E0E75AED
S2140007A0FE4FC0838C2F0E945A03E9E6F2E0818157
S2140007B081508183811155C080916902803131F466
S2140007C0C0936A0283E0809358014BC085E0809313
S2140007D0580147C0E091680281E08E0F809368025E
S2140007E0F0E0E75AFE4FC0838C2F0E945A03E9E6DA
S2140007F0F2E0818181508183811133C085E080934E
S21400080058012FC0C82FD0E0D0937002C0936F025B
S21400081084E08093580125C020E0382FE9E6F2E016
S21400082086819781822B932B9783868324813581BB
S2140008308217930731F4809159028260809359029F
S21400084004C080916802809364021092580109C027
S21400085080935D0206C010925801809168028093D2
S2140008606402DF91CF911F910F9108951F920F920E
S2140008700FB60F9211242F933F934F935F936F936E
S2140008807F938F939F93AF93BF93EF93FF930E94B3
S2140008902D018091C6000E947E03FF91EF91BF91CB
S2140008A0AF919F918F917F916F915F914F913F9103
S2140008B02F910F900FBE0F901F9018950F931F93B8
S2140008C0CF93DF93E9E6F2E08FEF9FEF9583848383
S2140008D08081863009F428C118F4833041F0A8C31B
S2140008E0883009F4DAC1803109F4ADC2A1C383E8C7
S2140008F080936B028091590284FF04C08F7E8093A0
S2140009005902A6C3A0916402E1E0EA0FE0936402F4
S214000910B0E0A75ABE4F8C91CFE5D2E08983A1E024
S214000920AE0FA0936402F0E0E75AFE4F8081888302
S21400093088819981E1E0EA0FE0936402B0E0A75A6B
S214000940BE4F2C91298321E02E0F20936402F0E005
S214000950E75AFE4F208128830990D881C02D9E013A
S214000960215031092B37310548F083E080936C0223
S214000970809159028860809359026AC3009781F07B
S2140009809C01235331092D3C43E0340748F0295E8F
S21400099033402635334020F08F39A8E09A0748F0D8
S2140009A082E080936C02809159028860809359029D
S2140009B04FC39C0134502C31310598F49E012150D0
S2140009C03048220F331F280F391F2C31344048F08F
S2140009D082E080936C02809159028860809359026D
S2140009E037C39C01225737402D32314098F49E0180
S2140009F021503048220F331F280F391F2F39384017
S214000A0048F082E080936C0280915902886080935F
S214000A1059021EC3A0915201E1E0EA0FB0E0AE58C1
S214000A20BD4F2091FF032C9301E00E0FF0E0EE582F
S214000A30FD4F23E0208321E0200F2093520110E099
S214000A40F801EE58FD4F10829C01215031092133E8
S214000A50310548F59E01ABEABAEA0E94820D9695EA
S214000A608795282F40911804509119049927481704
S214000A70590708F4242F822F90E00E94DD025C2F95
S214000A80550F1BC0E091520161E06E0F609352015A
S214000A90F0E0DC01A20FB31F2C91EE58FD4F20832F
S214000AA05F5F4F5F02C040E050E0242F30E0BE01A1
S214000AB0660F771F2617370728F3F801EE58FD4F05
S214000AC05083E0915C0209C0C1E0CE0FF0E0EE5822
S214000AD0FD4F80810E945A03EC2F80915201E8134B
S214000AE0F3CF20916D0290916E02AFE5B2E02C93A9
S214000AF011969C93119791E0980FE82FF0E0EE582E
S214000B00FD4F208381E0890F80935201E92FF0E0AA
S214000B1011968C91EE58FD4F808384EF91E0909370
S214000B205B0280935A0294C286E880936B02A0917F
S214000B306402E1E0EA0FE0936402B0E0A75ABE4F19
S214000B408C91CFE5D2E08983A1E0AE0FA09364023A
S214000B50F0E0E75AFE4F8081888388819981E1E042
S214000B60EA0FE0936402B0E0A75ABE4F2C912983A7
S214000B7031E03E0F30936402F0E0E75AFE4F3081DA
S214000B8038838E3F33E0930770F08F3F43E094073F
S214000B9051F0AC01465154404C35534020F08F394B
S214000BA0A8E09A0748F082E080936C028091590290
S214000BB08860809359024CC2EC01288320915F0222
S214000BC029832091590224FF05C0822F8F7E8093AF
S214000BD059023EC2A0915201E1E0EA0FB0E0209136
S214000BE0FF03AE58BD4F2C93A1E0AE0FF0E0EE58D9
S214000BF0FD4F26E02083CFE5D2E099838883E1E0AD
S214000C00EA0FB0E02981AE58BD4F2C93A1E0AE0F9D
S214000C10F0E02881EE58FD4F2083E1E0EA0FE093F4
S214000C205201B0E0EC012881AE58BD4F2C9321E074
S214000C302E0F20935201F0E08981EE58FD4F8083FD
S214000C40E0915C0209C0C1E0CE0FF0E0EE58FD4F27
S214000C5080810E945A03EC2F80915201E813F3CF53
S214000C6020916D0290916E02AFE5B2E02C93119642
S214000C709C93119791E0980FE82FF0E0EE58FD4F07
S214000C80208381E0890F80935201E92FF0E01196CE
S214000C908C91EE58FD4F8083DBC188E880936B0211
S214000CA08091590284FF04C08F7E80935902D0C180
S214000CB0A0916402E1E0EA0FE0936402B0E0A75A74
S214000CC0BE4F8C91CFE5D2E08983A1E0AE0FA09312
S214000CD06402F0E0E75AFE4F80818883888199811C
S214000CE0E1E0EA0FE0936402B0E0A75ABE4F2C9111
S214000CF0298321E02E0F20936402F0E0E75AFE4F8E
S214000D0020812883288139818130910529F098F146
S214000D1082309105B9F022C02115310521F0211548
S214000D20DFEF3D0731F44091590240644093590289
S214000D3022C083E080936C02809159028860809381
S214000D40590286C121153105B1F083E080936C020B
S214000D50809159028860809359027AC181E080931D
S214000D606C028091590288608093590280916802D3
S214000D70809364026DC1A0915201E1E0EA0FB0E0F9
S214000D804091FF03AE58BD4F4C93C1E0CE0FF0E04C
S214000D90EE58FD4F48E04083AFE5B2E011969C93D5
S214000DA08E93E1E0EC0FD0E011968C911197CE581F
S214000DB0DD4F8883C1E0CE0FF0E08C91EE58FD4FFA
S214000DC0808311963C932E93E1E0EC0FD0E01196D1
S214000DD08C911197CE58DD4F888381E08E0F8093DB
S214000DE05201F0E08C91EE58FD4F8083E0915C025A
S214000DF009C0C1E0CE0FF0E0EE58FD4F80810E94A2
S214000E005A03EC2F80915201E813F3CF20916D0224
S214000E1090916E02AFE5B2E02C9311969C931197D9
S214000E2091E0980FE82FF0E0EE58FD4F208381E028
S214000E30890F80935201E92FF0E011968C91EE58BD
S214000E40FD4F808305C180E980936B02E0916402C8
S214000E50A1E0AE0FA0936402F0E0E75AFE4F808157
S214000E60CFE5D2E08983E1E0EA0FE0936402B0E0E8
S214000E70A75ABE4F8C91888388819981A1E0AE0FD6
S214000E80A0936402F0E0E75AFE4F20812983E1E058
S214000E90EA0FE0936402B0E0A75ABE4F2C91288375
S214000EA04881598121E02E0F20936402F0E0E75A32
S214000EB0FE4F2081BA01615071096B37710538F415
S214000EC030E0DA01AA0FBB1F2A173B0749F083E080
S214000ED080936C0280915902886080935902B8C052
S214000EE09C0134502631310548F082E080936C0234
S214000EF080915902886080935902AAC09A012150B5
S214000F003048220F331F280F391F25313440C8F0D0
S214000F1082E080936C028091590288608093590227
S214000F2097C0EC01C20FD31FE091640271E07E0F00
S214000F3070936402F0E0E75AFE4F708178836F5F2B
S214000F4001C060E0262F30E02A173B0750F32091BF
S214000F50590224FF05C0822F8F7E8093590278C0E5
S214000F60A0915201E1E0EA0FB0E02091FF03AE58F5
S214000F70BD4F2C93C1E0CE0FF0E0EE58FD4F20E1C0
S214000F802083AFE5B2E011969C938E93E1E0EC0FE0
S214000F90D0E011968C911197CE58DD4F8883C1E032
S214000FA0CE0FF0E08C91EE58FD4F808311965C9347
S214000FB04E93E1E0EC0FD0E011968C911197CE584D
S214000FC0DD4F888381E08E0F80935201F0E08C9194
S214000FD0EE58FD4F8083E0915C0209C0C1E0CE0F61
S214000FE0F0E0EE58FD4F80810E945A03EC2F80916E
S214000FF05201E813F3CF20916D0290916E02AFE597
S214001000B2E02C9311969C93119791E0980FE82FDD
S214001010F0E0EE58FD4F208381E0890F8093520167
S214001020E92FF0E011968C91EE58FD4F808310C0AA
S2140010308091590284FD0CC081E080936C028091FF
S21400104059028860809359028091680280936402F6
S214001050DF91CF911F910F910895CF93DF938091E9
S2140010605902877F80935902E0915201A1E0AE0FAA
S214001070F0E08091FF03EE58FD4F8083E1E0EA0F39
S214001080B0E0C9E6D2E08A81AE58BD4F8C9381E0CD
S2140010908E0F80935201F0E08B81EE58FD4F8083D7
S2140010A0E0915C0209C0C1E0CE0FF0E0EE58FD4FC3
S2140010B080810E945A03EC2F80915201E813F3CFEF
S2140010C020916D0290916E02AFE5B2E02C931196DE
S2140010D09C93119791E0980FE82FF0E0EE58FD4FA3
S2140010E0208381E0890F80935201E92FF0E011966A
S2140010F08C91EE58FD4F8083DF91CF910895CF936A
S214001100DF93CDB7DEB728970FB6F894DEBF0FBED5
S214001110CDBF0E940F0B81E090E00E9409018093F2
S214001120FF0382E090E00E9409010F2EF0E0EF2E10
S214001130F4E0FF2EF02DD70114968C9383E090E018
S2140011400E940901F701858384E090E00E9409016E
S2140011500FE512E0D8018C9385E090E00E9409012B
S214001160F801818380819181D70117969C938E9395
S214001170169787E090E00E940901F801818386E0D7
S21400118090E00E940901D8018C938D919C91F70103
S2140011909187808789E090E00E940901D801119626
S2140011A08C9388E090E00E940901F801808380819A
S2140011B09181D7011B969C938E931A978BE090E0B3
S2140011C00E940901F80181838AE090E00E940901EB
S2140011D0D8018C938D919C91F70195878487138E07
S2140011E0128E40ED51EC6BE879E6D70140835183CF
S2140011F06283738323E333E3378B268B118E108E43
S2140012000091FF03F481F09307011596EC91159772
S214001210E093060116966D917C9117977A83698301
S21400122018964D915C9119975C834B831A962D9175
S2140012303C911B973E832D8398878F830F3F21F425
S214001240A2E0A093FF0302E0FF3F21F41092040403
S21400125010920701EF3F29F4E1E0E0930504E093E4
S21400126006016F3F7F4F31F4109207041092060478
S2140012701A8219824F3F5F4F31F410920904109280
S21400128008041C821B822F3F3F4F31F410920B0440
S21400129010920A041E821D82019631F410920D04EB
S2140012A010920C0418861F821092580189E18093D0
S2140012B0010188EA91E6909305018093040184E099
S2140012C080935902E0E5F1E08081877F8083109269
S2140012D0520110925C02109268021092640282E33D
S2140012E08093000182E080937D038FE895E29093DF
S2140012F003018093020186B18F70809580937102FE
S21400130080937B03109263021092590210925E0241
S214001310E3E7F3E0118210821382128215821482B0
S21400132017821682E0E0F4E017861686118A108A85
S214001330138A128A158A148A658184810E94390C60
S2140013400E94160B0E94530B0E94CB0B0E94680C47
S2140013500E94C20278948DE890E00E94230B8AE5F2
S21400136090E00E949B0B89EB90E00E94DE0BE1EC84
S214001370F0E080818068808310E080910101811117
S21400138005C080E2182789E1809301010E94810C44
S21400139080917E0382FF04C00E94740D0E946C0D33
S2140013A08091590281FF05C08D7F809359020E946B
S2140013B05E0490915C02809152019817A9F080918A
S2140013C05A0290915B02892B79F48091500183FF39
S2140013D003C00E941C0108C08BB184608BB9E0E595
S2140013E0F1E080818860808390915C028091520158
S2140013F0981315C08091500183FF11C08091C000E2
S21400140086FF0DC08BB18B7F8BB9E0E5F1E0808164
S214001410877F8083E0ECF0E080818F7B8083809103
S214001420590283FD0E942D088091590286FFCCC088
S2140014306091FF03061731F081E090E00E94F30010
S2140014400091FF036091040480910701681741F042
S21400145082E090E00E94F3008091040480930701EC
S2140014606091050480910601681741F083E090E0E2
S2140014700E94F300809105048093060129813A8139
S214001480809106049091070428173907E1F00F2E83
S214001490FFE5EF2EF2E0FF2EF02DD70111969C937C
S2140014A08E9311966C9185E090E00E94F300F70110
S2140014B0608184E090E00E94F300809106049091A1
S2140014C007049A8389832B813C818091080490913C
S2140014D0090428173907E1F00F2EFFE5EF2EF2E09A
S2140014E0FF2EF02DD70111969C938E9311966C913A
S2140014F087E090E00E94F300F701608186E090E0CC
S2140015000E94F30080910804909109049C838B83C9
S2140015102D813E8180910A0490910B04281739078B
S214001520E1F00F2EFFE5EF2EF2E0FF2EF02DD701B3
S21400153011969C938E9311966C9189E090E00E9490
S214001540F300F701608188E090E00E94F30080914C
S2140015500A0490910B049E838D832F813885809199
S2140015600C0490910D0428173907E1F00F2EFFE5C3
S214001570EF2EF2E0FF2EF02DD70111969C938E935E
S21400158011966C918BE090E00E94F300F701608169
S2140015908AE090E00E94F30080910C0490910D0484
S2140015A098878F830E940E0CE0E0F4E065818481CA
S2140015B00E94390CE1ECF0E08081806880838091A5
S2140015C059028F7B809359028091590280FF07C091
S2140015D0EEE6F0E080818D7F80830E94F6018091A8
S2140015E07B0390E0880F991F8E71812B85B9C5CE3D
S2140015F0109264001092610013BE15BE089515BEC9
S2140016001FBE80E008958FE384B917B886E18AB9D3
S21400161015B818B81BB813B816B819B808950E94AC
S214001620F80A0E94030B0E94FF0A08958BE987BD03
S21400163018BC16BC13BC82E084BD95E095BD8093B3
S2140016406E0080E0089590930D0180930C0108953C
S2140016501F920F920FB60F9211242F933F934F9322
S2140016605F936F937F938F939F93AF93BF93EF9305
S214001670FF9381E085BBE0910C01F0910D0130975E
S21400168009F00995FF91EF91BF91AF919F918F91CE
S2140016907F916F915F914F913F912F910F900FBE69
S2140016A00F901F9018958FE990E090938900809393
S2140016B0880081E090E090938B0080938A001092DF
S2140016C0870010928600109285001092840013BC4A
S2140016D01092800089E0809381001092820082E060
S2140016E080936F0080E008951F920F920FB60F92BE
S2140016F011248F9382E086BB8F910F900FBE0F90C0
S2140017001F9018951F920F920FB60F92112416BABB
S2140017100F900FBE0F901F9018951F920F920FB646
S2140017200F9211248F9385E086BB8F910F900FBE8A
S2140017300F901F90189590930F0180930E010895B7
S2140017401F920F920FB60F9211242F933F934F9331
S2140017505F936F937F938F939F93AF93BF93EF9314
S214001760FF9381E086BBE0910E01F0910F01309768
S21400177009F00995FF91EF91BF91AF919F918F91DD
S2140017807F916F915F914F913F912F910F900FBE78
S2140017900F901F90189587E68093B3001092B400C0
S2140017A01092B20013BC82E08093B0008093B10028
S2140017B0809370001092B60080E008959093110117
S2140017C08093100108951F920F920FB60F92112466
S2140017D02F933F934F935F936F937F938F939F9334
S2140017E0AF93BF93EF93FF9381E087BBE091100127
S2140017F0F0911101309709F00995FF91EF91BF9193
S214001800AF919F918F917F916F915F914F913F9193
S2140018102F910F900FBE0F901F9018951092C50035
S2140018201092C4001092C0001092C1001092C20024
S2140018300895E0ECF0E09081906490838093C60079
S2140018400895089508950895009721F0909317013C
S214001850809316010895009721F0909315018093C8
S21400186014010895009721F09093130180931201BC
S2140018700895813039F487E690E09093C500809310
S214001880C40006C08FEC90E09093C5008093C4001F
S21400189082E08093C00088E18093C100613021F42B
S2140018A086E28093C20003C086E08093C20081E295
S2140018B09CE00E94240C82E29CE00E942B0C83E2B7
S2140018C09CE00E94320C10921901109218010895A3
S2140018D08AB180688AB98AB18F7B8AB98BB18068F1
S2140018E08BB98BB180648BB98BE280937E03E8E67C
S2140018F0F0E080818460808310927F0310927C03E6
S214001900089580917E0385FF15C0DA9913C08BB3C6
S21400191084608BBB4E990EC080917E03882354F062
S21400192081E080937C0380937D0380917E038F7D8E
S21400193080937E03089580917F03813079F028F0AC
S214001940823099F0833079F134C080917E038061D3
S21400195080937E038BB180688BB908958BB18F77A7
S2140019608BB982E080937F03089580911C0190E0FC
S21400197000901F0102C0959587950A94E2F780FFB4
S21400198004C08BB180688BB903C08BB18F778BB9DD
S21400199080911F018F5F80931F01883060F083E085
S2140019A080937F0308958BB180688BB910927F0374
S2140019B0089510927F03089580917C03813069F02A
S2140019C030F08230D1F0833009F442C0089580911F
S2140019D07E03806280937E0308954E9906C082E05F
S2140019E080937C0310921E01089510927C038091D0
S2140019F07E03806280937E0308954E9B0FC081E035
S214001A0090E000901E0102C0880F991F0A94E2F72A
S214001A1090911B01892B80931B010FC081E090E001
S214001A2000901E0102C0880F991F0A94E2F7809565
S214001A3090911B01892380931B0180911E018F5F6B
S214001A4080931E01883040F183E080937C030895E4
S214001A504E9B14C080917E03806880937E0383FD36
S214001A6014C080911B0180931A0110921B01809173
S214001A707E0384608F7780937E0307C080917E0309
S214001A808F7780937E0310921B0180917E03806285
S214001A9080937E0310927C03089580911D018093AD
S214001AA01C0110921D0110921F0180917E03886018
S214001AB08F7E80937E0381E080937F0308958091DC
S214001AC01B0180931A0110921B0180917E03846093
S214001AD08F7780937E03089580931D0180917E0307
S214001AE0877F80937E03089580917E038B7F80930B
S214001AF07E0380911A010895EE0FFF1F0590F49162
S214001B00E02D0994A29FB001B39FC001A39F700D62
S214001B10811D1124911DB29F700D811D1124911DF0
S20A001B200895F894FFCFC3
S2058003FF0078
S2148004000000000000000000000000000000000067
S2108004100000000000000000000000005B
S21480077200000000000000000000000000000000F2
S21480078200000000000000000000000000000000E2
S21480079200000000000000000000000000000000D2
S2148007A200000000000000000000000000000000C2
S2148007B200000000000000000000000000000000B2
S2148007C200000000000000000000000000000000A2
S2148007D20000000000000000000000000000000092
S2148007E20000000000000000000000000000000082
S2148007F20000000000000000000000000000000072
S2148008020000000000000000000000000000000061
S2148008120000000000000000000000000000000051
S2148008220000000000000000000000000000000041
S2148008320000000000000000000000000000000031
S2148008420000000000000000000000000000000021
S2148008520000000000000000000000000000000011
S2148008620000000000000000000000000000000001
S21480087200000000000000000000000000000000F1
S21480088200000000000000000000000000000000E1
S210800892000000000000000000000000D5
S804000000FB
