:100000000C943B000C9458000C9458000C9458002D
:100010000C9458000C9458000C9458000C94580000
:100020000C9458000C9458000C94560A0C94690ACD
:100030000C943D0A0C944B0A0C94F1090C94580052
:100040000C9458000C9458000C946F030C945800B6
:100050000C9458000C9458000C9458000C945800C0
:100060000C9458000C945800CE02EE0201032303B6
:1000700045033B03610311241FBECFEFD8E0DEBF71
:10008000CDBF11E0A0E0B1E0EAEFF5E102C00590DC
:100090000D92A030B107D9F723E0A0E0B1E001C094
:1000A0001D92AD36B207E1F70E947F070C94FB0A60
:1000B0000C94000080910F0190911001009731F095
:1000C00001979093100180930F0109C08091520114
:1000D000882329F0863019F086E0809352018091C0
:1000E0000D0190910E01009731F0019790930E0150
:1000F00080930D0108951092520180915C028093CB
:100100005B02089580910A01815080930A018091D9
:100110005302816080935302809109018150809342
:10012000090181111AC080910001882381F0E0E06B
:10013000F4E080819181A281B3810196A11DB11D5E
:1001400080839183A283B3831092000103C081E076
:100150008093000189E180930901089510C00E94F5
:100160009F0A882361F0E091540281E08E0F809312
:100170005402F0E0EB59FD4F80810E94AB0A909150
:10018000540280914D019813EACF0895E1ECF0E01C
:100190008081806880830895E1ECF0E080818F7732
:1001A000808308959C01215031092F3F334070F422
:1001B000F999FECFF89481BD60BD8FB384608FBB89
:1001C0008FB382608FBB789481E008958FEF08959C
:1001D0009C01215031092F3F334050F4F999FECF53
:1001E00092BD81BD8FB381608FBB80B590E00895D3
:1001F0008FEF9FEF089580910C018823F1F080919B
:100200000B01882369F086E590E0909310018093BC
:100210000F0189EC90E090930E0180930D010895F9
:100220008FE490E09093100180930F0187EB90E0B2
:1002300090930E0180930D01089580910B01882306
:1002400069F08CEA90E09093100180930F0181E9AE
:1002500091E090930E0180930D0108958DE990E057
:100260009093100180930F018DE691E090930E0121
:1002700080930D01089580E090E010C0FC01EE0F26
:10028000FF1FE80FF91FEE0FFF1FEE58F84F108207
:100290001182128213821482158201968233910593
:1002A0006CF3089526B130E020953095E62FF0E00C
:1002B0002E233F238623E82FF0E02E173F0709F077
:1002C0003FC08823A9F080910401682B609304014A
:1002D0008091010190910201FC01EE0FFF1FE80FD8
:1002E000F91FEE0FFF1FEE58F84F81E0818328C001
:1002F00080910401962F982389F0242F30E0F90192
:100300003396EE0FFF1FE050FC4FA081B181220F0A
:10031000331FF901EB59FC4FB183A083609568232B
:10032000609304018091010190910201FC01EE0FA4
:10033000FF1FE80FF91FEE0FFF1FEE58F84F118255
:100340008091010190910201FC01EE0FFF1FE80F67
:10035000F91FEE0FFF1FEE58F84F4083A0E0B4E006
:100360004D915D916D917C9113974283538364838A
:1003700075830196909302018093010150962D910F
:100380003C9151972F5F3F4F51963C932E9350973E
:10039000C29721F41092020110920101089586B1D2
:1003A0008F70809580930501909106019827909316
:1003B0005A0220916503309166032115310539F009
:1003C0002150310930936603209365031EC090913C
:1003D0005A0290FF0BC09AE090934E019091030156
:1003E0009E7F8170892B809303010FC080914E0105
:1003F000882359F0815080934E01811106C040E05E
:1004000061E0809103010E94520180916703909105
:100410006803009731F00197909368038093670316
:1004200021C080915A0281FF0EC08AE080934F0163
:1004300080910301982F9D7F809105018270892B07
:10044000809303010FC080914F01882359F08150A0
:1004500080934F01811106C041E062E08091030169
:100460000E9452018091690390916A03009731F0D4
:10047000019790936A038093690321C080915A0287
:1004800082FF0EC08AE08093500180910301982F73
:100490009B7F809105018470892B809303010FC09D
:1004A00080915001882359F081508093500181112F
:1004B00006C042E064E0809103010E9452018091F5
:1004C0006B0390916C03009731F0019790936C034C
:1004D00080936B0321C080915A0283FF0EC08AE093
:1004E0008093510180910301982F977F809105019E
:1004F0008870892B809303010FC08091510188235C
:1005000059F0815080935101811106C043E068E0A9
:10051000809103010E9452018091050180930601A0
:100520000E94E009809153028E7F809353020895C8
:10053000EDE5F2E02481358128273583248320E00E
:1005400018C0809161029091620280FF0BC0969565
:10055000879531E0832730EA932790936202809356
:10056000610206C09695879590936202809361021E
:100570002F5F283030F308950F931F93CF93DF93AD
:10058000E09152014E2F50E04730510508F09CC0D9
:10059000C82FFA01EC5CFF4F0C94F50A882321F078
:1005A0008091FF03C81316C0C11105C0809153028A
:1005B000806180935302EDE5F2E085E081838FEF67
:1005C0009FEF958384838C2F0E94980281E0809313
:1005D000520180C086E0809352017CC00DE512E09C
:1005E000F80180830E949802F80181819FEF980FA3
:1005F0009183C03111F480935E0282E080935201B6
:1006000069C0E0915C0281E08E0F80935C02F0E0B3
:10061000ED5AFE4FC0838C2F0E949802EDE5F2E068
:10062000818181508183811155C080915D0280312B
:1006300031F4C0935E0283E0809352014BC085E0A9
:100640008093520147C0E0915C0281E08E0F80935D
:100650005C02F0E0ED5AFE4FC0838C2F0E9498029E
:10066000EDE5F2E0818181508183811133C085E025
:10067000809352012FC0C82FD0E0D0936402C09362
:10068000630284E08093520125C020E0382FEDE51D
:10069000F2E086819781822B932B97838683248136
:1006A00035818217930731F48091530282608093E1
:1006B000530204C080915C0280935B02109252014D
:1006C00009C08093550206C01092520180915C02CD
:1006D00080935B02DF91CF911F910F9108951F923C
:1006E0000F920FB60F9211242F933F934F935F9366
:1006F0006F937F938F939F93AF93BF93EF93FF93EA
:100700000E94FB008091C6000E94BC02FF91EF9105
:10071000BF91AF919F918F917F916F915F914F9119
:100720003F912F910F900FBE0F901F901895CF9370
:10073000DF93EDE5F2E08FEF9FEF95838483808177
:10074000863009F4FEC018F4833041F075C3883058
:1007500009F4ABC1803109F47CC26EC383E8809395
:100760005F028091530284FF04C08F7E8093530206
:1007700073C3A0915B02E1E0EA0FE0935B02B0E09B
:10078000AD5ABE4F8C91C6E5D2E08983A1E0AE0F91
:10079000A0935B02F0E0ED5AFE4F80818883888150
:1007A0009981E1E0EA0FE0935B02B0E0AD5ABE4F01
:1007B0002C91298321E02E0F20935B02F0E0ED5A6B
:1007C000FE4F20812883488159819A0121503109A7
:1007D0002B37310548F083E080936002809153020B
:1007E00088608093530238C3811524E0920750F04B
:1007F0009C01225134402036334020F08F39A8E04C
:100800009A0748F082E080936002809153028860EA
:100810008093530221C39C0134502231310598F456
:100820009A0121503048220F331F280F391F2231DF
:10083000344048F082E080936002809153028860E7
:100840008093530209C39C01225737402D32314017
:1008500098F49A0121503048220F331F280F391F76
:100860002F39384048F082E0809360028091530233
:10087000886080935302F0C2A0914D01E1E0EA0F3D
:10088000B0E0AB59BD4F2091FF032C93A1E0AE0F18
:10089000F0E0EB59FD4F23E0208321E02A0F209365
:1008A0004D01B0E0FD01EB59FD4F108260E070E0BA
:1008B00010C0E0914D01F1E0FE0FF0934D01F0E02A
:1008C000EC01C20FD31F2881EB59FD4F20837F5FBE
:1008D0006F5F262F30E0FA01EE0FFF1F2E173F0744
:1008E00040F3AB59BD4F7C93C091540207C0FC014B
:1008F000EB59FD4F80810E949802CF5F8C2F90E0D2
:10090000E0914D012E2F30E0A9014D5F5F4F84171C
:1009100095076CF38091610290916202A6E5B2E0C6
:100920008C9311969C93EF5FE901CB59DD4F88833F
:1009300081E08E0F80934D01F0E0EB59FD4F9083E5
:100940008BC286E880935F02A0915B02E1E0EA0F30
:10095000E0935B02B0E0AD5ABE4F8C91C6E5D2E0A9
:100960008983A1E0AE0FA0935B02F0E0ED5AFE4F49
:100970008081888388819981E1E0EA0FE0935B02BE
:10098000B0E0AD5ABE4F2C91298331E03E0F309339
:100990005B02F0E0ED5AFE4F308138838F3FE3E099
:1009A0009E0750F0AC014E5054404436534020F066
:1009B0008F3938E0930748F082E08093600280919D
:1009C000530288608093530247C2DC012C9320912C
:1009D000560211962C932091530224FF05C0822FBA
:1009E0008F7E8093530238C2A0914D01E1E0EA0F5F
:1009F000B0E02091FF03AB59BD4F2C93A1E0AE0FA7
:100A0000F0E0EB59FD4F26E02083C6E5D2E0998364
:100A10008883E1E0EA0FB0E02981AB59BD4F2C9308
:100A2000A1E0AE0FF0E02881EB59FD4F2083E1E01B
:100A3000EA0FE0934D01B0E0EC012881AB59BD4FC6
:100A40002C9321E02E0F20934D01F0E08981EB598A
:100A5000FD4F8083C091540208C0EC2FF0E0EB59A9
:100A6000FD4F80810E949802CF5FE0914D01CE172B
:100A7000A0F39091610280916202A6E5B2E09C939E
:100A800011968C93119781E08E0FF0E0EB59FD4F9A
:100A9000908391E0980F90934D01E82FF0E011962C
:100AA0008C91EB59FD4F8083D7C188E880935F021A
:100AB0008091530284FF04C08F7E80935302CCC187
:100AC000A0915B02E1E0EA0FE0935B02B0E0AD5A77
:100AD000BE4F8C91C6E5D2E08983A1E0AE0FA09312
:100AE0005B02F0E0ED5AFE4F808188838881998116
:100AF000E1E0EA0FE0935B02B0E0AD5ABE4F2C910B
:100B0000298321E02E0F20935B02F0E0ED5AFE4F87
:100B100020812883288139818130910529F098F13D
:100B200082309105B9F022C02115310521F021153F
:100B3000DFEF3D0731F4409153024064409353028C
:100B400022C083E08093600280915302886080938A
:100B5000530282C121153105B1F083E08093600218
:100B60008091530288608093530276C181E0809324
:100B700060028091530288608093530280915C02EE
:100B800080935B0269C1A0914D01E1E0EA0FB0E002
:100B90004091FF03AB59BD4F4C93C1E0CE0FF0E045
:100BA000EB59FD4F48E04083A6E5B2E011969C93D7
:100BB0008E93E1E0EC0FD0E011968C911197CB5918
:100BC000DD4F8883C1E0CE0FF0E08C91EB59FD4FF3
:100BD000808311963C932E93E1E0EC0FD0E01196C8
:100BE0008C911197CB59DD4F888381E08E0F8093D4
:100BF0004D01F0E08C91EB59FD4F8083C091540280
:100C000008C0EC2FF0E0EB59FD4F80810E94980264
:100C1000CF5FE0914D01CE17A0F3909161028091DA
:100C20006202A6E5B2E09C9311968C93119781E045
:100C30008E0FF0E0EB59FD4F908391E0980F909369
:100C40004D01E82FF0E011968C91EB59FD4F808318
:100C500003C180E980935F02E0915B02A1E0AE0FE7
:100C6000A0935B02F0E0ED5AFE4F8081C6E5D2E032
:100C70008983E1E0EA0FE0935B02B0E0AD5ABE4F3A
:100C80008C91888388819981A1E0AE0FA0935B024B
:100C9000F0E0ED5AFE4F20812983E1E0EA0FE09376
:100CA0005B02B0E0AD5ABE4F2C9128834881598138
:100CB00021E02E0F20935B02F0E0ED5AFE4F2081E1
:100CC000BA01615071096B37710538F430E0DA010F
:100CD000AA0FBB1F2A173B0749F083E080936002ED
:100CE00080915302886080935302B6C09C013450B7
:100CF0002E30310548F082E08093600280915302EB
:100D0000886080935302A8C09A0121503048220F76
:100D1000331F280F391F2D303440C8F082E08093F4
:100D200060028091530288608093530295C0EC0169
:100D3000C20FD31FE0915B0271E07E0F70935B02E4
:100D4000F0E0ED5AFE4F708178836F5F01C060E084
:100D5000262F30E02A173B0750F32091530224FF3F
:100D600005C0822F8F7E8093530276C0A0914D01E3
:100D7000E1E0EA0FB0E02091FF03AB59BD4F2C93A7
:100D8000C1E0CE0FF0E0EB59FD4F20E12083A6E556
:100D9000B2E011969C938E93E1E0EC0FD0E01196B7
:100DA0008C911197CB59DD4F8883C1E0CE0FF0E0D5
:100DB0008C91EB59FD4F808311965C934E93E1E04B
:100DC000EC0FD0E011968C911197CB59DD4F8883B1
:100DD00081E08E0F80934D01F0E08C91EB59FD4F37
:100DE0008083C091540208C0EC2FF0E0EB59FD4F16
:100DF00080810E949802CF5FE0914D01CE17A0F351
:100E00009091610280916202A6E5B2E09C931196F6
:100E10008C93119781E08E0FF0E0EB59FD4F90839A
:100E200091E0980F90934D01E82FF0E011968C918E
:100E3000EB59FD4F808310C08091530284FD0CC09C
:100E400081E0809360028091530288608093530216
:100E500080915C0280935B02DF91CF910895CF93E4
:100E6000DF9380915302877F80935302E0914D017D
:100E7000A1E0AE0FF0E08091FF03EB59FD4F8083BE
:100E8000E1E0EA0FB0E0CDE5D2E08A81AB59BD4F99
:100E90008C9381E08E0F80934D01F0E08B81EB59B4
:100EA000FD4F8083C091540208C0EC2FF0E0EB5955
:100EB000FD4F80810E949802CF5FE0914D01CE17D7
:100EC000A0F39091610280916202A6E5B2E09C934A
:100ED00011968C93119781E08E0FF0E0EB59FD4F46
:100EE000908391E0980F90934D01E82FF0E01196D8
:100EF0008C91EB59FD4F8083DF91CF910895CF9373
:100F0000DF93CDB7DEB728970FB6F894DEBF0FBEDC
:100F1000CDBF0E94CC0981E090E00E94E800809360
:100F2000FF0382E090E00E94E8000F2EF0E0EF2E39
:100F3000F4E0FF2EF02DD70114968C9383E090E01F
:100F40000E94E800F701858384E090E00E94E800B9
:100F500006E512E0D8018C9385E090E00E94E8005D
:100F6000F801818380819181D70117969C938E939C
:100F7000169787E090E00E94E800F801818386E000
:100F800090E00E94E800D8018C938D919C91F7012C
:100F90009187808789E090E00E94E800D80111964F
:100FA0008C9388E090E00E94E800F80180838081C3
:100FB0009181D7011B969C938E931A978BE090E0BA
:100FC0000E94E800F80181838AE090E00E94E80036
:100FD000D8018C938D919C91F7019587848700911E
:100FE000FF03F481F0930C01D7011596EC9115974E
:100FF000E0930B0116966D917C9117977A83698324
:1010000018964D915C9119975C834B831A962D919C
:101010003C911B973E832D8398878F830F3F21F44C
:10102000A2E0A093FF0302E0FF3F21F4109204042A
:1010300010920C01EF3F29F4E1E0E0930504E09306
:101040000B016F3F7F4F31F410920704109206049A
:101050001A8219824F3F5F4F31F4109209041092A7
:1010600008041C821B822F3F3F4F31F410920B0467
:1010700010920A041E821D82019631F410920D0412
:1010800010920C0418861F82E0E0F4E080ED91ECF1
:10109000ABE8B9E680839183A283B38383E393E3D0
:1010A00097878687118A108A1092520189E180936E
:1010B0000A0188EA91E6909308018093070184E091
:1010C0008093530210924D011092540210925C02D0
:1010D00010925B0282E38093090188B18F70809542
:1010E000809305018093040110925A0210925302DA
:1010F00010920001A5E6B3E011961C921E92139681
:101100001C921E92129715961C921E921497179677
:101110001C921E921697658184810E94C60A0E94C5
:10112000D3090E941C0A0E943B01789482E890E057
:101130000E94EC098AE590E00E94640A0E94C600C1
:1011400010E080910A01811105C080E2182789E131
:1011500080930A018091530281FF05C08D7F8093A7
:1011600053020E9497039091540280914D01981769
:1011700039F00E94CC008BB184608BB90E94AE0024
:101180009091540280914D0198130EC00E94A50ABF
:10119000882351F0E0ECF0E08081806480830E943D
:1011A000C6008BB18B7F8BB98091530283FD0E9467
:1011B0002F078091530286FFC7C06091FF03061777
:1011C00031F081E090E00E94D2000091FF03609135
:1011D000040480910C01681741F082E090E00E94C5
:1011E000D2008091040480930C01609105048091E9
:1011F0000B01681741F083E090E00E94D2008091DB
:10120000050480930B0129813A8180910604909115
:10121000070428173907E1F00F2EF6E5EF2EF2E06C
:10122000FF2EF02DD70111969C938E9311966C9101
:1012300085E090E00E94D200F701608184E090E0B8
:101240000E94D20080910604909107049A838983BA
:101250002B813C818091080490910904281739075B
:10126000E1F00F2EF6E5EF2EF2E0FF2EF02DD70184
:1012700011969C938E9311966C9187E090E00E945A
:10128000D200F701608186E090E00E94D200809158
:101290000804909109049C838B832D813E81809169
:1012A0000A0490910B0428173907E1F00F2EF6E598
:1012B000EF2EF2E0FF2EF02DD70111969C938E9326
:1012C00011966C9189E090E00E94D200F701608154
:1012D00088E090E00E94D20080910A0490910B0473
:1012E0009E838D832F81388580910C0490910D040D
:1012F00028173907E1F00F2EF6E5EF2EF2E0FF2E6A
:10130000F02DD70111969C938E9311966C918BE0E2
:1013100090E00E94D200F70160818AE090E00E9494
:10132000D20080910C0490910D0498878F830E94C5
:10133000940AE0E0F4E0658184810E94C60A80910D
:1013400053028F7B809353028091530280FF04C02D
:101350000E94E6090E94CF018091040190E0880F6D
:10136000991F8E71812B85B9ECCE1092640010927A
:10137000610013BE15BE089515BE1FBE80E008951E
:101380008FE384B917B886E18AB915B818B81BB8C5
:1013900013B816B819B808950E94B5090E94C0097B
:1013A0000E94BC0908958BE987BD18BC16BC13BC0C
:1013B00082E084BD95E095BD80936E0080E0089545
:1013C000EEE6F0E08081826080830895EEE6F0E052
:1013D000808182708083089590931201809311011F
:1013E00008951F920F920FB60F9211242F933F93DF
:1013F0004F935F936F937F938F939F93AF93BF931D
:10140000EF93FF9381E085BBE0911101F091120110
:10141000309709F00995FF91EF91BF91AF919F919E
:101420008F917F916F915F914F913F912F910F908D
:101430000FBE0F901F9018958FE990E09093890050
:101440008093880081E090E090938B0080938A00E5
:1014500010928700109286001092850010928400EE
:1014600013BC1092800089E080938100109282006A
:1014700082E080936F0080E008951F920F920FB674
:101480000F9211248F9382E086BB8F910F900FBE35
:101490000F901F9018951F920F920FB60F92112464
:1014A00016BA0F900FBE0F901F9018951F920F92B3
:1014B0000FB60F9211248F9385E086BB8F910F900A
:1014C0000FBE0F901F9018959093140180931301F5
:1014D00008951F920F920FB60F9211242F933F93EE
:1014E0004F935F936F937F938F939F93AF93BF932C
:1014F000EF93FF9381E086BBE0911301F09114011B
:10150000309709F00995FF91EF91BF91AF919F91AD
:101510008F917F916F915F914F913F912F910F909C
:101520000FBE0F901F9018951092C5001092C40026
:101530001092C0001092C1001092C20008958091D4
:10154000C00085FB882780F908958091C00086FB44
:10155000882780F908958093C60008950895089516
:101560000895009721F090931A018093190108952E
:10157000009721F090931801809317010895009728
:1015800021F090931601809315010895813039F46C
:1015900087E690E09093C5008093C40006C08FEC6E
:1015A00090E09093C5008093C40082E08093C000D7
:1015B00088E18093C100613021F486E28093C2000B
:1015C00003C086E08093C2008EEA9AE00E94B10ACE
:1015D0008FEA9AE00E94B80A80EB9AE00E94BF0A64
:1015E00010921C0110921B010895EE0FFF1F059031
:0A15F000F491E02D0994F894FFCF68
:0200000400807A
:0103FF0000FD
:1004000000000000000000000000000000000000EC
:020410000000EA
:100772000000000000000000000000000000000077
:100782000000000000000000000000000000000067
:100792000000000000000000000000000000000057
:1007A2000000000000000000000000000000000047
:1007B2000000000000000000000000000000000037
:1007C2000000000000000000000000000000000027
:1007D2000000000000000000000000000000000017
:1007E2000000000000000000000000000000000007
:1007F20000000000000000000000000000000000F7
:1008020000000000000000000000000000000000E6
:1008120000000000000000000000000000000000D6
:1008220000000000000000000000000000000000C6
:1008320000000000000000000000000000000000B6
:1008420000000000000000000000000000000000A6
:100852000000000000000000000000000000000096
:100862000000000000000000000000000000000086
:100872000000000000000000000000000000000076
:100882000000000000000000000000000000000066
:0C0892000000000000000000000000005A
:00000001FF
