:100000000C943B000C9458000C9458000C9458002D
:100010000C9458000C9458000C9458000C949B0BB2
:100020000C9458000C9458000C94450B0C94580BED
:100030000C942C0B0C943A0B0C94E00A0C94580082
:100040000C9458000C9458000C941B040C94580009
:100050000C9458000C9458000C9458000C945800C0
:100060000C9458000C9458007A039A03AD03CF0304
:10007000F103E7030D0411241FBECFEFD8E0DEBF6C
:10008000CDBF11E0A0E0B1E0E6E9FAE102C00590E1
:100090000D92A030B107D9F723E0A0E0B1E001C094
:1000A0001D92AC37B207E1F70E9458080C94490D35
:1000B0000C9400008091110190911201009731F091
:1000C0000197909312018093110109C080915C0106
:1000D000882329F0863019F086E080935C018091B6
:1000E0000F0190911001009731F00197909310014A
:1000F00080930F01089510925C01809166028093B5
:100100006502089580910C01815080930C018091CB
:100110005D02816080935D0280910B01815080932C
:100120000B0181111AC080910001882381F0E0E069
:10013000F4E080819181A281B3810196A11DB11D5E
:1001400080839183A283B3831092000103C081E076
:100150008093000189E180930B010895809107014C
:100160009091080101979093080180930701809175
:100170007903815080937903811108C082E08093D4
:10018000790380917A0381FD0E94940C80917A0317
:100190008478803811F40E94170D80916F0380FFDE
:1001A00011C08E7F80936F0380917A0388718031B4
:1001B00011F40E94050D80917A0380FF08C00E940F
:1001C000530C089580916F03816080936F030895AD
:1001D00010C00E94D10B882361F0E0915E0281E0A3
:1001E0008E0F80935E02F0E0E159FD4F80810E9406
:1001F000DD0B90915E02809157019813EACF08952C
:10020000E1ECF0E08081806880830895E1ECF0E02B
:1002100080818F77808308959C01215031092F3F81
:10022000334070F4F999FECFF89481BD60BD8FB36F
:1002300084608FBB8FB382608FBB789481E0089518
:100240008FEF08959C01215031092F3F334050F426
:10025000F999FECF92BD81BD8FB381608FBB80B510
:1002600090E008958FEF9FEF089580910E0188230D
:10027000F1F080910D01882369F086E590E090937C
:1002800012018093110189EC90E09093100180930A
:100290000F0108958FE490E0909312018093110173
:1002A00087EB90E09093100180930F010895809167
:1002B0000D01882369F08CEA90E0909312018093FD
:1002C000110181E991E09093100180930F0108954D
:1002D0008DE990E090931201809311018DE691E0F9
:1002E0009093100180930F01089580E090E010C07A
:1002F000FC01EE0FFF1FE80FF91FEE0FFF1FEE5876
:10030000F84F108211821282138214821582019694
:10031000823391056CF3089526B130E02095309535
:10032000E62FF0E02E233F238623E82FF0E02E1760
:100330003F0709F03FC08823A9F080910401682B92
:10034000609304018091010190910201FC01EE0F84
:10035000FF1FE80FF91FEE0FFF1FEE58F84F81E067
:10036000818328C080910401962F982389F0242F3F
:1003700030E0F9013396EE0FFF1FE050FC4FA081F3
:10038000B181220F331FF901E059FC4FB183A083E3
:1003900060956823609304018091010190910201AE
:1003A000FC01EE0FFF1FE80FF91FEE0FFF1FEE58C5
:1003B000F84F11828091010190910201FC01EE0F32
:1003C000FF1FE80FF91FEE0FFF1FEE58F84F408395
:1003D000A0E0B4E04D915D916D917C9113974283C3
:1003E0005383648375830196909302018093010186
:1003F00050962D913C9151972F5F3F4F51963C93D2
:100400002E935097C29721F410920201109201018D
:10041000089586B18F7080958093050190910601B3
:1004200098279093640220917003309171032115F5
:10043000310539F021503109309371032093700355
:100440001EC09091640290FF0BC09AE090935801F7
:10045000909103019E7F8170892B809303010FC0CF
:1004600080915801882359F081508093580181115F
:1004700006C040E061E0809103010E948C01809100
:10048000720390917303009731F001979093730377
:100490008093720321C08091640281FF0EC08AE0C4
:1004A0008093590180910301982F9D7F80910501D0
:1004B0008270892B809303010FC08091590188239A
:1004C00059F0815080935901811106C041E062E0EA
:1004D000809103010E948C018091740390917503B7
:1004E000009731F00197909375038093740321C0B6
:1004F0008091640282FF0EC08AE080935A0180914D
:100500000301982F9B7F809105018470892B809334
:1005100003010FC080915A01882359F081508093C4
:100520005A01811106C042E064E0809103010E94FB
:100530008C018091760390917703009731F00197B9
:10054000909377038093760321C08091640283FFA8
:100550000EC08AE080935B0180910301982F977F02
:10056000809105018870892B809303010FC08091D1
:100570005B01882359F0815080935B01811106C093
:1005800043E068E0809103010E948C0180910501A5
:10059000809306010E94CF0A80915D028E7F809336
:1005A0005D0208950F931F93CF93DF9360E061C0C6
:1005B00020911204309113042233310521F410925A
:1005C000130410921204A091570141E04A0FB0E0C9
:1005D000C0E0D4E02A893B89F901EE0FFF1FE20F4A
:1005E000F31FEE0FFF1FEE58F84F5081A159BD4F7A
:1005F0005C9311E0140F50E0718141595D4FDA01B5
:100600007C937281B3815481458170936002B09371
:1006100061025093620240936302E1E0E10FA12F77
:10062000B0E040E652E0A159BD4F7C9311E01E0FAF
:10063000F0E0DA0111967C91E159FD4F708301E001
:10064000010FA12FB0E0FA017281A159BD4F7C9337
:1006500071E0700F70935701E02FF0E0DA0113960C
:100660004C91E159FD4F40832F5F3F4F3B8B2A8BCD
:100670006F5F262F30E02817390708F499CFDF91F4
:10068000CF911F910F910895E7E6F2E02481358123
:1006900028273583248320E018C080916B02909135
:1006A0006C0280FF0BC09695879531E0832730EA76
:1006B000932790936C0280936B0206C09695879562
:1006C00090936C0280936B022F5F283030F3089573
:1006D0000F931F93CF93DF93E0915C014E2F50E077
:1006E0004730510508F09CC0C82FFA01EC5CFF4F61
:1006F0000C94340D882321F08091FF03C81316C099
:10070000C11105C080915D02806180935D02E7E6C2
:10071000F2E085E081838FEF9FEF958384838C2FB8
:100720000E94440381E080935C0180C086E0809356
:100730005C017CC007E612E0F80180830E9444035C
:10074000F80181819FEF980F9183C03111F480935C
:10075000680282E080935C0169C0E091660281E0FA
:100760008E0F80936602F0E0E35AFE4FC0838C2F19
:100770000E944403E7E6F2E0818181508183811188
:1007800055C080916702803131F4C093680283E0E4
:1007900080935C014BC085E080935C0147C0E09191
:1007A000660281E08E0F80936602F0E0E35AFE4F0E
:1007B000C0838C2F0E944403E7E6F2E081818150E0
:1007C0008183811133C085E080935C012FC0C82FE5
:1007D000D0E0D0936E02C0936D0284E080935C0100
:1007E00025C020E0382FE7E6F2E086819781822B52
:1007F000932B97838683248135818217930731F465
:1008000080915D02826080935D0204C080916602E7
:100810008093650210925C0109C080935F0206C05C
:1008200010925C018091660280936502DF91CF9106
:100830001F910F9108951F920F920FB60F921124DE
:100840002F933F934F935F936F937F938F939F93D8
:10085000AF93BF93EF93FF930E9435018091C60041
:100860000E946803FF91EF91BF91AF919F918F918B
:100870007F916F915F914F913F912F910F900FBE9C
:100880000F901F901895EF92FF920F931F93CF93A5
:10089000DF93E7E6F2E08FEF9FEF9583848380811B
:1008A000863009F420C118F4833041F09AC38830AF
:1008B00009F4D0C1803109F4A1C293C383E88093C5
:1008C000690280915D0284FF04C08F7E80935D0287
:1008D00098C3A0916502E1E0EA0FE0936502B0E001
:1008E000A35ABE4F8C91C0E6D2E08983A1E0AE0F3F
:1008F000A0936502F0E0E35AFE4F808188838881EF
:100900009981E1E0EA0FE0936502B0E0A35ABE4F9F
:100910002C91298321E02E0F20936502F0E0E35A09
:10092000FE4F208128830990D881C02D9E0121503F
:1009300031092B37310548F083E080936A028091BA
:100940005D02886080935D025CC3009781F09C012A
:10095000235331092D3C43E0340748F0215E3340F6
:100960002E35334020F08F39A8E09A0748F082E016
:1009700080936A0280915D02886080935D0241C32A
:100980009C0134502431310598F49E0121503048A7
:10099000220F331F280F391F2431344048F082E0E2
:1009A00080936A0280915D02886080935D0229C312
:1009B0009C01225737402D32314098F49E0121503E
:1009C0003048220F331F280F391F2F39384048F085
:1009D00082E080936A0280915D02886080935D026C
:1009E00010C3A0915701E1E0EA0FB0E0A159BD4F5B
:1009F0002091FF032C9301E00E0FF0E0E159FD4F31
:100A000023E0208321E0200F2093570110E0F8011C
:100A1000E159FD4F10829C012150310921333105EC
:100A200038F59E01ABEABAEA0E943A0D7C01F694D1
:100A3000E794C7010E94D202E0E0F4E08089918946
:100A40008E199F09918B808B5C2F550F1BC0E091F5
:100A5000570161E06E0F60935701F0E0DC01A20FD7
:100A6000B31F2C91E159FD4F20835F5F4F5F02C0A0
:100A700040E050E0242F30E0BE01660F771F2617BC
:100A8000370728F3F801E159FD4F5083C0915E020A
:100A900007C0FC01E159FD4F80810E944403CF5FF4
:100AA0008C2F90E0E09157012E2F30E0A9014D5F8F
:100AB0005F4F841795076CF380916B0290916C02E5
:100AC000A0E6B2E08C9311969C93EF5FE901C159C7
:100AD000DD4F888381E08E0F80935701F0E0E1596C
:100AE000FD4F90838EC286E880936902A0916502D3
:100AF000E1E0EA0FE0936502B0E0A35ABE4F8C91AB
:100B0000C0E6D2E08983A1E0AE0FA0936502F0E0D9
:100B1000E35AFE4F8081888388819981E1E0EA0F62
:100B2000E0936502B0E0A35ABE4F2C91298331E0D7
:100B30003E0F30936502F0E0E35AFE4F3081388378
:100B40008E3F33E0930770F08F3F43E0940751F0FE
:100B5000AC014E5054404436534020F08F39A8E049
:100B60009A0748F082E080936A0280915D02886073
:100B700080935D0246C2EC012883209160022983A4
:100B800020915D0224FF05C0822F8F7E80935D023D
:100B900038C2A0915701E1E0EA0FB0E02091FF03D5
:100BA000A159BD4F2C93A1E0AE0FF0E0E159FD4FEC
:100BB00026E02083C0E6D2E099838883E1E0EA0F53
:100BC000B0E02981A159BD4F2C93A1E0AE0FF0E018
:100BD0002881E159FD4F2083E1E0EA0FE0935701BE
:100BE000B0E0EC012881A159BD4F2C9321E02E0FDC
:100BF00020935701F0E08981E159FD4F8083C09136
:100C00005E0208C0EC2FF0E0E159FD4F80810E94A8
:100C10004403CF5FE0915701CE17A0F390916B0290
:100C200080916C02A0E6B2E09C9311968C93119790
:100C300081E08E0FF0E0E159FD4F908391E0980F35
:100C400090935701E82FF0E011968C91E159FD4FF8
:100C50008083D7C188E88093690280915D0284FF18
:100C600004C08F7E80935D02CCC1A0916502E1E05B
:100C7000EA0FE0936502B0E0A35ABE4F8C91C0E644
:100C8000D2E08983A1E0AE0FA0936502F0E0E35AC1
:100C9000FE4F8081888388819981E1E0EA0FE093AB
:100CA0006502B0E0A35ABE4F2C91298321E02E0F9C
:100CB00020936502F0E0E35AFE4F208128832881CB
:100CC00039818130910529F098F182309105B9F090
:100CD00022C02115310521F02115DFEF3D0731F448
:100CE00040915D02406440935D0222C083E08093A6
:100CF0006A0280915D02886080935D0282C1211545
:100D00003105B1F083E080936A0280915D028860D2
:100D100080935D0276C181E080936A0280915D02DA
:100D2000886080935D02809166028093650269C14C
:100D3000A0915701E1E0EA0FB0E04091FF03A15913
:100D4000BD4F4C93C1E0CE0FF0E0E159FD4F48E0BC
:100D50004083A0E6B2E011969C938E93E1E0EC0F05
:100D6000D0E011968C911197C159DD4F8883C1E075
:100D7000CE0FF0E08C91E159FD4F808311963C93AA
:100D80002E93E1E0EC0FD0E011968C911197C159B0
:100D9000DD4F888381E08E0F80935701F0E08C91C6
:100DA000E159FD4F8083C0915E0208C0EC2FF0E056
:100DB000E159FD4F80810E944403CF5FE0915701CC
:100DC000CE17A0F390916B0280916C02A0E6B2E086
:100DD0009C9311968C93119781E08E0FF0E0E1596E
:100DE000FD4F908391E0980F90935701E82FF0E02A
:100DF00011968C91E159FD4F808303C180E9809366
:100E00006902E0916502A1E0AE0FA0936502F0E0F7
:100E1000E35AFE4F8081C0E6D2E08983E1E0EA0F29
:100E2000E0936502B0E0A35ABE4F8C91888388811D
:100E30009981A1E0AE0FA0936502F0E0E35AFE4F66
:100E400020812983E1E0EA0FE0936502B0E0A35A34
:100E5000BE4F2C9128834881598121E02E0F209389
:100E60006502F0E0E35AFE4F2081BA01615071093A
:100E70006B37710538F430E0DA01AA0FBB1F2A176F
:100E80003B0749F083E080936A0280915D028860AD
:100E900080935D02B6C09C0134502E30310548F07D
:100EA00082E080936A0280915D02886080935D0297
:100EB000A8C09A0121503048220F331F280F391F34
:100EC0002D303440C8F082E080936A0280915D0248
:100ED000886080935D0295C0EC01C20FD31FE09142
:100EE000650271E07E0F70936502F0E0E35AFE4FF9
:100EF000708178836F5F01C060E0262F30E02A1791
:100F00003B0750F320915D0224FF05C0822F8F7EA6
:100F100080935D0276C0A0915701E1E0EA0FB0E056
:100F20002091FF03A159BD4F2C93C1E0CE0FF0E0FB
:100F3000E159FD4F20E12083A0E6B2E011969C9399
:100F40008E93E1E0EC0FD0E011968C911197C1598E
:100F5000DD4F8883C1E0CE0FF0E08C91E159FD4F69
:100F6000808311965C934E93E1E0EC0FD0E01196F4
:100F70008C911197C159DD4F888381E08E0F80934A
:100F80005701F0E08C91E159FD4F8083C0915E02E2
:100F900008C0EC2FF0E0E159FD4F80810E9444032E
:100FA000CF5FE0915701CE17A0F390916B02809133
:100FB0006C02A0E6B2E09C9311968C93119781E0AD
:100FC0008E0FF0E0E159FD4F908391E0980F9093E0
:100FD0005701E82FF0E011968C91E159FD4F808385
:100FE00010C080915D0284FD0CC081E080936A0294
:100FF00080915D02886080935D028091660280939B
:101000006502DF91CF911F910F91FF90EF900895AE
:10101000CF93DF9380915D02877F80935D02E091A3
:101020005701A1E0AE0FF0E08091FF03E159FD4FC1
:101030008083E1E0EA0FB0E0C7E6D2E08A81A159FF
:10104000BD4F8C9381E08E0F80935701F0E08B8130
:10105000E159FD4F8083C0915E0208C0EC2FF0E0A3
:10106000E159FD4F80810E944403CF5FE091570119
:10107000CE17A0F390916B0280916C02A0E6B2E0D3
:101080009C9311968C93119781E08E0FF0E0E159BB
:10109000FD4F908391E0980F90935701E82FF0E077
:1010A00011968C91E159FD4F8083DF91CF91089586
:1010B000CF93DF93CDB7DEB728970FB6F894DEBF96
:1010C0000FBECDBF0E94BB0A81E090E00E942201CA
:1010D0008093FF0382E090E00E9422010F2EF0E057
:1010E000EF2EF4E0FF2EF02DD70114968C9383E0C1
:1010F00090E00E942201F701858384E090E00E9445
:10110000220100E612E0D8018C9385E090E00E9475
:101110002201F801818380819181D70117969C93E8
:101120008E93169787E090E00E942201F801818358
:1011300086E090E00E942201D8018C938D919C91D1
:10114000F7019187808789E090E00E942201D80111
:1011500011968C9388E090E00E942201F801808330
:1011600080819181D7011B969C938E931A978BE077
:1011700090E00E942201F80181838AE090E00E94C1
:101180002201D8018C938D919C91F70195878487DA
:10119000138A128A40ED51EC6BE879E6D70140835F
:1011A00051836283738323E333E337872687118A6E
:1011B000108A0091FF03F481F0930E011596EC91D3
:1011C0001597E0930D0116966D917C9117977A8390
:1011D000698318964D915C9119975C834B831A969D
:1011E0002D913C911B973E832D8398878F830F3FD2
:1011F00021F4A2E0A093FF0302E0FF3F21F410924C
:10120000040410920E01EF3F29F4E1E0E09305049D
:10121000E0930D016F3F7F4F31F41092070410925D
:1012200006041A8219824F3F5F4F31F4109209046D
:10123000109208041C821B822F3F3F4F31F4109202
:101240000B0410920A041E821D82019631F4109242
:101250000D0410920C0418861F8210925C0189E123
:1012600080930C0188EA91E690930A01809309012A
:1012700084E080935D021092570110925E021092FA
:1012800066021092650282E380930B0182E08093F4
:1012900079038FE895E2909308018093070188B164
:1012A0008F708095809305018093040110926402F1
:1012B00010925D0210920001E0E7F3E011821082CB
:1012C000138212821582148217821682E0E0F4E003
:1012D000658184810E94F80B0E94C20A0E940B0B58
:1012E0000E94830B0E94270C0E947501789482E86B
:1012F00090E00E94DB0A8AE590E00E94530B8EEAA0
:1013000090E00E94960B0E94000110E080910C0179
:10131000811105C080E2182789E180930C010E94A9
:10132000400C80917A0382FF04C00E942C0D0E9421
:10133000240D80915D0281FF05C08D7F80935D0249
:101340000E94430490915E0280915701981739F0F2
:101350000E9406018BB184608BB90E94E8009091D5
:101360005E028091570198130EC00E94D70B88230C
:1013700051F0E0ECF0E08081806480830E94000105
:101380008BB18B7F8BB980915D0283FD0E94080831
:1013900080915D0286FFC7C06091FF03061731F0A0
:1013A00081E090E00E940C010091FF036091040431
:1013B00080910E01681741F082E090E00E940C01DC
:1013C0008091040480930E016091050480910D01C9
:1013D000681741F083E090E00E940C0180910504C1
:1013E00080930D0129813A81809106049091070430
:1013F00028173907E1F00F2EF0E6EF2EF2E0FF2E6E
:10140000F02DD70111969C938E9311966C9185E0E7
:1014100090E00E940C01F701608184E090E00E945E
:101420000C0180910604909107049A8389832B8193
:101430003C81809108049091090428173907E1F054
:101440000F2EF0E6EF2EF2E0FF2EF02DD7011196D1
:101450009C938E9311966C9187E090E00E940C0112
:10146000F701608186E090E00E940C018091080401
:10147000909109049C838B832D813E8180910A0485
:1014800090910B0428173907E1F00F2EF0E6EF2EAC
:10149000F2E0FF2EF02DD70111969C938E931196BA
:1014A0006C9189E090E00E940C01F701608188E076
:1014B00090E00E940C0180910A0490910B049E839D
:1014C0008D832F81388580910C0490910D0428170D
:1014D0003907E1F00F2EF0E6EF2EF2E0FF2EF02DAF
:1014E000D70111969C938E9311966C918BE090E0AE
:1014F0000E940C01F70160818AE090E00E940C01DB
:1015000080910C0490910D0498878F830E94C60BE4
:10151000E0E0F4E0658184810E94F80B80915D0237
:101520008F7B80935D0280915D0280FF04C00E94EA
:10153000D50A0E9409028091040190E0880F991F4A
:101540008E71812B85B9E2CE1092640010926100F9
:1015500013BE15BE089515BE1FBE80E008958FE32B
:1015600084B917B886E18AB915B818B81BB813B88A
:1015700016B819B808950E94A40A0E94AF0A0E94E2
:10158000AB0A08958BE987BD18BC16BC13BC82E07A
:1015900084BD95E095BD80936E0080E00895EEE6F1
:1015A000F0E08081826080830895EEE6F0E0808143
:1015B000827080830895909314018093130108959D
:1015C0001F920F920FB60F9211242F933F934F93B8
:1015D0005F936F937F938F939F93AF93BF93EF939B
:1015E000FF9381E085BBE0911301F09114013097E6
:1015F00009F00995FF91EF91BF91AF919F918F9164
:101600007F916F915F914F913F912F910F900FBEFE
:101610000F901F9018958FE990E090938900809328
:10162000880081E090E090938B0080938A00109274
:10163000870010928600109285001092840013BCDF
:101640001092800089E0809381001092820082E0F5
:1016500080936F0080E008951F920F920FB60F9253
:1016600011248F9382E086BB8F910F900FBE0F9055
:101670001F9018951F920F920FB60F92112416BA51
:101680000F900FBE0F901F9018951F920F920FB6DC
:101690000F9211248F9385E086BB8F910F900FBE20
:1016A0000F901F901895909316018093150108953F
:1016B0001F920F920FB60F9211242F933F934F93C7
:1016C0005F936F937F938F939F93AF93BF93EF93AA
:1016D000FF9381E086BBE0911501F09116013097F0
:1016E00009F00995FF91EF91BF91AF919F918F9173
:1016F0007F916F915F914F913F912F910F900FBE0E
:101700000F901F90189587E68093B3001092B40055
:101710001092B20013BC82E08093B0008093B100BD
:10172000809370001092B60080E0089590931801A5
:101730008093170108951F920F920FB60F921124F4
:101740002F933F934F935F936F937F938F939F93C9
:10175000AF93BF93EF93FF9381E087BBE0911701B5
:10176000F0911801309709F00995FF91EF91BF9121
:10177000AF919F918F917F916F915F914F913F9129
:101780002F910F900FBE0F901F9018951092C500CB
:101790001092C4001092C0001092C1001092C200BA
:1017A00008958091C00085FB882780F90895809175
:1017B000C00086FB882780F908958093C6000895AD
:1017C000089508950895009721F090931E01809345
:1017D0001D010895009721F090931C0180931B0137
:1017E0000895009721F090931A01809319010895AC
:1017F000813039F487E690E09093C5008093C4006F
:1018000006C08FEC90E09093C5008093C40082E006
:101810008093C00088E18093C100613021F486E2AA
:101820008093C20003C086E08093C20080EE9BE0FC
:101830000E94E30B81EE9BE00E94EA0B82EE9BE0AC
:101840000E94F10B1092200110921F0108958AB19D
:1018500080688AB98AB18F7B8AB98BB180688BB96D
:101860008BB180648BB98BE280937A03E8E6F0E079
:1018700080818460808310927B03109278030895A6
:1018800080917A0385FF0EC04E990CC0882354F0D6
:1018900081E0809378038093790380917A038F7D30
:1018A00080937A03089580917B03813079F028F04A
:1018B000823099F0833079F134C080917A0380616D
:1018C00080937A038BB180688BB908958BB18F7741
:1018D0008BB982E080937B0308958091230190E08F
:1018E0000090260102C0959587950A94E2F780FF43
:1018F00004C08BB180688BB903C08BB18F778BB973
:10190000809126018F5F80932601883060F083E00C
:1019100080937B0308958BB180688BB910927B0311
:10192000089510927B03089580917803813069F0C7
:1019300030F08230D1F0833009F442C008958091B4
:101940007A03806280937A0308954E9906C082E0FC
:101950008093780310922501089510927803809166
:101960007A03806280937A0308954E9B0FC081E0D2
:1019700090E00090250102C0880F991F0A94E2F7B9
:1019800090912201892B809322010FC081E090E089
:101990000090250102C0880F991F0A94E2F78095F4
:1019A00090912201892380932201809125018F5FEC
:1019B00080932501883040F183E080937803089577
:1019C0004E9B14C080917A03806880937A0383FDD4
:1019D00014C08091220180932101109222018091F4
:1019E0007A0384608F7780937A0307C080917A03AB
:1019F0008F7780937A031092220180917A0380621C
:101A000080937A0310927803089580912401809343
:101A10002301109224011092260180917A0388609C
:101A20008F7E80937A0381E080937B030895809179
:101A30002201809321011092220180917A03846017
:101A40008F7780937A0308958093240180917A039D
:101A5000877F80937A03089580917A038B7F8093A8
:101A60007A03809121010895EE0FFF1F0590F491F4
:101A7000E02D0994A29FB001B39FC001A39F700DF8
:101A8000811D1124911DB29F700D811D1124911D86
:061A90000895F894FFCF59
:0200000400807A
:0103FF0000FD
:1004000000000000000000000000000000000000EC
:0404100000000000E8
:100772000000000000000000000000000000000077
:100782000000000000000000000000000000000067
:100792000000000000000000000000000000000057
:1007A2000000000000000000000000000000000047
:1007B2000000000000000000000000000000000037
:1007C2000000000000000000000000000000000027
:1007D2000000000000000000000000000000000017
:1007E2000000000000000000000000000000000007
:1007F20000000000000000000000000000000000F7
:1008020000000000000000000000000000000000E6
:1008120000000000000000000000000000000000D6
:1008220000000000000000000000000000000000C6
:1008320000000000000000000000000000000000B6
:1008420000000000000000000000000000000000A6
:100852000000000000000000000000000000000096
:100862000000000000000000000000000000000086
:100872000000000000000000000000000000000076
:100882000000000000000000000000000000000066
:0C0892000000000000000000000000005A
:00000001FF
