:100000000C9434000C9451000C9451000C94510049
:100010000C9451000C9451000C9451000C9451001C
:100020000C9451000C9451000C9418080C942B085B
:100030000C94FF070C940D080C94B3070C9451001A
:100040000C9451000C9451000C94ED020C9451004E
:100050000C9451000C9451000C9451000C945100DC
:100060000C9451000C94510011241FBECFEFD8E026
:10007000DEBFCDBF11E0A0E0B1E0EEE3F1E102C0F0
:1000800005900D92A030B107D9F723E0A0E0B1E0D0
:1000900001C01D92AA36B207E1F70E94AF060C9488
:1000A0009D080C94000080910F0190911001009721
:1000B00029F41092100110920F0105C0019790933E
:1000C000100180930F0180910D0190910E01009716
:1000D00029F410920E0110920D010895019790934A
:1000E0000E0180930D010895809108018150809345
:1000F00008018091110190911201019790931201D2
:100100008093110180915402816080935402809108
:10011000070181508093070181111AC0809100016D
:10012000882381F0E0E0F4E080819181A281B381B5
:100130000196A11DB11D80839183A283B383109288
:10014000000103C081E08093000189E180930701F1
:10015000089580E090E010C0FC01EE0FFF1FE80F53
:10016000F91FEE0FFF1FEE58F84F10821182128216
:100170001382148215820196823391056CF30895DF
:1001800026B130E020953095E62FF0E02E233F2376
:100190008623E82FF0E02E173F0709F03FC08823A1
:1001A000A9F080910401682B609304018091010102
:1001B00090910201FC01EE0FFF1FE80FF91FEE0FF7
:1001C000FF1FEE58F84F81E0818328C08091040121
:1001D000962F982389F0242F30E0F9013596EE0F01
:1001E000FF1FE050FC4FA081B181220F331FF901A6
:1001F000EE59FC4FB183A08360956823609304019E
:100200008091010190910201FC01EE0FFF1FE80FA8
:10021000F91FEE0FFF1FEE58F84F11828091010178
:1002200090910201FC01EE0FFF1FE80FF91FEE0F86
:10023000FF1FEE58F84F4083A0E0B4E04D915D9170
:100240006D917C91139742835383648375830196E8
:10025000909302018093010116962D913C9117977E
:100260002F5F3F4F17963C932E931697C29721F41A
:100270001092020110920101089586B18F7080954D
:10028000809305019091060198279093590220913F
:100290006203309163032115310539F02150310992
:1002A00030936303209362031EC09091590290FF24
:1002B0000BC09AE090934F01909103019E7F817053
:1002C000892B809303010FC080914F01882359F03F
:1002D000815080934F01811106C040E061E0809120
:1002E00003010E94C0008091640390916503009710
:1002F00031F00197909365038093640321C080914E
:10030000590281FF0EC08AE0809350018091030161
:10031000982F9D7F809105018270892B8093030126
:100320000FC080915001882359F081508093500173
:10033000811106C041E062E0809103010E94C0008B
:100340008091660390916703009731F00197909335
:1003500067038093660321C08091590282FF0EC01B
:100360008AE08093510180910301982F9B7F8091B7
:1003700005018470892B809303010FC08091510186
:10038000882359F0815080935101811106C042E0C9
:1003900064E0809103010E94C00080916803909105
:1003A0006903009731F00197909369038093680384
:1003B00021C08091590283FF0EC08AE080935201D0
:1003C00080910301982F977F809105018870892B78
:1003D000809303010FC080915201882359F081500E
:1003E00080935201811106C043E068E080910301CF
:1003F0000E94C00080910501809306010E94A2071F
:10040000809154028E7F809354020895EAE5F2E0D1
:100410002481358128273583248320E018C08091EA
:100420005E0290915F0280FF0BC09695879531E048
:10043000832730EA932790935F0280935E0206C081
:100440009695879590935F0280935E022F5F283088
:1004500030F3089595B182E0892785B90E94560846
:10046000882369F0E0910A01F0E0EE59FD4F8081A8
:100470000E94620880910A018F5F80930A010895AB
:100480000F931F93CF93C82F80915301823009F4AB
:100490003FC028F4882361F0813031F194C084306A
:1004A00009F470C008F456C0853009F471C08BC0DF
:1004B000CC2321F08091FF03C8138BC0C11105C06C
:1004C00080915402806180935402EAE5F2E085E075
:1004D00081838FEF9FEF958384838C2F0E94060288
:1004E00081E08093530175C00AE512E0F801C083F2
:1004F0008C2F0E940602F80181819FEF980F918353
:10050000C03111F480935B0282E08093530161C09B
:10051000E0910B0181E08E0F80930B01F0E0EC5A2B
:10052000FE4FC0838C2F0E940602EAE5F2E0818133
:100530008150818381114DC080915A02803131F404
:10054000C0935B0283E08093530143C084E08093B7
:1005500053013FC0E0910B0181E08E0F80930B01AE
:10056000F0E0EC5AFE4FC0838C2F0E940602EAE5B1
:10057000F2E081818150818381112BC084E08093DE
:10058000530127C0C093550285E08093530121C0D9
:10059000E5E5F2E0C18380819181EAE5F2E09783AD
:1005A0008683248135818217930731F48091540228
:1005B00082608093540204C080910B0180930C01EF
:1005C0001092530106C01092530180910B01809349
:1005D0000C01CF911F910F9108951F920F920FB6AA
:1005E0000F9211242F933F934F935F936F937F93B9
:1005F0008F939F93AF93BF93EF93FF938091C60028
:100600000E944002FF91EF91BF91AF919F918F9116
:100610007F916F915F914F913F912F910F900FBEFE
:100620000F901F901895CF93DF93109209011092AD
:100630000A01EAE5F2E08FEF9FEF958384838081E2
:10064000863009F4E3C018F4833041F01EC38830CB
:1006500009F48AC1803109F435C217C383E8809355
:100660005C028091540284FF04C08F7E8093540208
:100670001CC3A0910C01E1E0EA0FE0930C01B0E093
:10068000AC5ABE4F8C91C5E5D2E08983A1E0AE0F94
:10069000A0930C01F0E0EC5AFE4F808188838881A2
:1006A0009981E1E0EA0FE0930C01B0E0AC5ABE4F53
:1006B0002C91298321E02E0F20930C01F0E0EC5ABD
:1006C000FE4F20812883488159814C37510520F005
:1006D00083E080935D02E9C2811524E0920750F027
:1006E0009C01225134402036334020F08F39A8E05D
:1006F0009A0748F082E080935D02809154028860FE
:1007000080935402D2C29C0134502231310598F4B6
:100710009A0121503048220F331F280F391F2231F0
:10072000344048F082E080935D02809154028860FA
:1007300080935402BAC29C01225737402D32314077
:1007400098F49A0121503048220F331F280F391F87
:100750002F39384048F082E080935D028091540246
:10076000886080935402A1C2E2E6F2E02091FF0388
:10077000208323E0218320930901128260E0C0E0FE
:1007800010C0E091090171E07E0F70930901F0E063
:10079000DC01A20FB31F2C91EE59FD4F2083CF5FD8
:1007A0006F5F262F30E0FA01EE0FFF1F2E173F0775
:1007B00040F3C0936402D0E007C0FC01EE59FD4F46
:1007C00080810E940602DF5F8D2F90E02C2F30E0A9
:1007D0002D5F3F4F8217930784F380915E029091C3
:1007E0005F02C5E5D2E088839983A0910901E1E029
:1007F000EA0FB0E0AE59BD4F8C9381E08E0F80932D
:100800000901F0E0EE59FD4F90834BC286E88093DA
:100810005C02A0910C01E1E0EA0FE0930C01B0E072
:10082000AC5ABE4F8C91C5E5D2E08983A1E0AE0FF2
:10083000A0930C01F0E0EC5AFE4F80818883888100
:100840009981E1E0EA0FE0930C01B0E0AC5ABE4FB1
:100850002C91298321E02E0F20930C01F0E0EC5A1B
:10086000FE4F208128838C39E3E09E0750F0AC01D5
:10087000425154404036534020F08F3938E09307BE
:1008800048F082E080935D028091540288608093FA
:1008900054020BC2DC012C932091560211962C932A
:1008A0002091540224FF05C0822F8F7E8093540232
:1008B000FCC1A0910901E1E0EA0FB0E02091FF0343
:1008C000AE59BD4F2C93A1E0AE0FF0E0EE59FD4FB5
:1008D00026E02083C5E5D2E099838883E1E0EA0F32
:1008E000B0E02981AE59BD4F2C93A1E0AE0FF0E0EE
:1008F0002881EE59FD4F2083E1E0EA0FE0930901E2
:10090000B0E0EC012881AE59BD4F2C9321E02E0FB1
:1009100020930901F0E08981EE59FD4F8083C0E00A
:1009200008C0EC2FF0E0EE59FD4F80810E940602D6
:10093000CF5FC630B0F380915E0290915F02C5E553
:10094000D2E088839983A0910901E1E0EA0FB0E049
:10095000AE59BD4F8C9381E08E0F80930901F0E07A
:10096000EE59FD4F90839DC188E880935C02809191
:10097000540284FF04C08F7E8093540296C1A091DC
:100980000C01E1E0EA0FE0930C01B0E0AC5ABE4F7D
:100990008C91C5E5D2E08983A1E0AE0FA0930C0154
:1009A000F0E0EC5AFE4F8081888388819981E1E0F4
:1009B000EA0FE0930C01B0E0AC5ABE4F2C912983B2
:1009C00021E02E0F20930C01F0E0EC5AFE4F208125
:1009D0002883288139818130910529F098F182306E
:1009E0009105B9F022C02115310521F02115DFEF65
:1009F0003D0731F44091540240644093540222C0B8
:100A000083E080935D028091540288608093540259
:100A10004CC121153105B1F083E080935D028091D6
:100A2000540288608093540240C181E080935D024B
:100A30008091540288608093540280910B018093CE
:100A40000C0133C14091FF03E2E6F2E0408348E04D
:100A50004183A5E5B2E011969C938E938283119613
:100A60008C911197838311963C932E93248386E077
:100A70008093090111968C918583C0E008C0EC2F0A
:100A8000F0E0EE59FD4F80810E940602CF5FC63034
:100A9000B0F380915E0290915F02C5E5D2E0888359
:100AA0009983A0910901E1E0EA0FB0E0AE59BD4F92
:100AB0008C9381E08E0F80930901F0E0EE59FD4F99
:100AC0009083EFC080E980935C02E0910C01A1E08B
:100AD000AE0FA0930C01F0E0EC5AFE4F8081C5E50B
:100AE000D2E08883E1E0EA0FE0930C01B0E0AC5A79
:100AF000BE4F8C91898388819981A1E0AE0FA0932C
:100B00000C01F0E0EC5AFE4F20812883E1E0EA0F6F
:100B1000E0930C01B0E0AC5ABE4F2C9129832881A0
:100B2000398141E04E0F40930C01F0E0EC5AFE4F4A
:100B30004081B901615071096B37710538F450E09B
:100B4000B901660F771F4617570749F083E0809376
:100B50005D0280915402886080935402A6C0AC016B
:100B600054504231510548F082E080935D028091FB
:100B7000540288608093540298C0A90141505048A3
:100B8000440F551F480F591F42315440B8F082E0BE
:100B900080935D028091540288608093540285C0E6
:100BA000E0910C0151E05E0F50930C01F0E0EC5A23
:100BB000FE4F5081DC015C934F5F01C040E0E42FA9
:100BC000F0E0E617F70760F34091540244FF05C0D8
:100BD000842F8F7E8093540268C0A0910901E1E0C8
:100BE000EA0FB0E04091FF03AE59BD4F4C93A1E036
:100BF000AE0FF0E0EE59FD4F40E14083C5E5D2E095
:100C000099838883E1E0EA0FB0E0AE59BD4F8C9341
:100C1000A1E0AE0FF0E08981EE59FD4F808339836A
:100C20002883E1E0EA0FB0E0AE59BD4F2C9381E09C
:100C30008E0F80930901F0E08981EE59FD4F80838A
:100C4000C0E008C0EC2FF0E0EE59FD4F80810E941B
:100C50000602CF5FC630B0F380915E0290915F02D2
:100C6000C5E5D2E088839983A0910901E1E0EA0F0C
:100C7000B0E0AE59BD4F8C9381E08E0F8093090197
:100C8000F0E0EE59FD4F90830CC08091540284FD3A
:100C90000CC081E080935D02809154028860809353
:100CA000540280910B0180930C01DF91CF91089544
:100CB000CF93DF9380915402877F80935402E09119
:100CC0000901A1E0AE0FF0E08091FF03EE59FD4F66
:100CD0008083E1E0EA0FB0E0CAE5D2E08A81AE5954
:100CE000BD4F8C9381E08E0F80930901F0E08B81E2
:100CF000EE59FD4F8083C0E008C0EC2FF0E0EE59C4
:100D0000FD4F80810E940602CF5FC330B0F3809117
:100D10005E0290915F02C5E5D2E099838883A0913D
:100D20000901E1E0EA0FB0E08981AE59BD4F8C9333
:100D300091E09E0F90930901F0E0EE59FD4F808302
:100D4000DF91CF910895E1ECF0E0808180688083AD
:100D50000895E1ECF0E080818F778083089582E050
:100D60008093FF030E948E070E947D080E949507D2
:100D70000E94DE070E94A900789484E790E00E9418
:100D8000AE0783E590E00E9426080E94A306109219
:100D9000530189E18093080184E08093540286E046
:100DA00090E0909312018093110182E380930701F8
:100DB00088B18F7080958093050180930401109213
:100DC00059021092540210920001E2E6F3E01182FF
:100DD0001082138212821582148217821682E0E03A
:100DE000F4E080ED91ECABE8B9E680839183A283D7
:100DF000B38383E393E39583848384E494E49783C8
:100E0000868387E7808788E8818713861286158620
:100E1000148617861686118A108A8091080181111E
:100E200003C08AE0809308018091540281FF06C0CC
:100E30008D7F809354020E94130316C0809111018C
:100E400090911201029780F490910A01809109011A
:100E5000981751F0809154028B7F809354020E9426
:100E6000A9068BB184608BB990910A018091090128
:100E7000981729F08091540282FF0E942A029091D3
:100E80000A018091090198131DC08091540282FDCE
:100E900019C00E945C088823A9F0E0ECF0E0808192
:100EA000806480838091540284608093540284E043
:100EB00090E090931201809311018BB18B7F8BB9DD
:100EC0000E94A3068091540283FD0E9458068091DF
:100ED000540286FF03C08F7B80935402809154029A
:100EE00080FF9BCF0E94A8070E943D0196CF1092E1
:100EF00064001092610013BE15BE089515BE1FBE9A
:100F000080E008958FE384B917B886E18AB915B8EF
:100F100018B81BB813B816B819B808950E94770707
:100F20000E9482070E947E0708958BE987BD18BC46
:100F300016BC13BC82E084BD95E095BD80936E0025
:100F400080E00895EEE6F0E080818260808308957D
:100F5000EEE6F0E080818270808308959093140122
:100F60008093130108951F920F920FB60F921124D0
:100F70002F933F934F935F936F937F938F939F93A1
:100F8000AF93BF93EF93FF9381E085BBE091130193
:100F9000F0911401309709F00995FF91EF91BF91FD
:100FA000AF919F918F917F916F915F914F913F9101
:100FB0002F910F900FBE0F901F9018958FE990E022
:100FC000909389008093880081E090E090938B005B
:100FD00080938A00109287001092860010928500FC
:100FE0001092840013BC1092800089E080938100ED
:100FF0001092820082E080936F0080E008951F923B
:101000000F920FB60F9211248F9382E086BB8F91BF
:101010000F900FBE0F901F9018951F920F920FB652
:101020000F92112416BA0F900FBE0F901F901895B3
:101030001F920F920FB60F9211248F9385E086BBFB
:101040008F910F900FBE0F901F90189590931601DF
:101050008093150108951F920F920FB60F921124DD
:101060002F933F934F935F936F937F938F939F93B0
:10107000AF93BF93EF93FF9381E086BBE09115019F
:10108000F0911601309709F00995FF91EF91BF910A
:10109000AF919F918F917F916F915F914F913F9110
:1010A0002F910F900FBE0F901F9018958091C00048
:1010B00085FB882780F908958091C00086FB8827EA
:1010C00080F908958093C6000895089508950895BD
:1010D000009721F090931C0180931B0108950097C5
:1010E00021F090931A01809319010895009721F03F
:1010F000909318018093170108958FEC90E09093DE
:10110000C5008093C40082E08093C00088E1809392
:10111000C10086E08093C20085E698E00E946808DE
:1011200086E698E00E946F0887E698E00E947608BD
:0E11300010921E0110921D010895F894FFCF39
:0200000400807A
:0103FF0000FD
:1004000000000000000000000000000000000000EC
:020410000000EA
:100772000000000000000000000000000000000077
:100782000000000000000000000000000000000067
:100792000000000000000000000000000000000057
:1007A2000000000000000000000000000000000047
:1007B2000000000000000000000000000000000037
:1007C2000000000000000000000000000000000027
:1007D2000000000000000000000000000000000017
:1007E2000000000000000000000000000000000007
:1007F20000000000000000000000000000000000F7
:1008020000000000000000000000000000000000E6
:1008120000000000000000000000000000000000D6
:1008220000000000000000000000000000000000C6
:1008320000000000000000000000000000000000B6
:1008420000000000000000000000000000000000A6
:100852000000000000000000000000000000000096
:100862000000000000000000000000000000000086
:100872000000000000000000000000000000000076
:100882000000000000000000000000000000000066
:0C0892000000000000000000000000005A
:00000001FF
