S01300004D6F64756C6F41544D454C2E737265632E
S2140000000C9434000C9451000C9451000C94510044
S2140000100C9451000C9451000C9451000C94510017
S2140000200C9451000C9451000C94B7080C94CA0818
S2140000300C949E080C94AC080C9452080C94510036
S2140000400C9451000C9451000C9420030C94510015
S2140000500C9451000C9451000C9451000C945100D7
S2140000600C9451000C94510011241FBECFEFD8E021
S214000070DEBFCDBF11E0A0E0B1E0ECE7F2E102C0E8
S21400008005900D92A030B107D9F723E0A0E0B1E0CB
S21400009001C01D92A338B207E1F70E9441070C94F5
S2140000A03C090C940000809110019091110100977A
S2140000B029F4109211011092100105C00197909337
S2140000C011018093100180910E0190910F0100970D
S2140000D029F410920F0110920E0108950197909343
S2140000E00F0180930E01089580910901815080933D
S2140000F009018091120190911301019790931301C9
S2140001008093120180915502816080935502809100
S214000110080181508093080181111AC08091010165
S214000120882381F0E0E0F4E080819181A281B381B0
S2140001300196A11DB11D80839183A283B383109283
S214000140010103C081E08093010189E180930801E9
S214000150089580910804882319F0803171F01AC040
S2140001608CE990E090931101809310018DE691E068
S21400017090930F0180930E0108958CEA90E090937F
S21400018011018093100181E991E090930F01809313
S2140001900E0108958BE490E0909311018093100176
S2140001A090930F0180930E01089580E090E010C0B8
S2140001B0FC01EE0FFF1FE80FF91FEE0FFF1FEE58B2
S2140001C0F84F1082118212821382148215820196D1
S2140001D0823391056CF3089526B130E02095309572
S2140001E0E62FF0E02E233F238623E82FF0E02E179D
S2140001F03F07E9F58823A9F080910501682B6093F5
S21400020005018091020190910301FC01EE0FFF1F92
S214000210E80FF91FEE0FFF1FEE58F84F81E08183BD
S21400022026C080910501962F982379F0242F30E080
S214000230220F331FF901E050FC4F0384F485E02DB4
S214000240D901A558BC4FED93FC9360956823609345
S21400025005018091020190910301FC01EE0FFF1F42
S214000260E80FF91FEE0FFF1FEE58F84F118280912E
S214000270020190910301FC01EE0FFF1FE80FF91F2A
S214000280EE0FFF1FEE58F84F4083A0E0B4E04D910C
S2140002905D916D917C91139742835383648375833C
S2140002A00196909303018093020116962D913C913E
S2140002B017972F5F3F4F17963C932E931697C2972C
S2140002C021F41092030110920201089586B18F70F6
S2140002D0809580930601909107019827909372026B
S2140002E020917B0330917C032115310539F0215094
S2140002F0310930937C0320937B031EC090917202D9
S21400030090FF0BC09AE090935001909104019E7F5D
S2140003108170892B809304010FC08091500188233F
S21400032059F0815080935001811106C040E061E091
S214000330809104010E94EC0080917D0390917E03E1
S214000340009731F0019790937E0380937D0321C040
S2140003508091720281FF0EC08AE0809351018091E5
S2140003600401982F9D7F809106018270892B8093CF
S21400037004010FC080915101882359F08150809369
S2140003805101811106C041E062E0809104010E94A3
S214000390EC0080917F0390918003009731F00197E5
S2140003A09093800380937F0321C08091720282FF26
S2140003B00EC08AE08093520180910401982F9B7FA3
S2140003C0809106018470892B809304010FC0809170
S2140003D05201882359F0815080935201811106C042
S2140003E042E064E0809104010E94EC008091810369
S2140003F090918203009731F0019790938203809347
S214000400810321C08091720283FF0EC08AE0809330
S214000410530180910401982F977F80910601887080
S214000420892B809304010FC080915301882359F0D3
S214000430815080935301811106C043E068E08091AB
S21400044004010E94EC0080910601809307010E943F
S2140004504108809155028E7F809355020895E3E708
S214000460F2E02481358128273583248320E018C0D4
S214000470809177029091780280FF0BC096958795C1
S21400048031E0832730EA93279093780280937702AF
S21400049006C09695879590937802809377022F5F93
S2140004A0283030F308950E94F508882369F0E0911B
S2140004B00B01F0E0E558FD4F80810E940109809114
S2140004C00B018F5F80930B0108950F931F93CF93BB
S2140004D0C82F80915401823009F43FC028F4882345
S2140004E061F0813031F19BC0843009F470C008F4AB
S2140004F056C0853009F471C092C0CC2321F080919B
S2140005009C03C81399C0C11105C080915502806133
S21400051080935502E3E7F2E085E081838FEF9FEF5B
S214000520958384838C2F0E942F0281E08093540150
S21400053083C003E712E0F801C0838C2F0E942F02CD
S214000540F80181819FEF980F9183C03111F4809359
S214000550740282E0809354016FC0E0910C0181E048
S2140005608E0F80930C01F0E0EB5AFE4FC0838C2F69
S2140005700E942F02E3E7F2E081818150818381119E
S2140005805BC080917302803131F4C093740283E0C3
S2140005908093540151C084E0809354014DC0E09193
S2140005A00C0181E08E0F80930C01F0E0EB5AFE4FB9
S2140005B0C0838C2F0E942F02E3E7F2E081818150F6
S2140005C08183811139C084E08093540135C0C09383
S2140005D06F0285E0809354012FC0EEE6F2E0C08300
S2140005E080819181E3E7F2E09783868324813581D9
S2140005F08217930731F480915502826080935502EA
S21400060004C080910C0180930D01109254018091DA
S21400061055028F77809355020E94A9000DC0109254
S214000620540180910C0180930D01809155028F77C3
S214000630809355020E94A900CF911F910F910895B3
S2140006401F920F920FB60F9211242F933F934F9342
S2140006505F936F937F938F939F93AF93BF93EF9325
S214000660FF93809155028823A4F480911001909105
S2140006701101892B51F4809155028F778093550292
S214000680109254011092000115C081E08093000181
S21400069011C080910E0190910F01892B49F4809131
S2140006A0550280688093550281E08093000102C065
S2140006B0109200010E94A90080910001882321F079
S2140006C08091C6000E946502FF91EF91BF91AF91A5
S2140006D09F918F917F916F915F914F913F912F9155
S2140006E00F900FBE0F901F901895FF920F931F93B9
S2140006F0CF93DF9310920A0110920B01E3E7F2E02A
S2140007008FEF9FEF9583848395B180E1892785B924
S2140007108081863009F4D9C018F4833041F044C390
S214000720883009F489C1803109F44CC23DC383E89E
S214000730809375028091550284FF04C08F7E80935B
S214000740550242C3A0910D01E1E0EA0FE0930D01CE
S214000750B0E0AB5ABE4F8C91CEE6D2E08883A1E0E3
S214000760AE0FA0930D01F0E0EB5AFE4F8081898317
S21400077048815981E1E0EA0FE0930D01B0E0AB5A01
S214000780BE4F8C91888381E08E0F80930D01F0E040
S214000790EB5AFE4F8081898328813981C9010197F0
S2140007A0803D67E0960720F083E0809376020CC3D6
S2140007B0BA01615071096C30710538F46CE070E074
S2140007C0641B750B6817790748F482E080937602FD
S2140007D080915502886080935502F6C2A0910A0166
S2140007E0E1E0EA0FB0E080919C03A558BD4F8C93E2
S2140007F061E06E0FF0E0E558FD4F83E0808381E016
S214000800860F80930A0170E0FB01E558FD4F1082C9
S214000810F12CC0E026C0E0910A01A1E0AE0FA09343
S2140008200A010E2F10E0FA01E80FF91F3197EE0FBC
S214000830FF1FEA5AFD4F80819181FC01D081F801AB
S214000840E558FD4FD083E1E0EA0FE0930A01EA2F76
S214000850F0E0DC0111968C91E558FD4F8083CE5F69
S214000860F3948F2D90E082179307A8F2FB01E558CA
S214000870FD4FC083D0E007C0FC01E558FD4F8081E6
S2140008800E942F02DF5F8D2F90E02C2F30E02D5F2F
S2140008903F4F8217930784F38091770290917802F6
S2140008A0CEE6D2E088839983A0910A01E1E0EA0FC0
S2140008B0B0E0A558BD4F8C9381E08E0F80930A015F
S2140008C0F0E0E558FD4F90837BC286E88093750282
S2140008D0A0910D01E1E0EA0FE0930D01B0E0AB5A04
S2140008E0BE4F8C91CEE6D2E08883A1E0AE0FA093F7
S2140008F00D01F0E0EB5AFE4F808189838881998153
S214000900E1E0EA0FE0930D01B0E0AB5ABE4F4C9128
S214000910488321E02E0F20930D01F0E0EB5AFE4FA6
S214000920208129838D30910548F082E080937602FD
S2140009308091550288608093550246C29C012150E2
S2140009403109F901EE0FFF1FEA5AFD4FA081B18170
S2140009504C930190F081E02D40916F0241834091CD
S214000960550244FF05C0842F8F7E809355022CC20B
S214000970E0910A01A1E0AE0FF0E040919C03E5583B
S214000980FD4F4083E1E0EA0FB0E0A558BD4F46E0DA
S2140009904C93CEE6D2E099838883A1E0AE0FF0E0D8
S2140009A0E558FD4F8083E1E0EA0FB0E08981A55865
S2140009B0BD4F8C9381E08E0F80930A014E2F50E03E
S2140009C0220F331FF901EA5AFD4FA081B1819C9195
S2140009D0FA01E558FD4F908391E0980F90930A0135
S2140009E0E82FF0E011968C91E558FD4F8083C0E02B
S2140009F008C0EC2FF0E0E558FD4F80810E942F02E2
S214000A00CF5FC630B0F38091770290917802CEE641
S214000A10D2E088839983A0910A01E1E0EA0FB0E072
S214000A20A558BD4F8C9381E08E0F80930A01F0E0AD
S214000A30E558FD4F9083C4C188E880937502809185
S214000A40550284FF04C08F7E80935502BDC1A091DD
S214000A500D01E1E0EA0FE0930D01B0E0AB5ABE4FA6
S214000A608C91CEE6D2E08883A1E0AE0FA0930D0174
S214000A70F0E0EB5AFE4F8081898388819981E1E01E
S214000A80EA0FE0930D01B0E0AB5ABE4F2C912883DD
S214000A9021E02E0F20930D01F0E0EB5AFE4F20814F
S214000AA02983288139818130910529F098F1823097
S214000AB09105B9F022C02115310521F02115BFEFAF
S214000AC03B0731F44091550240644093550222C0E2
S214000AD083E0809376028091550288608093550269
S214000AE073C121153105B1F083E0809376028091C1
S214000AF0550288608093550267C181E08093760234
S214000B008091550288608093550280910C018093F5
S214000B100D015AC1A0910A01E1E0EA0FB0E0409150
S214000B209C03A558BD4F4C93A1E0AE0FF0E0E558EE
S214000B30FD4F48E04083CEE6D2E099838883E1E02B
S214000B40EA0FB0E0A558BD4F8C93A1E0AE0FF0E0E1
S214000B508981E558FD4F808339832883E1E0EA0FD9
S214000B60B0E0A558BD4F2C9381E08E0F80930A010C
S214000B70F0E08981E558FD4F8083C0E008C0EC2F87
S214000B80F0E0E558FD4F80810E942F02CF5FC6300F
S214000B90B0F38091770290917802CEE6D2E0888317
S214000BA09983A0910A01E1E0EA0FB0E0A558BD4F95
S214000BB08C9381E08E0F80930A01F0E0E558FD4F9C
S214000BC09083FEC080E980937502E0910D01A1E05C
S214000BD0AE0FA0930D01F0E0EB5AFE4F8081CEE6FB
S214000BE0D2E08883E1E0EA0FE0930D01B0E0AB5A73
S214000BF0BE4F8C91898328813981A1E0AE0FA093E6
S214000C000D01F0E0EB5AFE4F80818883E1E0EA0FA9
S214000C10E0930D01B0E0AB5ABE4F8C9189834881BA
S214000C20598181E08E0F80930D01F0E0EB5AFE4F64
S214000C308081BA01615071096B37710538F490E014
S214000C40FA01EE0FFF1F8E179F0749F083E080938F
S214000C50760280915502886080935502B5C0C9011E
S214000C6001970C9738F48CE090E0821B930B861764
S214000C709707A0F582E080937602809155028860FF
S214000C8080935502A1C0A0910D01E1E0EA0FE09328
S214000C900D01B0E0AB5ABE4F7C91AEE6B2E07C935D
S214000CA0F1E0FE0FF0930D01F0E0EB5AFE4FE0810D
S214000CB01196EC931197F901E80FF91F3197EE0F93
S214000CC0FF1FEA5AFD4FC081D18178830190F081E1
S214000CD0E02D11968C9181836F5F01C060E0862FB6
S214000CE090E08417950778F28091550284FF04C03F
S214000CF08F7E8093550268C0A0910A01E1E0EA0F5A
S214000D00B0E080919C03A558BD4F8C93A1E0AE0F38
S214000D10F0E0E558FD4F80E18083CEE6D2E03983EF
S214000D202883E1E0EA0FB0E0A558BD4F2C93A1E080
S214000D30AE0FF0E08981E558FD4F808359834883E4
S214000D40E1E0EA0FB0E0A558BD4F4C9381E08E0F6E
S214000D5080930A01F0E08981E558FD4F8083C0E06A
S214000D6008C0EC2FF0E0E558FD4F80810E942F026E
S214000D70CF5FC630B0F38091770290917802CEE6CE
S214000D80D2E088839983A0910A01E1E0EA0FB0E0FF
S214000D90A558BD4F8C9381E08E0F80930A01F0E03A
S214000DA0E558FD4F90830CC08091550284FD0CC021
S214000DB081E0809376028091550288608093550288
S214000DC080910C0180930D01DF91CF911F910F91BF
S214000DD0FF900895CF93DF9380915502877F80938D
S214000DE05502E0910A01A1E0AE0FF0E080919C036D
S214000DF0E558FD4F8083E1E0EA0FB0E0C3E7D2E0BC
S214000E008A81A558BD4F8C9381E08E0F80930A018E
S214000E10F0E08B81E558FD4F8083C0E008C0EC2FE2
S214000E20F0E0E558FD4F80810E942F02CF5FC3306F
S214000E30B0F38091770290917802CEE6D2E0998363
S214000E408883A0910A01E1E0EA0FB0E08981A55805
S214000E50BD4F8C9391E09E0F90930A01F0E0E55809
S214000E60FD4F8083DF91CF910895E1ECF0E0808123
S214000E70806880830895E1ECF0E080818F7780833E
S214000E80089583E680939C030E942D080E941C0907
S214000E900E9434080E947D080E94D500789484E75A
S214000EA090E00E944D0883E590E00E94C5080E94ED
S214000EB035071092540189E18093090184E08093FC
S214000EC0550286E090E0909313018093120182E32E
S214000ED08093080188B18F70809580930601809377
S214000EE00501109272021092550210920101EBE772
S214000EF0F3E0118210821382128215821482178206
S214000F001682E0E0F4E080ED91ECABE8B9E6808391
S214000F109183A283B38383E393E39583848384E4FA
S214000F2094E49783868387E7808788E8818789E9C2
S214000F3082871486138616861586108A1786128A66
S214000F40118AC0E080910901811105C080E2C8279E
S214000F508AE0809309018091550281FF06C08D7F4B
S214000F60809355020E94750316C0809112019091DD
S214000F701301029780F490910B0180910A01981753
S214000F8051F0809155028B7F809355020E943B075B
S214000F908BB184608BB990910B0180910A019817F0
S214000FA029F08091550282FF0E94530290910B0116
S214000FB080910A0198131DC08091550282FD19C0C8
S214000FC00E94FB088823A9F0E0ECF0E080818064B2
S214000FD080838091550284608093550284E090E07F
S214000FE090931301809312018BB18B7F8BB90E9473
S214000FF035078091550283FD0E94EA0680915502CE
S21400100086FF03C08F7B809355028091550280FF38
S21400101004C00E9447080E9466018091050190E086
S214001020880F991F8E718C2B85B98CCF1092640017
S2140010301092610013BE15BE089515BE1FBE80E057
S21400104008958FE384B917B886E18AB915B818B839
S2140010501BB813B816B819B808950E9416080E944F
S21400106021080E941D0808958BE987BD18BC16BC90
S21400107013BC82E084BD95E095BD80936E0080E051
S2140010800895EEE6F0E08081826080830895EEE6C3
S214001090F0E080818270808308959093150180939C
S2140010A0140108951F920F920FB60F9211242F93DA
S2140010B03F934F935F936F937F938F939F93AF93DB
S2140010C0BF93EF93FF9381E085BBE0911401F0910D
S2140010D01501309709F00995FF91EF91BF91AF91F7
S2140010E09F918F917F916F915F914F913F912F913B
S2140010F00F900FBE0F901F9018958FE990E0909379
S21400110089008093880081E090E090938B00809324
S2140011108A00109287001092860010928500109226
S214001120840013BC1092800089E0809381001092A6
S214001130820082E080936F0080E008951F920F92F5
S2140011400FB60F9211248F9382E086BB8F910F907B
S2140011500FBE0F901F9018951F920F920FB60F920A
S214001160112416BA0F900FBE0F901F9018951F925D
S2140011700F920FB60F9211248F9385E086BB8F9146
S2140011800F900FBE0F901F901895909317018093A5
S214001190160108951F920F920FB60F9211242F93E7
S2140011A03F934F935F936F937F938F939F93AF93EA
S2140011B0BF93EF93FF9381E086BBE0911601F09119
S2140011C01701309709F00995FF91EF91BF91AF9104
S2140011D09F918F917F916F915F914F913F912F914A
S2140011E00F900FBE0F901F9018958091C00085FB42
S2140011F0882780F908958091C00086FB882780F9AB
S21400120008958093C6000895089508950895009758
S21400121021F090931D0180931C010895009721F002
S21400122090931B0180931A010895009721F09093E4
S21400123019018093180108958FEC90E09093C500F3
S2140012408093C40082E08093C00088E18093C10050
S21400125086E08093C20084E099E00E94070985E05A
S21400126099E00E940E0986E099E00E941509109206
S2100012701F0110921E010895F894FFCF95
S20580039C00DB
S2148004000000000000000000000000000000000067
S20780041000000064
S21480077200000000000000000000000000000000F2
S21480078200000000000000000000000000000000E2
S21480079200000000000000000000000000000000D2
S2148007A200000000000000000000000000000000C2
S2148007B200000000000000000000000000000000B2
S2148007C200000000000000000000000000000000A2
S2148007D20000000000000000000000000000000092
S2148007E20000000000000000000000000000000082
S2148007F20000000000000000000000000000000072
S2148008020000000000000000000000000000000061
S2148008120000000000000000000000000000000051
S2148008220000000000000000000000000000000041
S2148008320000000000000000000000000000000031
S2148008420000000000000000000000000000000021
S2148008520000000000000000000000000000000011
S2148008620000000000000000000000000000000001
S21480087200000000000000000000000000000000F1
S21480088200000000000000000000000000000000E1
S210800892000000000000000000000000D5
S804000000FB
