S01300004D6F64756C6F41544D454C2E737265632E
S11300000C9434000C9451000C9451000C94510045
S11300100C9451000C9451000C9451000C94510018
S11300200C9451000C9451000C9483080C94960881
S11300300C946A080C9478080C943F080C945100B2
S11300400C9451000C9451000C94E9020C9451004E
S11300500C9451000C9451000C9451000C945100D8
S11300600C9451000C94510011241FBECFEFD8E022
S1130070DEBFCDBF11E0A0E0B1E0E4E1F2E102C0F7
S113008005900D92A032B107D9F724E0A0E2B1E0C7
S113009001C01D92A730B207E1F70E9415070C9426
S11300A008090C9400008091E602811103C01092AB
S11300B0E60203C081508093E60280916D018111B4
S11300C003C010926D010895815080936D010895CD
S11300D08091E90281508093E9028091E502815088
S11300E08093E5028091F60281608093F60280910C
S11300F06701815080936701811121C08091EA02D8
S113010085FF18C08F7D8093EA0280917A019091D7
S11301107B01019690937B0180937A01892B79F47A
S11301208091F3029091F40201969093F4028093EB
S1130130F30208958091EA0280628093EA020895AE
S11301408091F002882319F0803141F00EC08CE9CF
S11301508093E6028DE680936D0108958CEA809386
S1130160E60281E980936D0108958BE48093E602B1
S113017080936D01089526B130E020953095E62FE7
S1130180F0E02E233F238623E82FF0E02E173F07CD
S113019009F5882331F080910604862B80930604A8
S11301A019C080910604962F982379F0242F30E00B
S11301B0220F331FF901E050FF4F0190F081E02D31
S11301C0D901A950BC4FED93FC93962F90958923A8
S11301D08093060420913001822F90E0FC01EE0F01
S11301E0FF1FDF01A80FB91FAA0FBB1FAB57BD4FDD
S11301F04C9330910604632311966C931197FD017F
S11302008091FF0390910004A0910104B091020435
S113021082839383A483B58381E0820F809330012A
S1130220803111F410923001089586B18F70809559
S11302308093F5029091ED0298279093EA02209121
S1130240F7033091F8032115310539F021503109B4
S11302503093F8032093F7031EC09091EA0290FFB5
S11302600BC09AE09093680190916C019E7F81701D
S1130270892B80936C010FC080916801882359F009
S1130280815080936801811106C040E061E0809153
S11302906C010E94BB008091F9039091FA030097CE
S11302A031F001979093FA038093F90321C0809170
S11302B0EA0281FF0EC08AE08093690180916C019B
S11302C0982F9D7F8091F5028270892B80936C0119
S11302D00FC080916901882359F08150809369018E
S11302E0811106C041E062E080916C010E94BB0074
S11302F08091FB039091FC03009731F00197909358
S1130300FC038093FB0321C08091EA0282FF0EC0AC
S11303108AE080936A0180916C01982F9B7F809181
S1130320F5028470892B80936C010FC080916A015F
S1130330882359F0815080936A01811106C042E0FC
S113034064E080916C010E94BB008091FD03909158
S1130350FE03009731F001979093FE038093FD0311
S113036021C08091EA0283FF0EC08AE080936B0172
S113037080916C01982F977F8091F5028870892B6A
S113038080936C010FC080916B01882359F08150D8
S113039080936B01811106C043E068E080916C0199
S11303A00E94BB008091F5028093ED020E942E080A
S11303B08091F6028E7F8093F60208952091650164
S11303C0309166012827309366012093650120E06F
S11303D018C0809165019091660180FF0BC09695CD
S11303E0879531E0832730EA9327909366018093C1
S11303F0650106C096958795909366018093650183
S11304002F5F283030F308950E94C108882369F0D3
S1130410E0912101F0E0E950FD4F80810E94CD0878
S1130420809121018F5F809321010895CF93DF9301
S1130430C82F80917501823009F449C028F48823BB
S113044061F0813089F1B5C0843009F47AC008F4D0
S113045060C0853009F47EC0ACC0CC2351F08C2F31
S113046090E020917D0230917E028217930709F07B
S1130470ADC0C11105C08091F60280618093F6027F
S113048085E0809382028FEF9FEF909366018093C3
S113049065018C2F0E94DE0181E08093750195B186
S11304A082E0892785B992C0C09380028C2F0E9474
S11304B0DE01809182029FEF980F90938202C031F7
S11304C011F48093820282E0809375017FC0809151
S11304D02201E82FF0E0E458FE4FC0838F5F809341
S11304E022018C2F0E94DE01809182028150809330
S11304F0820281116BC080918002803131F4C093FB
S1130500820283E08093750161C084E08093750169
S11305105DC080912201E82FF0E0E458FE4FC083D3
S11305208F5F809322018C2F0E94DE0180918202D2
S1130530815080938202811149C084E080937501C7
S113054045C0D0E0D093EC02C093EB0285E08093E9
S113055075013CC095B184E0892785B920E03C2F22
S11305608091EB029091EC02822B932B9093EC02FE
S11305708093EB0220916501309166018217930705
S113058051F495B188E0892785B98091F60282609B
S11305908093F60204C0809122018093230110927B
S11305A075018091F6028F778093F6020E94A00075
S11305B00DC01092750180912201809323018091D6
S11305C0F6028F778093F6020E94A000DF91CF910C
S11305D008951F920F920FB60F9211242F933F93F9
S11305E04F935F936F937F938F939F93AF93BF9337
S11305F0EF93FF938091F6028823BCF48091E60286
S113060081110DC08091F6028F778093F6021092CB
S113061075018091EA028F7E8093EA021AC080916C
S1130620EA0280618093EA0214C080916D01811115
S11306300BC08091F60280688093F6028091EA02F2
S113064080618093EA0205C08091EA028F7E8093E4
S1130650EA020E94A0008091EA0284FF04C0809113
S1130660C6000E941602FF91EF91BF91AF919F9136
S11306708F917F916F915F914F913F912F910F9047
S11306800FBE0F901F901895FF920F931F93CF9357
S1130690DF9310922001109221018FEF9FEF90932E
S11306A066018093650195B180E1892785B98091C0
S11306B08002863009F4DDC018F4833041F049C368
S11306C0883009F480C1803109F44BC242C383E805
S11306D080937C028091F60284FF04C08F7E809315
S11306E0F60247C3A0912301E1E0EA0FE09323015E
S11306F0B0E0A458BE4F8C91C2E7D1E08883A1E05A
S1130700AE0FA0932301F0E0E458FE4F808189836B
S11307104091720150917301E1E0EA0FE0932301EB
S1130720B0E0A458BE4F8C91888381E08E0F8093F3
S11307302301F0E0E458FE4F808189832091720107
S113074030917301C9010197803D67E0960720F05D
S113075083E0809378010DC3BA01615071096C3054
S1130760710538F46CE070E0641B750B6817790749
S113077048F482E0809378018091F6028860809347
S1130780F602F7C2A0912001E1E0EA0FB0E0809107
S11307907D02A950BD4F8C9361E06E0FF0E0E950EB
S11307A0FD4F83E0808381E0860F8093200170E019
S11307B0FB01E950FD4F1082F12CC0E026C0E0910E
S11307C02001A1E0AE0FA09320010E2F10E0FA014A
S11307D0E80FF91F3197EE0FFF1FE85FFE4F80818E
S11307E09181FC01D081F801E950FD4FD083E1E013
S11307F0EA0FE0932001EA2FF0E0DC0111968C91DE
S1130800E950FD4F8083CE5FF3948F2D90E08217E3
S11308109307A8F2FB01E950FD4FC083D0E007C065
S1130820FC01E950FD4F80810E94DE01DF5F8D2FC6
S113083090E02C2F30E02D5F3F4F8217930784F315
S11308408091650190916601809372019093730188
S1130850A0912001E1E0EA0FB0E0A950BD4F8C93D4
S113086081E08E0F80932001F0E0E950FD4F9083EA
S11308707CC286E880937C02A0912301E1E0EA0F28
S1130880E0932301B0E0A458BE4F8C91C2E7D1E0BD
S11308908883A1E0AE0FA0932301F0E0E458FE4F5B
S11308A0808189838091720190917301E1E0EA0F64
S11308B0E0932301B0E0A458BE4F2C91288331E08B
S11308C03E0F30932301F0E0E458FE4F308139832A
S11308D08D30910548F082E0809378018091F60292
S11308E088608093F60245C2FC013197EE0FFF1F2A
S11308F0E85FFE4FC081D1812883209173012A8350
S11309002091F60224FF05C0822F8F7E8093F60289
S113091030C2A0912001E1E0EA0FB0E020917D0215
S1130920A950BD4F2C93A1E0AE0FF0E0E950FD4F6C
S113093026E020839093730180937201E1E0EA0F33
S1130940B0E0A950BD4F8C93A1E0AE0FF0E08091D0
S11309507301E950FD4F8083E1E0EA0FE093200149
S1130960B0E08881A950BD4F8C9381E08E0F8093B5
S11309702001F0E08981E950FD4F8083C0E008C088
S1130980EC2FF0E0E950FD4F80810E94DE01CF5F43
S1130990C630B0F380916501909166018093720135
S11309A090937301A0912001E1E0EA0FB0E0A95017
S11309B0BD4F8C9381E08E0F80932001F0E0E950CD
S11309C0FD4F9083D2C188E880937C028091F60227
S11309D084FF04C08F7E8093F602CBC1A0912301D3
S11309E0E1E0EA0FE0932301B0E0A458BE4F8C91FC
S11309F0C2E7D1E08883A1E0AE0FA0932301F0E029
S1130A00E458FE4F80818983809172019091730133
S1130A10E1E0EA0FE0932301B0E0A458BE4F2C912B
S1130A20288321E02E0F20932301F0E0E458FE4FA9
S1130A3020812983209172013091730181309105C5
S1130A4029F098F182309105B9F022C021153105C1
S1130A5021F02115BFEF3B0731F44091F6024064C9
S1130A604093F60222C083E0809378018091F602DD
S1130A7088608093F6027DC121153105B1F083E0D1
S1130A80809378018091F60288608093F60271C1A8
S1130A9081E0809378018091F60288608093F60269
S1130AA0809122018093230164C1A0912001E1E09F
S1130AB0EA0FB0E040917D02A950BD4F4C93A1E0F4
S1130AC0AE0FF0E0E950FD4F48E04083909373018E
S1130AD080937201E1E0EA0FB0E0C2E7D1E0A950EF
S1130AE0BD4F8C93A1E0AE0FF0E08981E950FD4F3A
S1130AF080833093730120937201E1E0EA0FB0E048
S1130B00A950BD4F2C9381E08E0F80932001F0E01B
S1130B108981E950FD4F8083C0E008C0EC2FF0E0EC
S1130B20E950FD4F80810E94DE01CF5FC630B0F3F3
S1130B308091650190916601809372019093730195
S1130B40A0912001E1E0EA0FB0E0A950BD4F8C93E1
S1130B5081E08E0F80932001F0E0E950FD4F9083F7
S1130B6004C180E980937C02E0912301A1E0AE0FEF
S1130B70A0932301F0E0E458FE4F8081C2E7D1E066
S1130B808883E1E0EA0FE0932301B0E0A458BE4F6C
S1130B908C9189832091720130917301A1E0AE0F91
S1130BA0A0932301F0E0E458FE4F80818883E1E0C4
S1130BB0EA0FE0932301B0E0A458BE4F8C918983DF
S1130BC0409172015091730181E08E0F8093230153
S1130BD0F0E0E458FE4F8081BA01615071096B372F
S1130BE0710538F490E0FA01EE0FFF1F8E179F078E
S1130BF049F083E0809378018091F60288608093C5
S1130C00F602B7C0C90101970C9738F48CE090E064
S1130C10821B930B8617970790F582E080937801E7
S1130C208091F60288608093F602A3C0A09123010C
S1130C30E1E0EA0FE0932301B0E0A458BE4F7C91B9
S1130C40A2E7B1E07C93F1E0FE0FF0932301F0E022
S1130C50E458FE4FE0811196EC931197F901E80FE7
S1130C60F91F3197EE0FFF1FE85FFE4F0190F081EF
S1130C70E02D708311968C9182836F5F01C060E0D8
S1130C80862F90E08417950788F28091F60284FFFE
S1130C9004C08F7E8093F6026CC0A0912001E1E035
S1130CA0EA0FB0E080917D02A950BD4F8C93A1E082
S1130CB0AE0FF0E0E950FD4F80E180833093730183
S1130CC020937201E1E0EA0FB0E0C2E7D1E0A9505D
S1130CD0BD4F2C93A1E0AE0FF0E08981E950FD4FA8
S1130CE080835093730140937201E1E0EA0FB0E016
S1130CF0A950BD4F4C9381E08E0F80932001F0E00A
S1130D008981E950FD4F8083C0E008C0EC2FF0E0FA
S1130D10E950FD4F80810E94DE01CF5FC630B0F301
S1130D2080916501909166018093720190937301A3
S1130D30A0912001E1E0EA0FB0E0A950BD4F8C93EF
S1130D4081E08E0F80932001F0E0E950FD4F908305
S1130D500CC08091F60284FD0CC081E08093780180
S1130D608091F60288608093F6028091220180933C
S1130D702301DF91CF911F910F91FF900895CF939D
S1130D808091F602877F8093F602E0912001A1E032
S1130D90AE0FF0E080917D02E950FD4F8083E1E0E9
S1130DA0EA0FB0E0A950BD4F80917C028C9381E0A2
S1130DB08E0F80932001F0E0E950FD4F809178017F
S1130DC08083C0E008C0EC2FF0E0E950FD4F808143
S1130DD00E94DE01CF5FC330B0F380916501909132
S1130DE066019093730180937201A0912001E1E068
S1130DF0EA0FB0E080917301A950BD4F8C9391E04C
S1130E009E0F90932001F0E0E950FD4F8083CF9135
S1130E100895E1ECF0E08081806880830895E1EC3E
S1130E20F0E080818F77808308950E941A080E94E1
S1130E30E8080E942108789488E690E00E943A0825
S1130E4083E590E00E9491080E94090710927501C1
S1130E5089E18093E90284E08093F60286E080933E
S1130E60E5021092F00282E38093670181E191E14F
S1130E709093F4028093F30282E292E290937B01D6
S1130E8080937A0183E393E390936F0180936E01DF
S1130E9084E494E49093E8028093E70285E595E581
S1130EA0909334018093330186E696E6909304048C
S1130EB08093030487E797E7909377018093760103
S1130EC088E898E8909384028093830289E999E9F9
S1130ED09093F2028093F1028AEA9AEA9093710164
S1130EE0809370018BEB9BEB9093320180933101E3
S1130EF08FEE9DEC9093EF028093EE0288B18F7099
S1130F0080958093F502809306041092EA02109271
S1130F10F602E7EFF3E01182108213821282158247
S1130F20148217821682C0E08091E902811105C003
S1130F3080E2C82784E68093E9028091F60281FF6B
S1130F4006C08D7F8093F6020E94440314C08091F2
S1130F50E502823080F4909121018091200198175C
S1130F6051F08091F6028B7F8093F6020E940F0766
S1130F708BB184608BB990912101809120019817E5
S1130F8029F08091F60282FF0E94040290912101CF
S1130F908091200198131AC08091F60282FD16C038
S1130FA00E94C708882391F0E0ECF0E0808180641F
S1130FB080838091F60284608093F60284E08093BB
S1130FC0E5028BB18B7F8BB90E9409078091F602F1
S1130FD083FD0E94BF068091F60286FF03C08F7BCB
S1130FE08093F6028091F60280FF04C00E943408C8
S1130FF00E9415018091060490E0880F991F8E715C
S11310008C2B85B991CF109264001092610013BEAD
S113101015BE089515BE1FBE80E008958FE384B900
S113102017B886E18AB915B818B81BB813B816B83A
S113103019B808950E9403080E940E080E940A0825
S113104008958BE987BD18BC16BC13BC82E084BD2F
S113105095E095BD80936E0080E00895EEE6F0E0A3
S11310608081826080830895EEE6F0E08081827062
S113107080830895909325018093240108951F92FD
S11310800F920FB60F9211242F933F934F935F93B8
S11310906F937F938F939F93AF93BF93EF93FF933C
S11310A081E085BBE0912401F0912501309709F09E
S11310B00995FF91EF91BF91AF919F918F917F918E
S11310C06F915F914F913F912F910F900FBE0F90B1
S11310D01F9018951F920F920FB60F9211248F93A1
S11310E082E086BB8F910F900FBE0F901F901895D2
S11310F01F920F920FB60F92112416BA0F900FBEC3
S11311000F901F9018951F920F920FB60F921124F3
S11311108F9385E086BB8F910F900FBE0F901F9029
S11311201895909327018093260108951F920F929A
S11311300FB60F9211242F933F934F935F936F93A6
S11311407F938F939F93AF93BF93EF93FF9381E02C
S113115086BBE0912601F0912701309709F00995AB
S1131160FF91EF91BF91AF919F918F917F916F917B
S11311705F914F913F912F910F900FBE0F901F9051
S113118018958091C00085FB882780F90895809187
S1131190C00086FB882780F908958093C6000895CF
S11311A0089508950895009721F090932D01809358
S11311B02C010895009721F090932B0180932A012C
S11311C00895009721F090932901809328010895B0
S11311D08FEC90E09093C5008093C40082E08093EC
S11311E0C00088E18093C10086E08093C20080ED56
S11311F098E00E94D30881ED98E00E94DA0882ED1D
S113120098E00E94E10810922F0110922E01089597
S1071210F894FFCF7C
S11312140000F401E8030000F3027A016E01E7021E
S11312243301030476018302F10270013101EE02F9
S9030000FC
