S01300004D6F64756C6F41544D454C2E737265632E
S2140000000C943B000C9458000C9458000C94580028
S2140000100C9458000C9458000C9458000C945800FB
S2140000200C9458000C9458000C949B080C94AE0842
S2140000300C9482080C9490080C9436080C94580083
S2140000400C9458000C9458000C9435030C945800EB
S2140000500C9458000C9458000C9458000C945800BB
S2140000600C9458000C9458009402B402C702E9029B
S2140000700B030103270311241FBECFEFD8E0DEBF1A
S214000080CDBF11E0A0E0B1E0E4E8F2E102C00590E7
S2140000900D92A030B107D9F723E0A0E0B1E001C08F
S2140000A01D92AB36B207E1F70E9445070C94400953
S2140000B00C94000080910D0190910E01009731F094
S2140000C0019790930E0180930D0109C08091500115
S2140000D0882329F0863019F086E0809350018091BD
S2140000E00B0190910C01009731F0019790930C0151
S2140000F080930B0108951092500180915A028093CC
S2140001005902089580910A01815080930A018091D6
S2140001105102816080935102809109018150809341
S214000120090181111AC080910001882381F0E0E066
S214000130F4E080819181A281B3810196A11DB11D59
S21400014080839183A283B3831092000103C081E071
S2140001508093000189E180930901089510C00E94F0
S214000160E408882361F0E091520281E08E0F8093CC
S2140001705202F0E0ED59FD4F80810E94F008909108
S214000180520280914B019813EACF0895E1ECF0E01B
S2140001908081806880830895E1ECF0E080818F772D
S2140001A08083089580910604882369F08BE490E0AC
S2140001B090930E0180930D018FEA90E090930C01CE
S2140001C080930B01089580910704882369F08CEAD8
S2140001D090E090930E0180930D0181E991E0909359
S2140001E00C0180930B0108958CE990E090930E012A
S2140001F080930D018DE691E090930C0180930B01A6
S214000200089580E090E010C0FC01EE0FFF1FE80F9D
S214000210F91FEE0FFF1FEE58F84F10821182128260
S2140002201382148215820196823391056CF3089529
S21400023026B130E020953095E62FF0E02E233F23C0
S2140002408623E82FF0E02E173F0709F03FC08823EB
S214000250A9F080910401682B60930401809101014C
S21400026090910201FC01EE0FFF1FE80FF91FEE0F41
S214000270FF1FEE58F84F81E0818328C0809104016B
S214000280962F982389F0242F30E0F9013496EE0F4C
S214000290FF1FE050FC4FA081B181220F331FF901F0
S2140002A0ED59FC4FB183A0836095682360930401E9
S2140002B08091010190910201FC01EE0FFF1FE80FF3
S2140002C0F91FEE0FFF1FEE58F84F118280910101C3
S2140002D090910201FC01EE0FFF1FE80FF91FEE0FD1
S2140002E0FF1FEE58F84F4083A0E0B4E04D915D91BB
S2140002F06D917C9113974283538364837583019633
S214000300909302018093010150962D913C91519754
S2140003102F5F3F4F51963C932E935097C29721F4F0
S2140003201092020110920101089586B18F70809597
S214000330809305019091060198279093580220918A
S2140003406303309164032115310539F021503109DA
S21400035030936403209363031EC09091580290FF6D
S2140003600BC09AE090934C01909103019E7F8170A0
S214000370892B809303010FC080914C01882359F08C
S214000380815080934C01811106C040E061E080916D
S21400039003010E94180180916503909166030097FF
S2140003A031F00197909366038093650321C0809196
S2140003B0580281FF0EC08AE080934D0180910301B0
S2140003C0982F9D7F809105018270892B8093030171
S2140003D00FC080914D01882359F0815080934D01C4
S2140003E0811106C041E062E0809103010E9418017D
S2140003F08091670390916803009731F0019790937E
S21400040068038093670321C08091580282FF0EC064
S2140004108AE080934E0180910301982F9B7F809104
S21400042005018470892B809303010FC080914E01D3
S214000430882359F0815080934E01811106C042E016
S21400044064E0809103010E941801809169039091F5
S2140004506A03009731F0019790936A0380936903CB
S21400046021C08091580283FF0EC08AE080934F011E
S21400047080910301982F977F809105018870892BC2
S214000480809303010FC080914F01882359F081505B
S21400049080934F01811106C043E068E0809103011C
S2140004A00E94180180910501809306010E9425088C
S2140004B0809151028E7F809351020895EBE5F2E021
S2140004C02481358128273583248320E018C0809135
S2140004D05F029091600280FF0BC09695879531E091
S2140004E0832730EA93279093600280935F0206C0CA
S2140004F0969587959093600280935F022F5F2830D1
S21400050030F308950F931F93CF93DF93E09150013C
S2140005104E2F50E04730510508F09CC0C82FFA0116
S214000520EC5CFF4F0C943A09882321F08091FF037E
S214000530C81316C0C11105C0809151028061809316
S2140005405102EBE5F2E085E081838FEF9FEF958324
S21400055084838C2F0E945E0281E08093500180C0CD
S21400056086E0809350017CC00BE512E0F8018083A2
S2140005700E945E02F80181819FEF980F9183C0313F
S21400058011F480935C0282E08093500169C0E09190
S2140005905A0281E08E0F80935A02F0E0EF5AFE4F27
S2140005A0C0838C2F0E945E02EBE5F2E081818150D1
S2140005B08183811155C080915B02803131F4C093F4
S2140005C05C0283E0809350014BC085E0809350012D
S2140005D047C0E0915A0281E08E0F80935A02F0E005
S2140005E0EF5AFE4FC0838C2F0E945E02EBE5F2E0CE
S2140005F0818181508183811133C085E080935001D1
S2140006002FC0C82FD0E0D0936202C093610284E06E
S2140006108093500125C020E0382FEBE5F2E086817C
S2140006209781822B932B978386832481358182172B
S214000630930731F48091510282608093510204C086
S21400064080915A02809359021092500109C08093FB
S214000650530206C01092500180915A0280935902AC
S214000660DF91CF911F910F9108951F920F920FB6B1
S2140006700F9211242F933F934F935F936F937F9323
S2140006808F939F93AF93BF93EF93FF930E94D200F5
S2140006908091C6000E948202FF91EF91BF91AF91B8
S2140006A09F918F917F916F915F914F913F912F9185
S2140006B00F900FBE0F901F901895CF93DF93EBE52A
S2140006C0F2E08FEF9FEF958384838081863009F474
S2140006D0FEC018F4833041F075C3883009F4ABC10E
S2140006E0803109F47CC26EC383E880935D028091FA
S2140006F0510284FF04C08F7E8093510273C3A09181
S2140007005902E1E0EA0FE0935902B0E0AF5ABE4F5B
S2140007108C91C4E5D2E08983A1E0AE0FA093590284
S214000720F0E0EF5AFE4F8081888388819981E1E06E
S214000730EA0FE0935902B0E0AF5ABE4F2C912983DE
S21400074021E02E0F20935902F0E0EF5AFE4F208151
S2140007502883488159819A01215031092B37310568
S21400076048F083E080935E02809151028860809317
S214000770510238C3811524E0920750F09C012251A3
S21400078034402036334020F08F39A8E09A0748F0EE
S21400079082E080935E0280915102886080935102CD
S2140007A021C39C0134502231310598F49A0121501E
S2140007B03048220F331F280F391F2231344048F0AB
S2140007C082E080935E02809151028860809351029D
S2140007D009C39C01225737402D32314098F49A01C4
S2140007E021503048220F331F280F391F2F39384029
S2140007F048F082E080935E02809151028860809388
S2140008005102F0C2A0914B01E1E0EA0FB0E0AD5911
S214000810BD4F2091FF032C93A1E0AE0FF0E0ED5901
S214000820FD4F23E0208321E02A0F20934B01B0E008
S214000830FD01ED59FD4F108260E070E010C0E091C0
S2140008404B01F1E0FE0FF0934B01F0E0EC01C20F1C
S214000850D31F2881ED59FD4F20837F5F6F5F262FC2
S21400086030E0FA01EE0FFF1F2E173F0740F3AD5999
S214000870BD4F7C93C091520207C0FC01ED59FD4F5D
S21400088080810E945E02CF5F8C2F90E0E0914B014A
S2140008902E2F30E0A9014D5F5F4F841795076CF34C
S2140008A080915F0290916002A4E5B2E08C9311966D
S2140008B09C93EF5FE901CD59DD4F888381E08E0F71
S2140008C080934B01F0E0ED59FD4F90838BC286E894
S2140008D080935D02A0915902E1E0EA0FE09359028D
S2140008E0B0E0AF5ABE4F8C91C4E5D2E08983A1E058
S2140008F0AE0FA0935902F0E0EF5AFE4F8081888336
S21400090088819981E1E0EA0FE0935902B0E0AF5A9E
S214000910BE4F2C91298331E03E0F30935902F0E010
S214000920EF5AFE4F308138838F3FE3E09E0750F04A
S214000930AC01405154404236534020F08F3938E0E5
S214000940930748F082E080935E02809151028860AF
S2140009508093510247C2DC012C93209154021196D9
S2140009602C932091510224FF05C0822F8F7E809306
S214000970510238C2A0914B01E1E0EA0FB0E02091AD
S214000980FF03AD59BD4F2C93A1E0AE0FF0E0ED593B
S214000990FD4F26E02083C4E5D2E099838883E1E01A
S2140009A0EA0FB0E02981AD59BD4F2C93A1E0AE0F00
S2140009B0F0E02881ED59FD4F2083E1E0EA0FE09357
S2140009C04B01B0E0EC012881AD59BD4F2C9321E0DE
S2140009D02E0F20934B01F0E08981ED59FD4F808367
S2140009E0C091520208C0EC2FF0E0ED59FD4F808117
S2140009F00E945E02CF5FE0914B01CE17A0F390916C
S214000A005F0280916002A4E5B2E09C9311968C93FD
S214000A10119781E08E0FF0E0ED59FD4F908391E045
S214000A20980F90934B01E82FF0E011968C91ED59BA
S214000A30FD4F8083D7C188E880935D028091510284
S214000A4084FF04C08F7E80935102CCC1A0915902CE
S214000A50E1E0EA0FE0935902B0E0AF5ABE4F8C9146
S214000A60C4E5D2E08983A1E0AE0FA0935902F0E07E
S214000A70EF5AFE4F8081888388819981E1E0EA0FF2
S214000A80E0935902B0E0AF5ABE4F2C91298321E083
S214000A902E0F20935902F0E0EF5AFE4F2081288354
S214000AA0288139818130910529F098F182309105AD
S214000AB0B9F022C02115310521F02115DFEF3D07E1
S214000AC031F44091510240644093510222C083E0C9
S214000AD080935E028091510288608093510282C1A9
S214000AE021153105B1F083E080935E0280915102BA
S214000AF088608093510276C181E080935E02809187
S214000B00510288608093510280915A028093590264
S214000B1069C1A0914B01E1E0EA0FB0E04091FF030C
S214000B20AD59BD4F4C93C1E0CE0FF0E0ED59FD4FEF
S214000B3048E04083A4E5B2E011969C938E93E1E0F2
S214000B40EC0FD0E011968C911197CD59DD4F88832C
S214000B50C1E0CE0FF0E08C91ED59FD4F80831196E9
S214000B603C932E93E1E0EC0FD0E011968C91119718
S214000B70CD59DD4F888381E08E0F80934B01F0E0E6
S214000B808C91ED59FD4F8083C091520208C0EC2F26
S214000B90F0E0ED59FD4F80810E945E02CF5FE0914C
S214000BA04B01CE17A0F390915F0280916002A4E5FE
S214000BB0B2E09C9311968C93119781E08E0FF0E033
S214000BC0ED59FD4F908391E0980F90934B01E82FDD
S214000BD0F0E011968C91ED59FD4F808303C180E9BA
S214000BE080935D02E0915902A1E0AE0FA0935902F6
S214000BF0F0E0EF5AFE4F8081C4E5D2E08983E1E061
S214000C00EA0FE0935902B0E0AF5ABE4F8C9188834A
S214000C1088819981A1E0AE0FA0935902F0E0EF5AC7
S214000C20FE4F20812983E1E0EA0FE0935902B0E00D
S214000C30AF5ABE4F2C9128834881598121E02E0F50
S214000C4020935902F0E0EF5AFE4F2081BA0161501E
S214000C5071096B37710538F430E0DA01AA0FBB1F53
S214000C602A173B0749F083E080935E028091510289
S214000C70886080935102B6C09C0134502031310503
S214000C8048F082E080935E028091510288608093F3
S214000C905102A8C09A0121503048220F331F280F56
S214000CA0391F2F303440C8F082E080935E02809176
S214000CB0510288608093510295C0EC01C20FD31F89
S214000CC0E091590271E07E0F70935902F0E0EF5AFE
S214000CD0FE4F708178836F5F01C060E0262F30E0A2
S214000CE02A173B0750F32091510224FF05C0822F9C
S214000CF08F7E8093510276C0A0914B01E1E0EA0F0F
S214000D00B0E02091FF03AD59BD4F2C93C1E0CE0F4C
S214000D10F0E0ED59FD4F20E12083A4E5B2E0119606
S214000D209C938E93E1E0EC0FD0E011968C91119796
S214000D30CD59DD4F8883C1E0CE0FF0E08C91ED59A0
S214000D40FD4F808311965C934E93E1E0EC0FD0E06C
S214000D5011968C911197CD59DD4F888381E08E0FC7
S214000D6080934B01F0E08C91ED59FD4F8083C0914C
S214000D70520208C0EC2FF0E0ED59FD4F80810E9432
S214000D805E02CF5FE0914B01CE17A0F390915F0219
S214000D9080916002A4E5B2E09C9311968C93119723
S214000DA081E08E0FF0E0ED59FD4F908391E0980FB3
S214000DB090934B01E82FF0E011968C91ED59FD4F82
S214000DC0808310C08091510284FD0CC081E0809326
S214000DD05E028091510288608093510280915A028F
S214000DE080935902DF91CF910895CF93DF9380913E
S214000DF05102877F80935102E0914B01A1E0AE0F34
S214000E00F0E08091FF03ED59FD4F8083E1E0EA0FAB
S214000E10B0E0CBE5D2E08A81AD59BD4F8C9381E03E
S214000E208E0F80934B01F0E08B81ED59FD4F808350
S214000E30C091520208C0EC2FF0E0ED59FD4F8081C2
S214000E400E945E02CF5FE0914B01CE17A0F3909117
S214000E505F0280916002A4E5B2E09C9311968C93A9
S214000E60119781E08E0FF0E0ED59FD4F908391E0F1
S214000E70980F90934B01E82FF0E011968C91ED5966
S214000E80FD4F8083DF91CF91089582E08093FF032A
S214000E90C0E0D4E081E08E838F8380ED91ECABE8F8
S214000EA0B9E688839983AA83BB8383E393E39D8310
S214000EB08C83198618861B861A861D861C861F86B6
S214000EC01E86198A188A0E9411086F818E810E94D8
S214000ED00B090E9418080E9461080E94010178947C
S214000EE082E890E00E9431088AE590E00E94A90816
S214000EF00E94C6001092500189E180930A0188EA98
S214000F0091E6909308018093070184E08093510254
S214000F1010924B011092520210925A0210925902ED
S214000F2082E38093090188B18F70809580930501D4
S214000F308093040110925802109251021092000100
S214000F40E3E6F3E011821082138212821582148285
S214000F501782168280910A01811103C089E180936D
S214000F600A018091510281FF05C08D7F8093510256
S214000F700E945D039091520280914B01981739F0C0
S214000F800E94CC008BB184608BB90E94AE00909119
S214000F90520280914B0198130EC00E94EA088823E3
S214000FA051F0E0ECF0E08081806480830E94C6000F
S214000FB08BB18B7F8BB98091510283FD0E94F50621
S214000FC08091510286FF0DC00E94D908E0E0F4E04F
S214000FD0678186810E940B09809151028F7B8093E6
S214000FE051028091510280FFB5CF0E942B080E94CB
S214000FF09501B0CF109264001092610013BE15BE2A
S214001000089515BE1FBE80E008958FE384B917B813
S21400101086E18AB915B818B81BB813B816B819B847
S21400102008950E94FA070E9405080E940108089584
S2140010308BE987BD18BC16BC13BC82E084BD95E066
S21400104095BD80936E0080E00895EEE6F0E0808126
S214001050826080830895EEE6F0E08081827080836F
S21400106008959093100180930F0108951F920F9298
S2140010700FB60F9211242F933F934F935F936F9366
S2140010807F938F939F93AF93BF93EF93FF9381E0EC
S21400109085BBE0910F01F0911001309709F009959A
S2140010A0FF91EF91BF91AF919F918F917F916F913B
S2140010B05F914F913F912F910F900FBE0F901F9011
S2140010C018958FE990E0909389008093880081E0DE
S2140010D090E090938B0080938A0010928700109285
S2140010E08600109285001092840013BC1092800037
S2140010F089E0809381001092820082E080936F00E6
S21400110080E008951F920F920FB60F9211248F93CE
S21400111082E086BB8F910F900FBE0F901F901895A0
S2140011201F920F920FB60F92112416BA0F900FBE91
S2140011300F901F9018951F920F920FB60F921124C2
S2140011408F9385E086BB8F910F900FBE0F901F90F8
S2140011501895909312018093110108951F920F9293
S2140011600FB60F9211242F933F934F935F936F9375
S2140011707F938F939F93AF93BF93EF93FF9381E0FB
S21400118086BBE0911101F0911201309709F00995A4
S214001190FF91EF91BF91AF919F918F917F916F914A
S2140011A05F914F913F912F910F900FBE0F901F9020
S2140011B018951092C5001092C4001092C0001092AC
S2140011C0C1001092C20008958091C00085FB882758
S2140011D080F908958091C00086FB882780F90895DD
S2140011E08093C6000895089508950895009721F005
S2140011F090931801809317010895009721F090931B
S2140012001601809315010895009721F0909314011C
S214001210809313010895813039F487E690E0909327
S214001220C5008093C40006C08FEC90E09093C50084
S2140012308093C40082E08093C00088E18093C10060
S214001240613021F486E28093C20003C086E080937A
S214001250C20083EF98E00E94F60884EF98E00E94B0
S214001260FD0885EF98E00E94040910921A0110927A
S21400127019010895EE0FFF1F0590F491E02D0994D3
S208001280F894FFCF0B
S2058003FF0078
S2148004000000000000000000000000000000000067
S206800410000065
S21480077200000000000000000000000000000000F2
S21480078200000000000000000000000000000000E2
S21480079200000000000000000000000000000000D2
S2148007A200000000000000000000000000000000C2
S2148007B200000000000000000000000000000000B2
S2148007C200000000000000000000000000000000A2
S2148007D20000000000000000000000000000000092
S2148007E20000000000000000000000000000000082
S2148007F20000000000000000000000000000000072
S2148008020000000000000000000000000000000061
S2148008120000000000000000000000000000000051
S2148008220000000000000000000000000000000041
S2148008320000000000000000000000000000000031
S2148008420000000000000000000000000000000021
S2148008520000000000000000000000000000000011
S2148008620000000000000000000000000000000001
S21480087200000000000000000000000000000000F1
S21480088200000000000000000000000000000000E1
S210800892000000000000000000000000D5
S804000000FB
