:100000000C9434000C9451000C9451000C94510049
:100010000C9451000C9451000C9451000C9451001C
:100020000C9451000C9451000C94CA080C94DD08F7
:100030000C94B1080C94BF080C9465080C94510002
:100040000C9451000C9451000C9411030C94510029
:100050000C9451000C9451000C9451000C945100DC
:100060000C9451000C94510011241FBECFEFD8E026
:10007000DEBFCDBF11E0A0E0B1E0E2EAF2E102C0F4
:1000800005900D92A030B107D9F723E0A0E0B1E0D0
:1000900001C01D92A336B207E1F70E9432070C940B
:1000A0004F090C9400008091280390912903009738
:1000B00029F4109229031092280305C00197909308
:1000C00029038093280380912603909127030097AA
:1000D00029F4109227031092260308950197909314
:1000E00027038093260308958091210181508093F6
:1000F000210180912A0390912B03019790932B0368
:1001000080932A0380912C03816080932C0380913B
:100110002001815080932001811120C08091010134
:100120008823B1F08091370390913803A09139036F
:10013000B0913A030196A11DB11D809337039093AE
:100140003803A0933903B0933A031092010103C01E
:1001500081E08093010189E18093200108958091DD
:100160000A0190910B01009719F0409771F01AC0A5
:100170008CE990E090932903809328038DE691E029
:10018000909327038093260308958CEA90E0909340
:1001900029038093280381E991E0909327038093BA
:1001A000260308958BE490E090932903809328031D
:1001B0009093270380932603089580E090E010C079
:1001C000FC01EE0FFF1FE80FF91FEE0FFF1FEE58A7
:1001D000F84F1082118212821382148215820196C6
:1001E000823391056CF3089526B130E02095309567
:1001F000E62FF0E02E233F238623E82FF0E02E1792
:100200003F0709F5882331F080911101862B8093F7
:10021000110119C080911101962F982379F0242F94
:1002200030E0220F331FF901EE5FFE4F0190F081A5
:10023000E02DD901A85EBE4FED93FC93962F9095CB
:1002400089238093110180910C0190910D01FC0193
:10025000EE0FFF1FE80FF91FEE0FFF1FEE58F84FCC
:1002600040832091110162236183409137035091B3
:1002700038036091390370913A0342835383648356
:100280007583019690930D0180930C0120910E01CE
:1002900030910F012F5F3F4F30930F0120930E01DC
:1002A000C29721F410920D0110920C01089586B1AD
:1002B0008F708095809312019091130198279093ED
:1002C000360320911801309119012115310539F0BB
:1002D0002150310930931901209318011EC09091CB
:1002E000360390FF0BC09AE0909314019091100197
:1002F0009E7F8170892B809310010FC08091140123
:10030000882359F0815080931401811106C040E088
:1003100061E0809110010E94F40080911A01909197
:100320001B01009731F0019790931B0180931A01F4
:1003300021C08091360381FF0EC08AE080931501B1
:1003400080911001982F9D7F809112018270892BDE
:10035000809310010FC080911501882359F08150BE
:1003600080931501811106C041E062E08091100187
:100370000E94F40080911C0190911D01009731F0C2
:10038000019790931D0180931C0121C08091360339
:1003900082FF0EC08AE08093160180911001982F91
:1003A0009B7F809112018470892B809310010FC074
:1003B00080911601882359F0815080931601811194
:1003C00006C042E064E0809110010E94F400809138
:1003D0001E0190911F01009731F0019790931F012A
:1003E00080931E0121C08091360383FF0EC08AE0F6
:1003F0008093170180911001982F977F80911201AF
:100400008870892B809310010FC080911701882379
:1004100059F0815080931701811106C043E068E0D4
:10042000809110010E94F4008091120180931301C9
:100430000E94540880912C038E7F80932C03089592
:10044000EDE2F3E02481358128273583248320E001
:1004500018C0809131039091320380FF0BC09695B4
:10046000879531E0832730EA932790933203809376
:10047000310306C09695879590933203809331039C
:100480002F5F283030F308950E940809882369F00F
:10049000E0912301F0E0EA5DFE4F80810E941409A3
:1004A000809123018F5F8093230108950F931F9301
:1004B000CF93C82F80913503823009F43FC028F4D0
:1004C000882361F0813031F19BC0843009F470C021
:1004D00008F456C0853009F471C092C0CC2321F0D5
:1004E00080910002C81399C0C11105C080912C03EE
:1004F000806180932C03EDE2F3E085E081838FEF50
:100500009FEF958384838C2F0E94200281E080934B
:10051000350383C00DE213E0F801C0838C2F0E94E5
:100520002002F80181819FEF980F9183C03111F46F
:1005300080932E0382E0809335036FC0E091240105
:1005400081E08E0F80932401F0E0EA5DFD4FC083CF
:100550008C2F0E942002EDE2F3E0818181508183A3
:1005600081115BC080912D03803131F4C0932E0343
:1005700083E08093350351C084E0809335034DC000
:10058000E091240181E08E0F80932401F0E0EA5D88
:10059000FD4FC0838C2F0E942002EDE2F3E08181A9
:1005A00081508183811139C084E08093350335C047
:1005B000C0933C0385E0809335032FC0EBE3F3E069
:1005C000C08380819181EDE2F3E09783868324816B
:1005D00035818217930731F480912C0382608093D8
:1005E0002C0304C0809124018093250110923503CF
:1005F00080912C038F7780932C030E94AF000DC055
:1006000010923503809124018093250180912C0361
:100610008F7780932C030E94AF00CF911F910F9191
:1006200008951F920F920FB60F9211242F933F93AC
:100630004F935F936F937F938F939F93AF93BF93EA
:10064000EF93FF9380912C038823A4F480912803D7
:1006500090912903892B51F480912C038F778093FB
:100660002C03109235031092000115C081E0809395
:10067000000111C08091260390912703892B49F432
:1006800080912C03806880932C0381E0809300018B
:1006900002C0109200010E94AF00809100018823E7
:1006A00021F08091C6000E945602FF91EF91BF9108
:1006B000AF919F918F917F916F915F914F913F91FA
:1006C0002F910F900FBE0F901F901895FF920F93D0
:1006D0001F93CF93DF931092220110922301EDE23A
:1006E000F3E08FEF9FEF9583848395B180E18927B5
:1006F00085B98081863009F4D9C018F4833041F07F
:1007000044C3883009F489C1803109F44CC23DC327
:1007100083E880932F0380912C0384FF04C08F7E95
:1007200080932C0342C3A0912501E1E0EA0FE093FE
:100730002501B0E0AA5DBD4F8C91CBE3D3E0888367
:10074000A1E0AE0FA0932501F0E0EA5DFD4F8081AE
:10075000898348815981E1E0EA0FE0932501B0E007
:10076000AA5DBD4F8C91888381E08E0F8093250117
:10077000F0E0EA5DFD4F8081898328813981C901DC
:100780000197803D67E0960720F083E08093300377
:100790000CC3BA01615071096C30710538F46CE01A
:1007A00070E0641B750B6817790748F482E080934A
:1007B000300380912C03886080932C03F6C2A091B3
:1007C0002201E1E0EA0FB0E080910002AA5DBE4F95
:1007D0008C9361E06E0FF0E0EA5DFE4F83E0808372
:1007E00081E0860F8093220170E0FB01EA5DFE4FFD
:1007F0001082F12CC0E026C0E0912201A1E0AE0FF2
:10080000A09322010E2F10E0FA01E80FF91F319793
:10081000EE0FFF1FE55BFC4F80819181FC01D081D1
:10082000F801EA5DFE4FD083E1E0EA0FE093220198
:10083000EA2FF0E0DC0111968C91EA5DFE4F808397
:10084000CE5FF3948F2D90E082179307A8F2FB01FF
:10085000EA5DFE4FC083D0E007C0FC01EA5DFE4FB9
:1008600080810E942002DF5F8D2F90E02C2F30E0EE
:100870002D5F3F4F8217930784F38091310390914E
:100880003203CBE3D3E088839983A0912201E1E096
:10089000EA0FB0E0AA5DBE4F8C9381E08E0F80938B
:1008A0002201F0E0EA5DFE4F90837BC286E88093F0
:1008B0002F03A0912501E1E0EA0FE0932501B0E0CC
:1008C000AA5DBD4F8C91CBE3D3E08883A1E0AE0F4E
:1008D000A0932501F0E0EA5DFD4F80818983888146
:1008E0009981E1E0EA0FE0932501B0E0AA5DBD4FF8
:1008F0004C91488321E02E0F20932501F0E0EA5D22
:10090000FD4F208129838D30910548F082E080934E
:10091000300380912C03886080932C0346C29C0195
:1009200021503109F901EE0FFF1FE55BFC4FA0815B
:10093000B1814C930190F081E02D40913C034183C3
:1009400040912C0344FF05C0842F8F7E80932C039D
:100950002CC2E0912201A1E0AE0FF0E04091000234
:10096000EA5DFE4F4083E1E0EA0FB0E0AA5DBE4FD2
:1009700046E04C93CBE3D3E099838883A1E0AE0FAC
:10098000F0E0EA5DFE4F8083E1E0EA0FB0E08981AC
:10099000AA5DBE4F8C9381E08E0F809322014E2F73
:1009A00050E0220F331FF901E55BFC4FA081B181BC
:1009B0009C91FA01EA5DFE4F908391E0980F90932D
:1009C0002201E82FF0E011968C91EA5DFE4F8083C2
:1009D000C0E008C0EC2FF0E0EA5DFE4F80810E948D
:1009E0002002CF5FC630B0F3809131039091320383
:1009F000CBE3D3E088839983A0912201E1E0EA0F61
:100A0000B0E0AA5DBE4F8C9381E08E0F80932201EF
:100A1000F0E0EA5DFE4F9083C4C188E880932F0325
:100A200080912C0384FF04C08F7E80932C03BDC172
:100A3000A0912501E1E0EA0FE0932501B0E0AA5D75
:100A4000BD4F8C91CBE3D3E08883A1E0AE0FA093A0
:100A50002501F0E0EA5DFD4F8081898388819981DD
:100A6000E1E0EA0FE0932501B0E0AA5DBD4F2C91D3
:100A7000288321E02E0F20932501F0E0EA5DFD4F51
:100A800020812983288139818130910529F098F1CD
:100A900082309105B9F022C02115310521F02115D0
:100AA000BFEF3B0731F440912C03406440932C038B
:100AB00022C083E08093300380912C038860809370
:100AC0002C0373C121153105B1F083E0809330030D
:100AD00080912C03886080932C0367C181E0809310
:100AE000300380912C03886080932C038091240133
:100AF000809325015AC1A0912201E1E0EA0FB0E004
:100B000040910002AA5DBE4F4C93A1E0AE0FF0E011
:100B1000EA5DFE4F48E04083CBE3D3E099838883CE
:100B2000E1E0EA0FB0E0AA5DBE4F8C93A1E0AE0F0A
:100B3000F0E08981EA5DFE4F808339832883E1E01C
:100B4000EA0FB0E0AA5DBE4F2C9381E08E0F809338
:100B50002201F0E08981EA5DFE4F8083C0E008C099
:100B6000EC2FF0E0EA5DFE4F80810E942002CF5F13
:100B7000C630B0F38091310390913203CBE3D3E0E0
:100B800088839983A0912201E1E0EA0FB0E0AA5D99
:100B9000BE4F8C9381E08E0F80932201F0E0EA5DDE
:100BA000FE4F9083FEC080E980932F03E0912501E2
:100BB000A1E0AE0FA0932501F0E0EA5DFD4F80813A
:100BC000CBE3D3E08883E1E0EA0FE0932501B0E0D6
:100BD000AA5DBD4F8C91898328813981A1E0AE0F38
:100BE000A0932501F0E0EA5DFD4F80818883E1E07C
:100BF000EA0FE0932501B0E0AA5DBD4F8C91898397
:100C00004881598181E08E0F80932501F0E0EA5DF3
:100C1000FD4F8081BA01615071096B37710538F45D
:100C200090E0FA01EE0FFF1F8E179F0749F083E057
:100C30008093300380912C03886080932C03B5C08F
:100C4000C90101970C9738F48CE090E0821B930B5C
:100C500086179707A0F582E08093300380912C03DC
:100C6000886080932C03A1C0A0912501E1E0EA0FE8
:100C7000E0932501B0E0AA5DBD4F7C91ABE3B3E00A
:100C80007C93F1E0FE0FF0932501F0E0EA5DFD4F6B
:100C9000E0811196EC931197F901E80FF91F319754
:100CA000EE0FFF1FE55BFC4FC081D181788301907F
:100CB000F081E02D11968C9181836F5F01C060E01F
:100CC000862F90E08417950778F280912C0384FF9B
:100CD00004C08F7E80932C0368C0A0912201E1E0C4
:100CE000EA0FB0E080910002AA5DBE4F8C93A1E0B4
:100CF000AE0FF0E0EA5DFE4F80E18083CBE3D3E00E
:100D000039832883E1E0EA0FB0E0AA5DBE4F2C935F
:100D1000A1E0AE0FF0E08981EA5DFE4F8083598348
:100D20004883E1E0EA0FB0E0AA5DBE4F4C9381E05A
:100D30008E0F80932201F0E08981EA5DFE4F80836F
:100D4000C0E008C0EC2FF0E0EA5DFE4F80810E9419
:100D50002002CF5FC630B0F380913103909132030F
:100D6000CBE3D3E088839983A0912201E1E0EA0FED
:100D7000B0E0AA5DBE4F8C9381E08E0F809322017C
:100D8000F0E0EA5DFE4F90830CC080912C0384FD5F
:100D90000CC081E08093300380912C0388608093A5
:100DA0002C038091240180932501DF91CF911F9125
:100DB0000F91FF900895CF93DF9380912C03877F4D
:100DC00080932C03E0912201A1E0AE0FF0E080912E
:100DD0000002EA5DFE4F8083E1E0EA0FB0E0CDE281
:100DE000D3E08A81AA5DBE4F8C9381E08E0F809301
:100DF0002201F0E08B81EA5DFE4F8083C0E008C0F5
:100E0000EC2FF0E0EA5DFE4F80810E942002CF5F70
:100E1000C330B0F38091310390913203CBE3D3E040
:100E200099838883A0912201E1E0EA0FB0E08981F3
:100E3000AA5DBE4F8C9391E09E0F90932201F0E04B
:100E4000EA5DFE4F8083DF91CF910895E1ECF0E001
:100E50008081806880830895E1ECF0E080818F7765
:100E60008083089583E6809300020E9440080E94D8
:100E70002F090E9447080E9490080E94DD00789484
:100E800084E790E00E94600883E590E00E94D80823
:100E90000E94260780ED91ECABE8B9E6809337031A
:100EA00090933803A0933903B0933A03109235031B
:100EB00089E18093210184E080932C0386E090E017
:100EC00090932B0380932A0310920B0110920A0136
:100ED00082E38093200188B18F7080958093120106
:100EE000809311011092360310922C03109201018D
:100EF000E8E1F1E0118210821382128215821482DD
:100F000017821682E1E2F1E082E292E2A1E1B1E130
:100F100080839183A283B38383E393E39583848364
:100F200084E494E49783868385E595E591878087BB
:100F300086E696E69387828787E7848788E88587B1
:100F400089E986878AEA87878BEB9BEB918B808B7D
:100F50008CEC9CEC938B828B8DED9DED958B848B33
:100F60008EEE9EEE978B868BC0E0809121018111E1
:100F700005C080E2C8278AE08093210180912C037C
:100F800081FF06C08D7F80932C030E94660316C0EC
:100F900080912A0390912B03029780F49091230172
:100FA00080912201981751F080912C038B7F8093C0
:100FB0002C030E942C078BB184608BB99091230184
:100FC00080912201981729F080912C0382FF0E94C2
:100FD0004402909123018091220198131DC08091B9
:100FE0002C0382FD19C00E940E098823A9F0E0ECB1
:100FF000F0E080818064808380912C038460809302
:101000002C0384E090E090932B0380932A038BB110
:101010008B7F8BB90E94260780912C0383FD0E9451
:10102000DB0680912C0386FF03C08F7B80932C030B
:1010300080912C0380FF04C00E945A080E9457012F
:101040008091110190E0880F991F8E718C2B85B9CA
:101050008CCF109264001092610013BE15BE0895EB
:1010600015BE1FBE80E008958FE384B917B886E1EE
:101070008AB915B818B81BB813B816B819B80895B6
:101080000E9429080E9434080E94300808958BE9C4
:1010900087BD18BC16BC13BC82E084BD95E095BD2D
:1010A00080936E0080E00895EEE6F0E0808182603B
:1010B00080830895EEE6F0E0808182708083089559
:1010C0009093400380933F0308951F920F920FB6B1
:1010D0000F9211242F933F934F935F936F937F93BE
:1010E0008F939F93AF93BF93EF93FF9381E085BB63
:1010F000E0913F03F0914003309709F00995FF918B
:10110000EF91BF91AF919F918F917F916F915F917F
:101110004F913F912F910F900FBE0F901F901895F8
:101120008FE990E0909389008093880081E090E0BF
:1011300090938B0080938A00109287001092860013
:10114000109285001092840013BC1092800089E0F8
:10115000809381001092820082E080936F0080E093
:1011600008951F920F920FB60F9211248F9382E071
:1011700086BB8F910F900FBE0F901F9018951F92F6
:101180000F920FB60F92112416BA0F900FBE0F9048
:101190001F9018951F920F920FB60F9211248F93E4
:1011A00085E086BB8F910F900FBE0F901F90189512
:1011B000909342038093410308951F920F920FB6BC
:1011C0000F9211242F933F934F935F936F937F93CD
:1011D0008F939F93AF93BF93EF93FF9381E086BB71
:1011E000E0914103F0914203309709F00995FF9196
:1011F000EF91BF91AF919F918F917F916F915F918F
:101200004F913F912F910F900FBE0F901F90189507
:101210008091C00085FB882780F908958091C000E7
:1012200086FB882780F908958093C6000895089565
:1012300008950895009721F0909348038093470301
:101240000895009721F090934603809345030895F5
:10125000009721F0909344038093430308958FEC0B
:1012600090E09093C5008093C40082E08093C0001A
:1012700088E18093C10086E08093C20087E199E015
:101280000E941A0988E199E00E94210989E199E008
:101290000E94280910924A03109249030895F89475
:0212A000FFCF7E
:0200000400807A
:1001210000000000000000000000000000000000CE
:080131000000000000000000C6
:0102000000FD
:100772000000000000000000000000000000000077
:100782000000000000000000000000000000000067
:100792000000000000000000000000000000000057
:1007A2000000000000000000000000000000000047
:1007B2000000000000000000000000000000000037
:1007C2000000000000000000000000000000000027
:1007D2000000000000000000000000000000000017
:1007E2000000000000000000000000000000000007
:1007F20000000000000000000000000000000000F7
:1008020000000000000000000000000000000000E6
:1008120000000000000000000000000000000000D6
:1008220000000000000000000000000000000000C6
:1008320000000000000000000000000000000000B6
:1008420000000000000000000000000000000000A6
:100852000000000000000000000000000000000096
:100862000000000000000000000000000000000086
:100872000000000000000000000000000000000076
:100882000000000000000000000000000000000066
:0C0892000000000000000000000000005A
:00000001FF
