S01300004D6F64756C6F41544D454C2E737265632E
S11300000C9434000C9451000C9451000C94510045
S11300100C9451000C9451000C9451000C94510018
S11300200C9451000C9451000C9483080C94960881
S11300300C946A080C9478080C943F080C945100B2
S11300400C9451000C9451000C94E9020C9451004E
S11300500C9451000C9451000C9451000C945100D8
S11300600C9451000C94510011241FBECFEFD8E022
S1130070DEBFCDBF11E0A0E0B1E0E4E1F2E102C0F7
S113008005900D92A032B107D9F724E0A0E2B1E0C7
S113009001C01D92AB30B207E1F70E9415070C9422
S11300A008090C9400008091EA02811103C01092A7
S11300B0EA0203C081508093EA02809171018111A8
S11300C003C01092710108958150809371010895C5
S11300D08091ED0281508093ED028091E90281507C
S11300E08093E9028091FA0281608093FA02809100
S11300F06B01815080936B01811121C08091EE02CC
S113010085FF18C08F7D8093EE0280917E019091CF
S11301107F01019690937F0180937E01892B79F46E
S11301208091F7029091F80201969093F8028093DF
S1130130F70208958091EE0280628093EE020895A2
S11301408091F402882319F0803141F00EC08CE9CB
S11301508093EA028DE68093710108958CEA80937E
S1130160EA0281E98093710108958BE48093EA02A5
S113017080937101089526B130E020953095E62FE3
S1130180F0E02E233F238623E82FF0E02E173F07CD
S113019009F5882331F080910A04862B80930A04A0
S11301A019C080910A04962F982379F0242F30E007
S11301B0220F331FF901E050FF4F0190F081E02D31
S11301C0D901A550BC4FED93FC93962F90958923AC
S11301D080930A0420913001822F90E0FC01EE0FFD
S11301E0FF1FDF01A80FB91FAA0FBB1FA757BD4FE1
S11301F04C9330910A04632311966C931197FD017B
S11302008091030490910404A0910504B091060424
S113021082839383A483B58381E0820F809330012A
S1130220803111F410923001089586B18F70809559
S11302308093F9029091F10298279093EE02209115
S1130240FB033091FC032115310539F021503109AC
S11302503093FC032093FB031EC09091EE0290FFA9
S11302600BC09AE090936C01909170019E7F817015
S1130270892B809370010FC080916C01882359F001
S1130280815080936C01811106C040E061E080914F
S113029070010E94BB008091FD039091FE030097C2
S11302A031F001979093FE038093FD0321C0809168
S11302B0EE0281FF0EC08AE080936D01809170018F
S11302C0982F9D7F8091F9028270892B8093700111
S11302D00FC080916D01882359F0815080936D0186
S11302E0811106C041E062E0809170010E94BB0070
S11302F08091FF0390910004009731F0019790934F
S113030000048093FF0321C08091EE0282FF0EC09F
S11303108AE080936E0180917001982F9B7F809179
S1130320F9028470892B809370010FC080916E0153
S1130330882359F0815080936E01811106C042E0F8
S113034064E0809170010E94BB008091010490914F
S11303500204009731F00197909302048093010402
S113036021C08091EE0283FF0EC08AE080936F016A
S113037080917001982F977F8091F9028870892B62
S1130380809370010FC080916F01882359F08150D0
S113039080936F01811106C043E068E08091700191
S11303A00E94BB008091F9028093F1020E942E0802
S11303B08091FA028E7F8093FA0208952091690158
S11303C030916A01282730936A012093690120E063
S11303D018C08091690190916A0180FF0BC09695C5
S11303E0879531E0832730EA932790936A018093BD
S11303F0690106C09695879590936A018093690177
S11304002F5F283030F308950E94C108882369F0D3
S1130410E0912101F0E0E550FD4F80810E94CD087C
S1130420809121018F5F809321010895CF93DF9301
S1130430C82F80917901823009F449C028F48823B7
S113044061F0813089F1B5C0843009F47AC008F4D0
S113045060C0853009F47EC0ACC0CC2351F08C2F31
S113046090E020918102309182028217930709F073
S1130470ADC0C11105C08091FA0280618093FA0277
S113048085E0809386028FEF9FEF90936A018093BB
S113049069018C2F0E94DE0181E08093790195B17E
S11304A082E0892785B992C0C09384028C2F0E9470
S11304B0DE01809186029FEF980F90938602C031EF
S11304C011F48093860282E0809379017FC0809149
S11304D02201E82FF0E0E058FE4FC0838F5F809345
S11304E022018C2F0E94DE0180918602815080932C
S11304F0860281116BC080918402803131F4C093F3
S1130500860283E08093790161C084E0809379015D
S11305105DC080912201E82FF0E0E058FE4FC083D7
S11305208F5F809322018C2F0E94DE0180918602CE
S1130530815080938602811149C084E080937901BF
S113054045C0D0E0D093F002C093EF0285E08093E1
S113055079013CC095B184E0892785B920E03C2F1E
S11305608091EF029091F002822B932B9093F002F2
S11305708093EF022091690130916A0182179307F9
S113058051F495B188E0892785B98091FA02826097
S11305908093FA0204C08091220180932301109277
S11305A079018091FA028F778093FA020E94A00069
S11305B00DC01092790180912201809323018091D2
S11305C0FA028F778093FA020E94A000DF91CF9104
S11305D008951F920F920FB60F9211242F933F93F9
S11305E04F935F936F937F938F939F93AF93BF9337
S11305F0EF93FF938091FA028823BCF48091EA027E
S113060081110DC08091FA028F778093FA021092C3
S113061079018091EE028F7E8093EE021AC0809160
S1130620EE0280618093EE0214C080917101811109
S11306300BC08091FA0280688093FA028091EE02E6
S113064080618093EE0205C08091EE028F7E8093DC
S1130650EE020E94A0008091EE0284FF04C080910B
S1130660C6000E941602FF91EF91BF91AF919F9136
S11306708F917F916F915F914F913F912F910F9047
S11306800FBE0F901F901895FF920F931F93CF9357
S1130690DF9310922001109221018FEF9FEF90932E
S11306A06A018093690195B180E1892785B98091B8
S11306B08402863009F4DDC018F4833041F049C364
S11306C0883009F480C1803109F44BC242C383E805
S11306D0809380028091FA0284FF04C08F7E80930D
S11306E0FA0247C3A0912301E1E0EA0FE09323015A
S11306F0B0E0A058BE4F8C91C6E7D1E08883A1E05A
S1130700AE0FA0932301F0E0E058FE4F808189836F
S11307104091760150917701E1E0EA0FE0932301E3
S1130720B0E0A058BE4F8C91888381E08E0F8093F7
S11307302301F0E0E058FE4F808189832091760107
S113074030917701C9010197803D67E0960720F059
S113075083E080937C010DC3BA01615071096C3050
S1130760710538F46CE070E0641B750B6817790749
S113077048F482E080937C018091FA02886080933F
S1130780FA02F7C2A0912001E1E0EA0FB0E0809103
S11307908102A550BD4F8C9361E06E0FF0E0E550EF
S11307A0FD4F83E0808381E0860F8093200170E019
S11307B0FB01E550FD4F1082F12CC0E026C0E09112
S11307C02001A1E0AE0FA09320010E2F10E0FA014A
S11307D0E80FF91F3197EE0FFF1FE85FFE4F80818E
S11307E09181FC01D081F801E550FD4FD083E1E017
S11307F0EA0FE0932001EA2FF0E0DC0111968C91DE
S1130800E550FD4F8083CE5FF3948F2D90E08217E7
S11308109307A8F2FB01E550FD4FC083D0E007C069
S1130820FC01E550FD4F80810E94DE01DF5F8D2FCA
S113083090E02C2F30E02D5F3F4F8217930784F315
S11308408091690190916A01809376019093770178
S1130850A0912001E1E0EA0FB0E0A550BD4F8C93D8
S113086081E08E0F80932001F0E0E550FD4F9083EE
S11308707CC286E880938002A0912301E1E0EA0F24
S1130880E0932301B0E0A058BE4F8C91C6E7D1E0BD
S11308908883A1E0AE0FA0932301F0E0E058FE4F5F
S11308A0808189838091760190917701E1E0EA0F5C
S11308B0E0932301B0E0A058BE4F2C91288331E08F
S11308C03E0F30932301F0E0E058FE4F308139832E
S11308D08D30910548F082E080937C018091FA028A
S11308E088608093FA0245C2FC013197EE0FFF1F26
S11308F0E85FFE4FC081D1812883209177012A834C
S11309002091FA0224FF05C0822F8F7E8093FA0281
S113091030C2A0912001E1E0EA0FB0E02091810211
S1130920A550BD4F2C93A1E0AE0FF0E0E550FD4F74
S113093026E020839093770180937601E1E0EA0F2B
S1130940B0E0A550BD4F8C93A1E0AE0FF0E08091D4
S11309507701E550FD4F8083E1E0EA0FE093200149
S1130960B0E08881A550BD4F8C9381E08E0F8093B9
S11309702001F0E08981E550FD4F8083C0E008C08C
S1130980EC2FF0E0E550FD4F80810E94DE01CF5F47
S1130990C630B0F38091690190916A018093760129
S11309A090937701A0912001E1E0EA0FB0E0A55017
S11309B0BD4F8C9381E08E0F80932001F0E0E550D1
S11309C0FD4F9083D2C188E8809380028091FA021F
S11309D084FF04C08F7E8093FA02CBC1A0912301CF
S11309E0E1E0EA0FE0932301B0E0A058BE4F8C9100
S11309F0C6E7D1E08883A1E0AE0FA0932301F0E025
S1130A00E058FE4F8081898380917601909177012F
S1130A10E1E0EA0FE0932301B0E0A058BE4F2C912F
S1130A20288321E02E0F20932301F0E0E058FE4FAD
S1130A3020812983209176013091770181309105BD
S1130A4029F098F182309105B9F022C021153105C1
S1130A5021F02115BFEF3B0731F44091FA024064C5
S1130A604093FA0222C083E080937C018091FA02D1
S1130A7088608093FA027DC121153105B1F083E0CD
S1130A8080937C018091FA0288608093FA0271C19C
S1130A9081E080937C018091FA0288608093FA025D
S1130AA0809122018093230164C1A0912001E1E09F
S1130AB0EA0FB0E040918102A550BD4F4C93A1E0F4
S1130AC0AE0FF0E0E550FD4F48E04083909377018E
S1130AD080937601E1E0EA0FB0E0C6E7D1E0A550EB
S1130AE0BD4F8C93A1E0AE0FF0E08981E550FD4F3E
S1130AF080833093770120937601E1E0EA0FB0E040
S1130B00A550BD4F2C9381E08E0F80932001F0E01F
S1130B108981E550FD4F8083C0E008C0EC2FF0E0F0
S1130B20E550FD4F80810E94DE01CF5FC630B0F3F7
S1130B308091690190916A01809376019093770185
S1130B40A0912001E1E0EA0FB0E0A550BD4F8C93E5
S1130B5081E08E0F80932001F0E0E550FD4F9083FB
S1130B6004C180E980938002E0912301A1E0AE0FEB
S1130B70A0932301F0E0E058FE4F8081C6E7D1E066
S1130B808883E1E0EA0FE0932301B0E0A058BE4F70
S1130B908C9189832091760130917701A1E0AE0F89
S1130BA0A0932301F0E0E058FE4F80818883E1E0C8
S1130BB0EA0FE0932301B0E0A058BE4F8C918983E3
S1130BC0409176015091770181E08E0F809323014B
S1130BD0F0E0E058FE4F8081BA01615071096B3733
S1130BE0710538F490E0FA01EE0FFF1F8E179F078E
S1130BF049F083E080937C018091FA0288608093BD
S1130C00FA02B7C0C90101970C9738F48CE090E060
S1130C10821B930B8617970790F582E080937C01E3
S1130C208091FA0288608093FA02A3C0A091230104
S1130C30E1E0EA0FE0932301B0E0A058BE4F7C91BD
S1130C40A6E7B1E07C93F1E0FE0FF0932301F0E01E
S1130C50E058FE4FE0811196EC931197F901E80FEB
S1130C60F91F3197EE0FFF1FE85FFE4F0190F081EF
S1130C70E02D708311968C9182836F5F01C060E0D8
S1130C80862F90E08417950788F28091FA0284FFFA
S1130C9004C08F7E8093FA026CC0A0912001E1E031
S1130CA0EA0FB0E080918102A550BD4F8C93A1E082
S1130CB0AE0FF0E0E550FD4F80E180833093770183
S1130CC020937601E1E0EA0FB0E0C6E7D1E0A55059
S1130CD0BD4F2C93A1E0AE0FF0E08981E550FD4FAC
S1130CE080835093770140937601E1E0EA0FB0E00E
S1130CF0A550BD4F4C9381E08E0F80932001F0E00E
S1130D008981E550FD4F8083C0E008C0EC2FF0E0FE
S1130D10E550FD4F80810E94DE01CF5FC630B0F305
S1130D208091690190916A01809376019093770193
S1130D30A0912001E1E0EA0FB0E0A550BD4F8C93F3
S1130D4081E08E0F80932001F0E0E550FD4F908309
S1130D500CC08091FA0284FD0CC081E080937C0178
S1130D608091FA0288608093FA0280912201809334
S1130D702301DF91CF911F910F91FF900895CF939D
S1130D808091FA02877F8093FA02E0912001A1E02A
S1130D90AE0FF0E080918102E550FD4F8083E1E0E9
S1130DA0EA0FB0E0A550BD4F809180028C9381E0A2
S1130DB08E0F80932001F0E0E550FD4F80917C017F
S1130DC08083C0E008C0EC2FF0E0E550FD4F808147
S1130DD00E94DE01CF5FC330B0F38091690190912E
S1130DE06A019093770180937601A0912001E1E05C
S1130DF0EA0FB0E080917701A550BD4F8C9391E04C
S1130E009E0F90932001F0E0E550FD4F8083CF9139
S1130E100895E1ECF0E08081806880830895E1EC3E
S1130E20F0E080818F77808308950E941A080E94E1
S1130E30E8080E942108789488E690E00E943A0825
S1130E4083E590E00E9491080E94090710927901BD
S1130E5089E18093ED0284E08093FA0286E0809336
S1130E60E9021092F40282E380936B0181E191E143
S1130E709093F8028093F70282E292E290937F01CA
S1130E8080937E0183E393E39093730180937201D3
S1130E9084E494E49093EC028093EB0285E595E579
S1130EA0909334018093330186E696E69093080488
S1130EB08093070487E797E790937B0180937A01F7
S1130EC088E898E8909388028093870289E999E9F1
S1130ED09093F6028093F5028AEA9AEA9093750158
S1130EE0809374018BEB9BEB9093320180933101DF
S1130EF08FEE9DEC9093F3028093F20288B18F7091
S1130F0080958093F90280930A041092EE02109265
S1130F10FA02EBEFF3E0118210821382128215823F
S1130F20148217821682C0E08091ED02811105C0FF
S1130F3080E2C82784E68093ED028091FA0281FF63
S1130F4006C08D7F8093FA020E94440314C08091EE
S1130F50E902823080F49091210180912001981758
S1130F6051F08091FA028B7F8093FA020E940F075E
S1130F708BB184608BB990912101809120019817E5
S1130F8029F08091FA0282FF0E94040290912101CB
S1130F908091200198131AC08091FA0282FD16C034
S1130FA00E94C708882391F0E0ECF0E0808180641F
S1130FB080838091FA0284608093FA0284E08093B3
S1130FC0E9028BB18B7F8BB90E9409078091FA02E9
S1130FD083FD0E94BF068091FA0286FF03C08F7BC7
S1130FE08093FA028091FA0280FF04C00E943408C0
S1130FF00E94150180910A0490E0880F991F8E7158
S11310008C2B85B991CF109264001092610013BEAD
S113101015BE089515BE1FBE80E008958FE384B900
S113102017B886E18AB915B818B81BB813B816B83A
S113103019B808950E9403080E940E080E940A0825
S113104008958BE987BD18BC16BC13BC82E084BD2F
S113105095E095BD80936E0080E00895EEE6F0E0A3
S11310608081826080830895EEE6F0E08081827062
S113107080830895909325018093240108951F92FD
S11310800F920FB60F9211242F933F934F935F93B8
S11310906F937F938F939F93AF93BF93EF93FF933C
S11310A081E085BBE0912401F0912501309709F09E
S11310B00995FF91EF91BF91AF919F918F917F918E
S11310C06F915F914F913F912F910F900FBE0F90B1
S11310D01F9018951F920F920FB60F9211248F93A1
S11310E082E086BB8F910F900FBE0F901F901895D2
S11310F01F920F920FB60F92112416BA0F900FBEC3
S11311000F901F9018951F920F920FB60F921124F3
S11311108F9385E086BB8F910F900FBE0F901F9029
S11311201895909327018093260108951F920F929A
S11311300FB60F9211242F933F934F935F936F93A6
S11311407F938F939F93AF93BF93EF93FF9381E02C
S113115086BBE0912601F0912701309709F00995AB
S1131160FF91EF91BF91AF919F918F917F916F917B
S11311705F914F913F912F910F900FBE0F901F9051
S113118018958091C00085FB882780F90895809187
S1131190C00086FB882780F908958093C6000895CF
S11311A0089508950895009721F090932D01809358
S11311B02C010895009721F090932B0180932A012C
S11311C00895009721F090932901809328010895B0
S11311D08FEC90E09093C5008093C40082E08093EC
S11311E0C00088E18093C10086E08093C20080ED56
S11311F098E00E94D30881ED98E00E94DA0882ED1D
S113120098E00E94E10810922F0110922E01089597
S1071210F894FFCF7C
S11312140000F401E8030000F7027E017201EB020E
S1131224330107047A018702F50274013101F202E1
S9030000FC
