:100000000C9434000C9451000C9451000C94510049
:100010000C9451000C9451000C9451000C9451001C
:100020000C9451000C9451000C948A080C949D0877
:100030000C9471080C947F080C9425080C945100C2
:100040000C9451000C9451000C9411030C94510029
:100050000C9451000C9451000C9451000C945100DC
:100060000C9451000C94510011241FBECFEFD8E026
:10007000DEBFCDBF11E0A0E0B1E0E2E2F2E102C0FC
:1000800005900D92A831B107D9F723E0A8E1B1E0BE
:1000900001C01D92AB39B207E1F70E9424070C940E
:1000A0000F090C9400008091790290917A020097D8
:1000B00029F410927A021092790205C00197909368
:1000C0007A028093790280916C0190916D01009782
:1000D00029F410926D0110926C010895019790938C
:1000E0006D0180936C01089580917E028150809310
:1000F0007E02809177029091780201979093780226
:100100008093770280917002816080937002809169
:100110006601815080936601811120C080917B022D
:100120008823B1F08091710290917202A0917302C4
:10013000B09174020196A11DB11D8093710290933C
:100140007202A0937302B093740210927B0203C0F8
:1001500081E080937B0282E3809366010895809121
:10016000750290917602009719F0409771F01AC0CD
:100170008CE990E090937A02809379028DE691E089
:1001800090936D0180936C0108958CEA90E09093B8
:100190007A028093790281E991E090936D018093D6
:1001A0006C0108958BE490E090937A028093790239
:1001B00090936D0180936C01089580E090E010C0F1
:1001C000FC01EE0FFF1FE80FF91FEE0FFF1FEE58A7
:1001D000F84F1082118212821382148215820196C6
:1001E000823391056CF3089526B130E02095309567
:1001F000E62FF0E02E233F238623E82FF0E02E1792
:100200003F0709F5882331F080919A03862B80936C
:100210009A0319C080919A03962F982379F0242F7E
:1002200030E0220F331FF901E85EFE4F0190F081AC
:10023000E02DD901A057BC4FED93FC93962F9095DC
:10024000892380939A038091980390919903FC01EC
:10025000EE0FFF1FE80FF91FEE0FFF1FEE58F84FCC
:10026000408320919A0362236183409171025091EF
:1002700072026091730270917402428353836483AB
:1002800075830196909399038093980320917C0243
:1002900030917D022F5F3F4F30937D0220937C028F
:1002A000C29721F41092990310929803089586B191
:1002B0008F70809580938F029091840298279093FD
:1002C000830220919003309191032115310539F07B
:1002D0002150310930939103209390031EC09091D7
:1002E000830290FF0BC09AE09093670190916B019D
:1002F0009E7F8170892B80936B010FC08091670175
:10030000882359F0815080936701811106C040E035
:1003100061E080916B010E94F400809192039091C2
:100320009303009731F00197909393038093920386
:1003300021C08091830281FF0EC08AE08093680112
:1003400080916B01982F9D7F80918F028270892B05
:1003500080936B010FC080916801882359F0815010
:1003600080936801811106C041E062E080916B01D9
:100370000E94F4008091940390919503009731F0CE
:100380000197909395038093940321C080918302F9
:1003900082FF0EC08AE08093690180916B01982FE3
:1003A0009B7F80918F028470892B80936B010FC09B
:1003B00080916901882359F08150809369018111EE
:1003C00006C042E064E080916B010E94F4008091DD
:1003D000960390919703009731F0019790939703BC
:1003E0008093960321C08091830283FF0EC08AE030
:1003F00080936A0180916B01982F977F80918F0283
:100400008870892B80936B010FC080916A018823CB
:1004100059F0815080936A01811106C043E068E081
:1004200080916B010E94F40080918F02809384027E
:100430000E941408809170028E7F8093700208954C
:10044000E7E8F2E02481358128273583248320E002
:1004500018C080918B0290918C0280FF0BC0969502
:10046000879531E0832730EA932790938C0280931D
:100470008B0206C09695879590938C0280938B0291
:100480002F5F283030F308950E94C808882369F050
:10049000E0912101F0E0E057FD4F80810E94D408F7
:1004A000809121018F5F8093210108950F931F9305
:1004B000CF93C82F80916E01823009F43FC028F499
:1004C000882361F0813031F19BC0843009F470C021
:1004D00008F456C0853009F471C092C0CC2321F0D5
:1004E00080910002C81399C0C11105C080917002AB
:1004F000806180937002E7E8F2E085E081838FEF0E
:100500009FEF958384838C2F0E94200281E080934B
:100510006E0183C007E812E0F801C0838C2F0E94AF
:100520002002F80181819FEF980F9183C03111F46F
:100530008093880282E080936E016FC0E091220177
:1005400081E08E0F80932201F0E0E059FE4FC083DE
:100550008C2F0E942002E7E8F2E0818181508183A4
:1005600081115BC080918702803131F4C093880291
:1005700083E080936E0151C084E080936E014DC092
:10058000E091220181E08E0F80932201F0E0E0599A
:10059000FE4FC0838C2F0E942002E7E8F2E08181A9
:1005A00081508183811139C084E080936E0135C010
:1005B000C093800285E080936E012FC0EFE7F2E0E8
:1005C000C08380819181E7E8F2E09783868324816C
:1005D00035818217930731F4809170028260809395
:1005E000700204C0809122018093230110926E0159
:1005F000809170028F77809370020E94AF000DC0CF
:1006000010926E01809122018093230180917002EB
:100610008F77809370020E94AF00CF911F910F914E
:1006200008951F920F920FB60F9211242F933F93AC
:100630004F935F936F937F938F939F93AF93BF93EA
:10064000EF93FF93809170028823A4F48091790244
:1006500090917A02892B51F4809170028F77809368
:10066000700210926E0110926F0115C081E08093AC
:100670006F0111C080916C0190916D01892B49F43B
:100680008091700280688093700281E080936F0196
:1006900002C010926F010E94AF0080916F01882309
:1006A00021F08091C6000E945602FF91EF91BF9108
:1006B000AF919F918F917F916F915F914F913F91FA
:1006C0002F910F900FBE0F901F901895FF920F93D0
:1006D0001F93CF93DF931092200110922101E7E83E
:1006E000F2E08FEF9FEF9583848395B180E18927B6
:1006F00085B98081863009F4D9C018F4833041F07F
:1007000036C3883009F47DC1803109F440C22FC35B
:1007100083E8809389028091700284FF04C08F7EF9
:100720008093700234C3A0912301E1E0EA0FE093CB
:100730002301B0E0A059BE4F8C91CFE7D2E088836F
:10074000A1E0AE0FA0932301F0E0E059FE4F8081BD
:10075000898348815981E1E0EA0FE0932301B0E009
:10076000A059BE4F8C91888381E08E0F8093230126
:10077000F0E0E059FE4F8081898328813981C901E9
:100780000197803D67E0960720F083E080938A021E
:10079000FEC2BA01615071096C30710538F46CE029
:1007A00070E0641B750B6817790748F482E080934A
:1007B0008A0280917002886080937002E8C2A091E2
:1007C0002001E1E0EA0FB0E080910002A057BD4FA8
:1007D0008C9361E06E0FF0E0E057FD4F83E0808383
:1007E00081E0860F8093200170E0FB01E057FD4F10
:1007F0001082F12CC0E026C0E0912001A1E0AE0FF4
:10080000A09320010E2F10E0FA01E80FF91F319795
:10081000EE0FFF1FE050FF4F80819181FC01D081DE
:10082000F801E057FD4FD083E1E0EA0FE0932001AB
:10083000EA2FF0E0DC0111968C91E057FD4F8083A8
:10084000CE5FF3948F2D90E082179307A8F2FB01FF
:10085000E057FD4FC083D0E007C0FC01E057FD4FDB
:1008600080810E942002DF5F8D2F90E02C2F30E0EE
:100870002D5F3F4F8217930784F380918B029091F5
:100880008C02CFE7D2E088839983A0912001E1E038
:10089000EA0FB0E0A057BD4F8C9381E08E0F80939C
:1008A0002001F0E0E057FD4F90836DC286E8809311
:1008B0008902A0912301E1E0EA0FE0932301B0E077
:1008C000A059BE4F8C91CFE7D2E08883A1E0AE0F54
:1008D000A0932301F0E0E059FE4F80818983888155
:1008E0009981E1E0EA0FE0932301B0E0A059BE4F07
:1008F0002C91288331E03E0F30932301F0E0E05942
:10090000FE4F308139838D30910548F082E080932D
:100910008A028091700288608093700238C2FC0164
:100920003197EE0FFF1FE050FF4FC081D181288328
:10093000209180022A832091700224FF05C0822F1B
:100940008F7E8093700223C2A0912001E1E0EA0F24
:10095000B0E020910002A057BD4F2C93A1E0AE0F54
:10096000F0E0E057FD4F26E020832FE732E0F90169
:1009700091838083E1E0EA0FB0E0A057BD4F8C93F4
:1009800091E09E0FF0E0D90111968C91E057FD4F58
:100990008083E1E0E90FE0932001A92FB0E0888196
:1009A000A057BD4F8C9381E08E0F80932001F0E023
:1009B0008981E057FD4F8083C0E008C0EC2FF0E054
:1009C000E057FD4F80810E942002CF5FC630B0F318
:1009D00080918B0290918C02CFE7D2E0888399833B
:1009E000A0912001E1E0EA0FB0E0A057BD4F8C9349
:1009F00081E08E0F80932001F0E0E057FD4F90835F
:100A0000C2C188E8809389028091700284FF04C08B
:100A10008F7E80937002BBC1A0912301E1E0EA0FB9
:100A2000E0932301B0E0A059BE4F8C91CFE7D2E014
:100A30008883A1E0AE0FA0932301F0E0E059FE4FC0
:100A40008081898388819981E1E0EA0FE093230125
:100A5000B0E0A059BE4F2C91288321E02E0F2093A7
:100A60002301F0E0E059FE4F20812983288139815C
:100A70008130910529F098F182309105B9F022C0BA
:100A80002115310521F02115BFEF3B0731F44091CD
:100A9000700240644093700222C083E080938A0217
:100AA0008091700288608093700271C121153105B8
:100AB000B1F083E080938A02809170028860809315
:100AC000700265C181E080938A0280917002886023
:100AD00080937002809122018093230158C1A091DC
:100AE0002001E1E0EA0FB0E040910002A057BD4FC5
:100AF0004C93A1E0AE0FF0E0E057FD4F48E040839B
:100B0000CFE7D2E099838883E1E0EA0FB0E0A05715
:100B1000BD4F8C93A1E0AE0FF0E08981E057FD4F0F
:100B2000808339832883E1E0EA0FB0E0A057BD4F0E
:100B30002C9381E08E0F80932001F0E08981E057B3
:100B4000FD4F8083C0E008C0EC2FF0E0E057FD4F80
:100B500080810E942002CF5FC630B0F380918B026B
:100B600090918C02CFE7D2E088839983A0912001F5
:100B7000E1E0EA0FB0E0A057BD4F8C9381E08E0F0B
:100B800080932001F0E0E057FD4F9083FCC080E9A6
:100B900080938902E0912301A1E0AE0FA09323018D
:100BA000F0E0E059FE4F8081CFE7D2E08883E1E0BA
:100BB000EA0FE0932301B0E0A059BE4F8C918983E6
:100BC00028813981A1E0AE0FA0932301F0E0E05924
:100BD000FE4F80818883E1E0EA0FE0932301B0E0DB
:100BE000A059BE4F8C9189834881598181E08E0F35
:100BF00080932301F0E0E059FE4F8081BA016150FB
:100C000071096B37710538F490E0FA01EE0FFF1FA0
:100C10008E179F0749F083E080938A0280917002CB
:100C2000886080937002B3C0C90101970C9738F4B3
:100C30008CE090E0821B930B8617970790F582E07B
:100C400080938A02809170028860809370029FC0B6
:100C5000A0912301E1E0EA0FE0932301B0E0A05965
:100C6000BE4F7C91AFE7B2E07C93F1E0FE0FF093D2
:100C70002301F0E0E059FE4FE0811196EC931197CB
:100C8000F901E80FF91F3197EE0FFF1FE050FF4FFA
:100C90000190F081E02D708311968C9182836F5FBB
:100CA00001C060E0862F90E08417950788F280915C
:100CB000700284FF04C08F7E8093700268C0A09190
:100CC0002001E1E0EA0FB0E080910002A057BD4FA3
:100CD0008C93A1E0AE0FF0E0E057FD4F80E1808300
:100CE000CFE7D2E039832883E1E0EA0FB0E0A057F4
:100CF000BD4F2C93A1E0AE0FF0E08981E057FD4F8E
:100D0000808359834883E1E0EA0FB0E0A057BD4FEC
:100D10004C9381E08E0F80932001F0E08981E057B1
:100D2000FD4F8083C0E008C0EC2FF0E0E057FD4F9E
:100D300080810E942002CF5FC630B0F380918B0289
:100D400090918C02CFE7D2E088839983A091200113
:100D5000E1E0EA0FB0E0A057BD4F8C9381E08E0F29
:100D600080932001F0E0E057FD4F90830CC080910C
:100D7000700284FD0CC081E080938A028091700231
:100D80008860809370028091220180932301DF911B
:100D9000CF911F910F91FF900895CF93DF93809192
:100DA0007002877F80937002E0912001A1E0AE0F76
:100DB000F0E080910002E057FD4F8083E1E0EA0F10
:100DC000B0E0C7E8D2E08A81A057BD4F8C9381E0A4
:100DD0008E0F80932001F0E08B81E057FD4F8083E0
:100DE000C0E008C0EC2FF0E0E057FD4F80810E948A
:100DF0002002CF5FC330B0F380918B0290918C02C0
:100E0000CFE7D2E099838883A0912001E1E0EA0F47
:100E1000B0E08981A057BD4F8C9391E09E0F9093D5
:100E20002001F0E0E057FD4F8083DF91CF910895DE
:100E3000E1ECF0E08081806880830895E1ECF0E0EF
:100E400080818F778083089583E6809300020E94DB
:100E500000080E94EF080E9407080E9450080E94A4
:100E6000DD00789484E790E00E94200883E590E01C
:100E70000E9498080E94180780ED91ECABE8B9E653
:100E80008093710290937202A0937302B0937402E4
:100E900010926E0189E180937E0284E0809370025B
:100EA00086E090E090937802809377021092760229
:100EB0001092750282E38093660188B18F708095ED
:100EC00080938F0280939A03109283021092700293
:100ED00010927B02E0E9F3E0118210821382128209
:100EE0001582148217821682C0E080917E028111E1
:100EF00005C080E2C82784E680937E02809170025C
:100F000081FF06C08D7F809370020E94660316C029
:100F10008091770290917802029780F4909121015C
:100F200080912001981751F0809170028B7F8093FF
:100F300070020E941E078BB184608BB990912101D1
:100F400080912001981729F08091700282FF0E9401
:100F50004402909121018091200198131DC080913D
:100F6000700282FD19C00E94CE088823A9F0E0EC2F
:100F7000F0E080818064808380917002846080933F
:100F8000700284E090E090937802809377028BB1B6
:100F90008B7F8BB90E9418078091700283FD0E949D
:100FA000CD068091700286FF03C08F7B8093700214
:100FB0008091700280FF04C00E941A080E945701AD
:100FC00080919A0390E0880F991F8E718C2B85B9C0
:100FD0008CCF109264001092610013BE15BE08956C
:100FE00015BE1FBE80E008958FE384B917B886E16F
:100FF0008AB915B818B81BB813B816B819B8089537
:101000000E94E9070E94F4070E94F00708958BE907
:1010100087BD18BC16BC13BC82E084BD95E095BDAD
:1010200080936E0080E00895EEE6F0E080818260BB
:1010300080830895EEE6F0E08081827080830895D9
:10104000909325018093240108951F920F920FB66B
:101050000F9211242F933F934F935F936F937F933E
:101060008F939F93AF93BF93EF93FF9381E085BBE3
:10107000E0912401F0912501309709F00995FF9145
:10108000EF91BF91AF919F918F917F916F915F9100
:101090004F913F912F910F900FBE0F901F90189579
:1010A0008FE990E0909389008093880081E090E040
:1010B00090938B0080938A00109287001092860094
:1010C000109285001092840013BC1092800089E079
:1010D000809381001092820082E080936F0080E014
:1010E00008951F920F920FB60F9211248F9382E0F2
:1010F00086BB8F910F900FBE0F901F9018951F9277
:101100000F920FB60F92112416BA0F900FBE0F90C8
:101110001F9018951F920F920FB60F9211248F9364
:1011200085E086BB8F910F900FBE0F901F90189592
:10113000909327018093260108951F920F920FB676
:101140000F9211242F933F934F935F936F937F934D
:101150008F939F93AF93BF93EF93FF9381E086BBF1
:10116000E0912601F0912701309709F00995FF9150
:10117000EF91BF91AF919F918F917F916F915F910F
:101180004F913F912F910F900FBE0F901F90189588
:101190008091C00085FB882780F908958091C00068
:1011A00086FB882780F908958093C60008950895E6
:1011B00008950895009721F090932D0180932C01BC
:1011C0000895009721F090932B0180932A010895B0
:1011D000009721F0909329018093280108958FECC6
:1011E00090E09093C5008093C40082E08093C0009B
:1011F00088E18093C10086E08093C20087ED98E08B
:101200000E94DA0888ED98E00E94E10889ED98E0F4
:101210000E94E80810922F0110922E010895F89470
:02122000FFCFFE
:101222007102730285027C0264017502300162015F
:081232000000000000000000B4
:0200000400807A
:0102000000FD
:100772000000000000000000000000000000000077
:100782000000000000000000000000000000000067
:100792000000000000000000000000000000000057
:1007A2000000000000000000000000000000000047
:1007B2000000000000000000000000000000000037
:1007C2000000000000000000000000000000000027
:1007D2000000000000000000000000000000000017
:1007E2000000000000000000000000000000000007
:1007F20000000000000000000000000000000000F7
:1008020000000000000000000000000000000000E6
:1008120000000000000000000000000000000000D6
:1008220000000000000000000000000000000000C6
:1008320000000000000000000000000000000000B6
:1008420000000000000000000000000000000000A6
:100852000000000000000000000000000000000096
:100862000000000000000000000000000000000086
:100872000000000000000000000000000000000076
:100882000000000000000000000000000000000066
:0C0892000000000000000000000000005A
:00000001FF
