:100000000C9434000C9451000C9451000C94510049
:100010000C9451000C9451000C9451000C9451001C
:100020000C9451000C9451000C94AB080C94BE0835
:100030000C9492080C94A0080C9446080C9451005F
:100040000C9451000C9451000C9424030C94510016
:100050000C9451000C9451000C9451000C945100DC
:100060000C9451000C94510011241FBECFEFD8E026
:10007000DEBFCDBF11E0A0E0B1E0E4E6F2E102C0F6
:1000800005900D92A831B107D9F723E0A8E1B1E0BE
:1000900001C01D92A939B207E1F70E9441070C94F3
:1000A00030090C94000080917802909179020097B9
:1000B00029F4109279021092780205C0019790936A
:1000C00079028093780280916C0190916D01009784
:1000D00029F410926D0110926C010895019790938C
:1000E0006D0180936C01089580917C028150809312
:1000F0007C0280917602909177020197909377022B
:100100008093760280916F02816080936F0280916C
:100110006601813001F58091810285FF17C08F7DD6
:10012000809381028091700290917102A09172027D
:10013000B09173020196A11DB11D8093700290933E
:100140007102A0937202B093730205C08091810284
:1001500080628093810282E38093660108959C010E
:10016000215031092F3F334050F4F999FECF92BD11
:1001700081BD8FB381608FBB80B590E008958FEF14
:100180009FEF08958091740290917502009719F085
:10019000409771F01AC08CE990E0909379028093B7
:1001A00078028DE691E090936D0180936C01089543
:1001B0008CEA90E0909379028093780281E991E053
:1001C00090936D0180936C0108958BE490E090937F
:1001D00079028093780290936D0180936C01089569
:1001E00080E090E010C0FC01EE0FFF1FE80FF91F48
:1001F000EE0FFF1FEE52F84F10821182128213820F
:10020000148215820196823391056CF3089526B10C
:1002100030E020953095E62FF0E02E233F23862313
:10022000E82FF0E02E173F0709F5882331F0809181
:100230009803862B8093980319C080919803962F7A
:10024000982379F0242F30E0220F331FF901E85E64
:10025000FE4F0190F081E02DD901A257BC4FED93E4
:10026000FC93962F90958923809398038091960311
:1002700090919703FC01EE0FFF1FE80FF91FEE0F9F
:10028000FF1FEE52F84F4083209198036223618351
:1002900040917002509171026091720270917302EC
:1002A000428353836483758301969093970380936D
:1002B000960320917A0230917B022F5F3F4F30935B
:1002C0007B0220937A02C29721F410929703109236
:1002D0009603089586B18F70809580938D029091DA
:1002E000820298279093810220918E0330918F0390
:1002F0002115310539F02150310930938F032093B6
:100300008E031EC09091810290FF0BC09AE09093E3
:10031000670190916B019E7F8170892B80936B01A7
:100320000FC080916701882359F081508093670145
:10033000811106C040E061E080916B010E940701DD
:100340008091900390919103009731F001979093E1
:1003500091038093900321C08091810281FF0EC0A0
:100360008AE08093680180916B01982F9D7F809136
:100370008D028270892B80936B010FC08091680180
:10038000882359F0815080936801811106C041E0B3
:1003900062E080916B010E9407018091920390912D
:1003A0009303009731F00197909393038093920306
:1003B00021C08091810282FF0EC08AE08093690192
:1003C00080916B01982F9B7F80918D028470892B87
:1003D00080936B010FC080916901882359F081508F
:1003E00080936901811106C042E064E080916B0155
:1003F0000E9407018091940390919503009731F03A
:100400000197909395038093940321C0809181027A
:1004100083FF0EC08AE080936A0180916B01982F60
:10042000977F80918D028870892B80936B010FC01C
:1004300080916A01882359F0815080936A0181116B
:1004400006C043E068E080916B010E940701809143
:100450008D02809382020E94350880916F028E7F08
:1004600080936F020895E5E8F2E024813581282722
:100470003583248320E018C08091890290918A02FC
:1004800080FF0BC09695879531E0832730EA93274C
:1004900090938A028093890206C0969587959093DF
:1004A0008A02809389022F5F283030F308950E94DA
:1004B000E908882369F0E0912101F0E0E257FD4F5F
:1004C00080810E94F508809121018F5F8093210136
:1004D00008950F931F93CF93C82F80916E018230A0
:1004E00009F43FC028F4882361F0813031F19BC0CA
:1004F000843009F470C008F456C0853009F471C026
:1005000092C0CC2321F080910002C81399C0C11180
:1005100005C080916F02806180936F02E5E8F2E090
:1005200085E081838FEF9FEF958384838C2F0E94DA
:10053000330281E080936E0183C005E812E0F80188
:10054000C0838C2F0E943302F80181819FEF980FA6
:100550009183C03111F48093860282E080936E0112
:100560006FC0E091220181E08E0F80932201F0E0C4
:10057000E159FE4FC0838C2F0E943302E5E8F2E080
:1005800081818150818381115BC08091850280319E
:1005900031F4C093860283E080936E0151C084E001
:1005A00080936E014DC0E091220181E08E0F809317
:1005B0002201F0E0E159FE4FC0838C2F0E943302EC
:1005C000E5E8F2E0818181508183811139C084E0C6
:1005D00080936E0135C0C0937E0285E080936E01EA
:1005E0002FC0EDE7F2E0C08380819181E5E8F2E081
:1005F00097838683248135818217930731F4809114
:100600006F02826080936F0204C080912201809308
:10061000230110926E0180916F028F7780936F0299
:100620000E94C2000DC010926E0180912201809341
:10063000230180916F028F7780936F020E94C20026
:10064000CF911F910F9108951F920F920FB60F92A5
:1006500011242F933F934F935F936F937F938F93C7
:100660009F93AF93BF93EF93FF9380916F02882383
:10067000CCF48091780290917902892B69F4809171
:100680006F028F7780936F0210926E0180918102CA
:100690008F7E809381021CC0809181028061809353
:1006A000810216C080916C0190916D01892B59F4E3
:1006B00080916F02806880936F02809181028061D7
:1006C0008093810205C0809181028F7E8093810298
:1006D0000E94C2008091810284FF04C08091C60004
:1006E0000E946902FF91EF91BF91AF919F918F910D
:1006F0007F916F915F914F913F912F910F900FBE1E
:100700000F901F901895FF920F931F93CF93DF9335
:100710001092200110922101E5E8F2E08FEF9FEFA7
:100720009583848395B180E1892785B9808186305E
:1007300009F4D9C018F4833041F036C3883009F485
:100740007DC1803109F440C22FC383E880938702C2
:1007500080916F0284FF04C08F7E80936F0234C348
:10076000A0912301E1E0EA0FE0932301B0E0A15959
:10077000BE4F8C91CDE7D2E08883A1E0AE0FA0936D
:100780002301F0E0E159FE4F80818983488159813E
:10079000E1E0EA0FE0932301B0E0A159BE4F8C9154
:1007A000888381E08E0F80932301F0E0E159FE4FB2
:1007B0008081898328813981C9010197803D67E063
:1007C000960720F083E080938802FEC2BA01615050
:1007D00071096C30710538F46CE070E0641B750BC6
:1007E0006817790748F482E08093880280916F024D
:1007F000886080936F02E8C2A0912001E1E0EA0FD7
:10080000B0E080910002A257BD4F8C9361E06E0F63
:10081000F0E0E257FD4F83E0808381E0860F809314
:10082000200170E0FB01E257FD4F1082F12CC0E087
:1008300026C0E0912001A1E0AE0FA09320010E2F71
:1008400010E0FA01E80FF91F3197EE0FFF1FE0509B
:10085000FF4F80819181FC01D081F801E257FD4F6B
:10086000D083E1E0EA0FE0932001EA2FF0E0DC0121
:1008700011968C91E257FD4F8083CE5FF3948F2DBC
:1008800090E082179307A8F2FB01E257FD4FC08367
:10089000D0E007C0FC01E257FD4F80810E94330287
:1008A000DF5F8D2F90E02C2F30E02D5F3F4F8217C0
:1008B000930784F38091890290918A02CDE7D2E078
:1008C00088839983A0912001E1E0EA0FB0E0A2576C
:1008D000BD4F8C9381E08E0F80932001F0E0E257B2
:1008E000FD4F90836DC286E880938702A09123011B
:1008F000E1E0EA0FE0932301B0E0A159BE4F8C91F3
:10090000CDE7D2E08883A1E0AE0FA0932301F0E011
:10091000E159FE4F8081898388819981E1E0EA0F66
:10092000E0932301B0E0A159BE4F2C91288331E020
:100930003E0F30932301F0E0E159FE4F30813983BF
:100940008D30910548F082E08093880280916F029B
:10095000886080936F0238C2FC013197EE0FFF1F51
:10096000E050FF4FC081D181288320917E022A83ED
:1009700020916F0224FF05C0822F8F7E80936F022B
:1009800023C2A0912001E1E0EA0FB0E02091000233
:10099000A257BD4F2C93A1E0AE0FF0E0E257FD4F00
:1009A00026E020832DE732E0F90191838083E1E0A6
:1009B000EA0FB0E0A257BD4F8C9391E09E0FF0E09C
:1009C000D90111968C91E257FD4F8083E1E0E90F48
:1009D000E0932001A92FB0E08881A257BD4F8C93EE
:1009E00081E08E0F80932001F0E08981E257FD4F76
:1009F0008083C0E008C0EC2FF0E0E257FD4F80811B
:100A00000E943302CF5FC630B0F38091890290918B
:100A10008A02CDE7D2E088839983A0912001E1E0AA
:100A2000EA0FB0E0A257BD4F8C9381E08E0F809308
:100A30002001F0E0E257FD4F9083C2C188E8809327
:100A4000870280916F0284FF04C08F7E80936F02C3
:100A5000BBC1A0912301E1E0EA0FE0932301B0E0E4
:100A6000A159BE4F8C91CDE7D2E08883A1E0AE0FB3
:100A7000A0932301F0E0E159FE4F808189838881B2
:100A80009981E1E0EA0FE0932301B0E0A159BE4F64
:100A90002C91288321E02E0F20932301F0E0E159CF
:100AA000FE4F20812983288139818130910529F0E9
:100AB00098F182309105B9F022C02115310521F05D
:100AC0002115BFEF3B0731F440916F024064409322
:100AD0006F0222C083E08093880280916F02886059
:100AE00080936F0271C121153105B1F083E08093CD
:100AF000880280916F02886080936F0265C181E0F7
:100B00008093880280916F02886080936F02809149
:100B100022018093230158C1A0912001E1E0EA0F56
:100B2000B0E040910002A257BD4F4C93A1E0AE0F40
:100B3000F0E0E257FD4F48E04083CDE7D2E09983F3
:100B40008883E1E0EA0FB0E0A257BD4F8C93A1E0AB
:100B5000AE0FF0E08981E257FD4F8083398328830F
:100B6000E1E0EA0FB0E0A257BD4F2C9381E08E0F79
:100B700080932001F0E08981E257FD4F8083C0E03F
:100B800008C0EC2FF0E0E257FD4F80810E94330255
:100B9000CF5FC630B0F38091890290918A02CDE791
:100BA000D2E088839983A0912001E1E0EA0FB0E0D0
:100BB000A257BD4F8C9381E08E0F80932001F0E00F
:100BC000E257FD4F9083FCC080E980938702E0915B
:100BD0002301A1E0AE0FA0932301F0E0E159FE4F05
:100BE0008081CDE7D2E08883E1E0EA0FE093230142
:100BF000B0E0A159BE4F8C91898328813981A1E051
:100C0000AE0FA0932301F0E0E159FE4F808188836D
:100C1000E1E0EA0FE0932301B0E0A159BE4F8C91CF
:100C200089834881598181E08E0F80932301F0E010
:100C3000E159FE4F8081BA01615071096B3771052E
:100C400038F490E0FA01EE0FFF1F8E179F0749F06E
:100C500083E08093880280916F02886080936F02A6
:100C6000B3C0C90101970C9738F48CE090E0821B67
:100C7000930B8617970790F582E080938802809106
:100C80006F02886080936F029FC0A0912301E1E012
:100C9000EA0FE0932301B0E0A159BE4F7C91ADE78C
:100CA000B2E07C93F1E0FE0FF0932301F0E0E15914
:100CB000FE4FE0811196EC931197F901E80FF91FAF
:100CC0003197EE0FFF1FE050FF4F0190F081E02DB4
:100CD000708311968C9182836F5F01C060E0862FD4
:100CE00090E08417950788F280916F0284FF04C01A
:100CF0008F7E80936F0268C0A0912001E1E0EA0F2F
:100D0000B0E080910002A257BD4F8C93A1E0AE0FDE
:100D1000F0E0E257FD4F80E18083CDE7D2E03983F8
:100D20002883E1E0EA0FB0E0A257BD4F2C93A1E089
:100D3000AE0FF0E08981E257FD4F808359834883ED
:100D4000E1E0EA0FB0E0A257BD4F4C9381E08E0F77
:100D500080932001F0E08981E257FD4F8083C0E05D
:100D600008C0EC2FF0E0E257FD4F80810E94330273
:100D7000CF5FC630B0F38091890290918A02CDE7AF
:100D8000D2E088839983A0912001E1E0EA0FB0E0EE
:100D9000A257BD4F8C9381E08E0F80932001F0E02D
:100DA000E257FD4F90830CC080916F0284FD0CC010
:100DB00081E08093880280916F02886080936F0247
:100DC0008091220180932301DF91CF911F910F9198
:100DD000FF900895CF93DF9380916F02877F809378
:100DE0006F02E0912001A1E0AE0FF0E080910002DF
:100DF000E257FD4F8083E1E0EA0FB0E0C5E8D2E0C2
:100E00008A81A257BD4F8C9381E08E0F8093200181
:100E1000F0E08B81E257FD4F8083C0E008C0EC2FEB
:100E2000F0E0E257FD4F80810E943302CF5FC33074
:100E3000B0F38091890290918A02CDE7D2E0998344
:100E40008883A0912001E1E0EA0FB0E08981A257F8
:100E5000BD4F8C9391E09E0F90932001F0E0E257FC
:100E6000FD4F8083DF91CF910895E1ECF0E0808128
:100E7000806880830895E1ECF0E080818F77808343
:100E8000089583E68093000281E090E00E94AF0025
:100E9000809300020E9421080E9410090E942808E5
:100EA0000E9471080E94F000789484E790E00E940C
:100EB000410883E590E00E94B9080E94350780ED63
:100EC00091ECABE8B9E68093700290937102A09325
:100ED0007202B093730210926E0189E180937C02DA
:100EE00084E080936F0286E090E090937702809395
:100EF0007602109275021092740282E3809366016A
:100F000088B18F70809580938D02809398031092A2
:100F1000810210926F02EEE8F3E0118210821382D8
:100F200012821582148217821682C0E080917C02A0
:100F3000811105C080E2C82784E680937C028091FD
:100F40006F0281FF06C08D7F80936F020E94830332
:100F500016C08091760290917702029780F490916A
:100F6000210180912001981751F080916F028B7FB1
:100F700080936F020E943B078BB184608BB9909184
:100F8000210180912001981729F080916F0282FF42
:100F90000E945702909121018091200198131DC059
:100FA00080916F0282FD19C00E94EF088823A9F08A
:100FB000E0ECF0E080818064808380916F02846047
:100FC00080936F0284E090E09093770280937602A2
:100FD0008BB18B7F8BB90E94350780916F0283FDA7
:100FE0000E94EA0680916F0286FF03C08F7B809388
:100FF0006F0280916F0280FF04C00E943B080E9434
:101000006A018091980390E0880F991F8E718C2B54
:1010100085B98CCF109264001092610013BE15BE8A
:10102000089515BE1FBE80E008958FE384B917B8F8
:1010300086E18AB915B818B81BB813B816B819B82C
:1010400008950E940A080E9415080E941108089538
:101050008BE987BD18BC16BC13BC82E084BD95E04B
:1010600095BD80936E0080E00895EEE6F0E080810B
:10107000826080830895EEE6F0E080818270808354
:101080000895909325018093240108951F920F9253
:101090000FB60F9211242F933F934F935F936F934B
:1010A0007F938F939F93AF93BF93EF93FF9381E0D1
:1010B00085BBE0912401F0912501309709F0099555
:1010C000FF91EF91BF91AF919F918F917F916F9120
:1010D0005F914F913F912F910F900FBE0F901F90F6
:1010E00018958FE990E0909389008093880081E0C3
:1010F00090E090938B0080938A001092870010926A
:101100008600109285001092840013BC109280001B
:1011100089E0809381001092820082E080936F00CA
:1011200080E008951F920F920FB60F9211248F93B3
:1011300082E086BB8F910F900FBE0F901F90189585
:101140001F920F920FB60F92112416BA0F900FBE76
:101150000F901F9018951F920F920FB60F921124A7
:101160008F9385E086BB8F910F900FBE0F901F90DD
:101170001895909327018093260108951F920F924E
:101180000FB60F9211242F933F934F935F936F935A
:101190007F938F939F93AF93BF93EF93FF9381E0E0
:1011A00086BBE0912601F0912701309709F009955F
:1011B000FF91EF91BF91AF919F918F917F916F912F
:1011C0005F914F913F912F910F900FBE0F901F9005
:1011D00018958091C00085FB882780F9089580913B
:1011E000C00086FB882780F908958093C600089583
:1011F000089508950895009721F090932D0180930C
:101200002C010895009721F090932B0180932A01DF
:101210000895009721F09093290180932801089563
:101220008FEC90E09093C5008093C40082E080939F
:10123000C00088E18093C10086E08093C20088EFFF
:1012400098E00E94FB0889EF98E00E9402098AEF6B
:1012500098E00E94090910922F0110922E01089522
:04126000F894FFCF30
:101264007002720283027A02640174023001620124
:08127400000000000000000072
:0200000400807A
:0102000000FD
:1007D2000000000000000000000000000000000017
:1007E2000000000000000000000000000000000007
:1007F20000000000000000000000000000000000F7
:1008020000000000000000000000000000000000E6
:1008120000000000000000000000000000000000D6
:1008220000000000000000000000000000000000C6
:1008320000000000000000000000000000000000B6
:1008420000000000000000000000000000000000A6
:100852000000000000000000000000000000000096
:100862000000000000000000000000000000000086
:100872000000000000000000000000000000000076
:100882000000000000000000000000000000000066
:100892000000000000000000000000000000000056
:1008A2000000000000000000000000000000000046
:1008B2000000000000000000000000000000000036
:1008C2000000000000000000000000000000000026
:1008D2000000000000000000000000000000000016
:1008E2000000000000000000000000000000000006
:0C08F200000000000000000000000000FA
:00000001FF
